:020000040800F2
:10000000F0080020B9010008452200082920000856
:1000100000000000000000000000000000000000E0
:10002000000000000000000000000000492200085D
:100030000000000000000000472200084B220008DA
:10004000CB01000800000000CB010008CB01000834
:10005000CB010008CB010008CB010008CB01000850
:1000600000000000B1070008BD070008CB01000830
:10007000CB010008CB010008CB0100080000000004
:10008000CB0100080000000000000000CB010008C8
:1000900000000000CB010008CB010008CB010008E4
:1000A00000000000CB01000800000000E12700086C
:1000B00000F002F800F054F812A030C808382418F4
:1000C0002D18AC4201D100F04BF80FCCA246AB4644
:1000D0000CA730CF2D1B083F3F197C427F1E544494
:1000E0002D090426F441641EAC4201D300F038F817
:1000F0000126334200D0FB1A3343984754465D46ED
:10010000DFE700006437000084370000103A02D3B4
:1001100078C878C1FAD8520701D330C830C101D5A8
:1001200004680C6070470000704700000023002442
:1001300000250026103A01D378C1FBD8520700D31E
:1001400030C100D50B60704710B5642902D100F0B2
:100150004FF810BD002010BD1FB51FBD10B510BD5C
:1001600000F0FEF91146FFF7F7FF02F06DFD00F019
:1001700016FA03B4FFF7F2FF03BC00F06BFA0000BD
:1001800070B505460C46164602E00FCC0FC5103E72
:10019000102EFAD2082E02D303CC03C5083E042E3B
:1001A00007D301CC01C5361F03E021782970641CF8
:1001B0006D1C761EF9D270BD07488047074800477E
:1001C000FEE7FEE7FEE7FEE7FEE7FEE70448054937
:1001D000054A064B7047000053220008B100000892
:1001E000F0020020F0080020F0040020F0040020BD
:1001F000F7B5002575291068009914A611D0C046DE
:10020000C046002802DA404211A608E000990968B9
:100210008A0701D50FA602E0490704D50EA60125DD
:1002200001E0C046C046009F0024243704E000F0EF
:1002300051F930313955641C0028F8D12B4632462B
:100240002146009800F0EEF8FEBD0000000000001E
:100250002D0000002B00000020000000F8B5042A4B
:100260002CD3830712D00B78491C0370401C521EFC
:1002700083070BD00B78491C0370401C521E830768
:1002800004D00B78491C0370401C521E8B079B0F37
:1002900005D0C91ADF002023DE1B08C90AE0FFF7DA
:1002A0006FFFF8BD1D4608C9FD401C46B4402C43F5
:1002B00010C0121F042AF5D2F308C91A521EF0D436
:1002C0000B78491C0370401C521EEAD40B78491C61
:1002D0000370401C012AE4D409780170F8BD431A68
:1002E00070B593421BD28918801804E0491E401E45
:1002F0000B78521E03709307F8D106E010391038BE
:1003000078C9103978C01038103A102AF6D203E0B4
:10031000091F001F0B680360121FF9D570BDFFF79E
:100320002FFF70BDF8B5064614460843800707D076
:10033000751AA54219D20819102D13D2311907E0E8
:100340003046FFF7CCFFF8BD401E491E02780A7008
:10035000641EF9D2F8BD471B2A463946FFF77EFFD7
:10036000641B3846A542F6D3011B22463046FFF7F0
:1003700075FFF8BD70477047704710B501469E2461
:100380000002CA15A307002A02D01843002A04DB82
:10039000A21A002A0CDDD04010BD1206120E01D1A7
:1003A00040004008A21A03D4D04040420028F3DDA8
:1003B000FF2248001206904201D9002010BDC81744
:1003C000C043584010BD1F22030C02D10F2200046D
:1003D0001CD0030E01D10002083A030F01D1000125
:1003E000121F830F01D18000921E002801DB400004
:1003F000521ED2055118021251181922904004D3EE
:10040000491C002801D14908490008467047C10F1E
:10041000C90700D04042012292071143D3E70121CE
:100420008907D0E7FFB504460D4681B0243000901F
:100430002168880604D51022E0699143216000E01C
:100440000120A84201DD471B00E000270498A169B4
:100450007A191018081AA0612078C00602D4204624
:10046000C046C046002608E003986268A168805D27
:100470009047206A401C761C206204988642F3DB79
:100480002078C0060AD52046C046C04606E062680D
:10049000A16830209047206A401C206238467F1EA9
:1004A0000028F4DC07E000986268A168405D90478E
:1004B000206A401C206228466D1E0028F3DC20467E
:1004C000C046C0462078000602D5022005B0F0BD27
:1004D0000120FBE701468008081A02091018020AE9
:1004E0001018020C1018C008820012185200891A45
:1004F00001E0401C0A390A29FBD2704710B5FF23DE
:100500001B0644009C421DD84C009C421AD803464E
:10051000124A0B4307D4401A02D3EFF3008010BDF8
:10052000EFF3008010BD081A03D3EFF3008090436F
:1005300005E0EFF3008001219043C907084380F3F1
:10054000008810BD0D231B041A4204D01146002060
:1005500000F02DF810BD00F041F810BD0000009033
:10056000754600F043F8AE46050069465346C0089C
:10057000C000854618B020B5FFF728FE60BCB6461F
:1005800000260027C0C5C0C5C0C5C0C5C0C5C0C500
:10059000C0C5C0C5403D490849008D46704710B5EB
:1005A0000446C046C0462046FFF7E3FD10BDC80222
:1005B00012D54803400F002804D0C803C0430121CE
:1005C00088407047EFF3008000010009032109070C
:1005D000084380F3008870470020704710B5024838
:1005E00000F008F810BD00000000C07F0048704710
:1005F0002000002010B50C461107090F092904D06E
:100600000A290AD008290CD104E011460820FFF776
:10061000CEFF06E0510606D501E0510601D50120C6
:10062000C007214610BDD10607D501010909CC0834
:100630004907000E0006044309E0410F2002490764
:10064000000A0143200E00061D22D1410143084645
:10065000E7E7000001491820ABBEFEE726000200D4
:100660007047B0B50146406A826B50231A4204D0ED
:10067000006B026B08469047B0BD01214A02836BB4
:10068000134383630268D3681B059B0F02D000F0FD
:100690003BF9B0BD837E002BF9D113681B07F6D55B
:1006A00093685B070ED40346383354680C25AC437B
:1006B0005460FF2402341A68A2430A431A6000F00F
:1006C00023F9B0BD826B20231343836303463C337D
:1006D000C26B0A431A6000F017F9B0BD80B5406ADA
:1006E000816B40220A438263C16B04220A43C263C6
:1006F00000F00FF980BD80B5406A00F009F980BDB7
:1007000070B582B005460024019400688168032218
:100710000A40012A05D10168C9070ED1C168090440
:100720000BD48168214A11420AD0A86B10210143E1
:10073000A963E86B01242043E863204602B070BD42
:10074000816801220A4382606B4800686B4902F0AD
:1007500039FE01900198002817D00198401E0190A1
:100760000198002811D00198401E0190019800289E
:100770000BD00198401E01900198002805D00198E7
:10078000401E019001980028E7D100F09DFD06462B
:1007900028680068C007D0D100F096FD811B28684A
:1007A0000329F6D30168C907F3D1BEE7170000801B
:1007B00080B5CF4800F0A6FB80BDC04680B502489A
:1007C00000F0A0FB80BDC04648010020EFF3108080
:1007D00072B6FEE7F0B583B0002702973422825C40
:1007E000012A02D1022003B0F0BD05463435066867
:1007F000B268520717D4009701950B684A68012424
:1008000027469F403A4DAA4215D1B06AB843B0621C
:100810001846A0431028009F3846019D08D1102B90
:100820001BD038481AE0816B20220A4382630120E2
:100830002F7003B0F0BDB26A3A43B262C06A421E82
:10084000072A43D21846A0431028009F3846019D2E
:10085000EED1102B0AD0A00509E0294825490A68E5
:1008600002400A6038462F7003B0F0BDE005214910
:100870000A6802430A60102B3846D9D11E48006826
:100880001E4902F09FFD0A2141430291029800286F
:100890003846CDD00298401E02900298002811D010
:1008A0000298401E0290029800280BD00298401E29
:1008B00002900298002805D00298401E02900298EB
:1008C0000028E7D138462F7003B0F0BD22079042D0
:1008D000B8D072690720024089689142B2D072692B
:1008E000824372610140706908437061AAE7C046A3
:1008F00001100000082701401400002040420F00B2
:10090000FFFF7FFFFFFFBFFF80B502F031FA80BD20
:1009100070477047F0B581B00124002862D00646C8
:100920002436816B002903D0816BC9060AD555E0B6
:1009300000213174C163054600F094F82846816BAC
:10094000C9064BD401688A68520747D481225200F5
:10095000836B93439A1C82638B6803221340012BA1
:1009600005D10B68DB070ED1CB681B040BD4CB6819
:100970001824A34384681C43CC6092070B699343FB
:1009800042681A430A61CA68344B1340CB60826ADA
:10099000521E531E9A411203037E9B03447EE403BE
:1009A0001C43837E5D032543C46807692C431443BD
:1009B000BA1E55425541AD002543327852002A43B4
:1009C000C47E012C14D1002B0FD0836B20241C4338
:1009D0008463C36B01241C43C46309E0816B102250
:1009E0000A438263204601B0F0BD01231B041A4371
:1009F000C369FF24C234A34202D0046A22431A43CB
:100A0000CB681343CB60C36A5C1E072C21D24C69B0
:100A10000725AC434C612B404C691C434C61C968B1
:100A20000F4B0B40934207D10024C463816B01221A
:100A30000A4302218A43D4E7816B10220A43022130
:100A40008A438263C16B01242143C163204601B004
:100A5000F0BD01242407A342D9D0E0E71902FEFF2C
:100A6000E7FF3F83F0B587B004460026069605965B
:100A700004960396029600681C49884201D007B08C
:100A8000F0BD01277802FE494A6802434A604A687D
:100A900002400192019878040A6802430A600968DA
:100AA000014001910496032003901E2002900198BA
:100AB0000920C00602A900F011FB78030C4DB90211
:100AC0003A0280230B4F2F606E60AE60EB602A61AC
:100AD0006961AE61E861284600F07EFA002801D025
:100AE000FFF774FE6C62256307B0F0BD002401407F
:100AF0000401002008000240F0B581B003689C6842
:100B00000223640717D43424045D012C13D0064655
:100B1000343601233370447E012C0FD004460093F9
:100B200015460F46FFF7ECFD39462A460546009B61
:100B30002046002D02D0184601B0F0BD836B174C43
:100B40001C40012300931B02E31883630025C56347
:100B500003681C241C605C68102727435F603570A5
:100B6000046B104F104EA662E7620D4E2663DE68DE
:100B7000009F3E43DE604033064620460C46194641
:100B80001346224600F068FA2B463068816804223A
:100B90000A438260184601B0F0BDC046FEF0FFFF78
:100BA000DD060008F706000863060008F0B584B00B
:100BB0000E46022141750468A16801252943A16000
:100BC000816901291DD002290ED0032927D1002ACD
:100BD00000D113E10395032511462940042A00D3CF
:100BE000E3E033460025EFE051081DD0029603955F
:100BF00003260B46334001934B1E032B26D20027BE
:100C00003FE0970814D0039503233946194000911B
:100C1000791E03290296019358D2002589E000210C
:100C20004575084604B0F0BD0021D2074AD1E5E081
:100C3000002103231A40032A00D0AEE07218537833
:100C4000715C0902C91821809178ABE0B14300279B
:100C5000029E738835882D04EB182360F388B588CD
:100C60002D04EB182360738935892D04EB1823605C
:100C7000F389B5892D04EB18236010363F1DB94266
:100C8000E7D101990029029E16D0BB00F1184D88CA
:100C9000F35A1B045B192360019B012B0CD01F46E8
:100CA000CB888D882D04EB182360022F04D04B894C
:100CB00009890904C91821601146039DA943D20777
:100CC00000D19BE04900715A218097E09F430025A5
:100CD00031460E7836064B781B049B198E78360207
:100CE0009B19CE789B1923600B791B064E7936042D
:100CF000F3188E7936029B19CE799B1923600B7AF3
:100D00001B064E7A3604F3188E7A36029B19CE7A79
:100D10009B1923600B7B1B064E7B3604F3188E7BDE
:100D200036029B19CE7B9B19236010312D1DAF42DB
:100D3000CFD1009F002F029E26D0A900735C1B0616
:100D400071184D782D04EB188D782D025B19CD7834
:100D50005B192360012F17D00B791B064D792D04E9
:100D6000EB188D792D025B19CD795B192360022F69
:100D70000AD00B7A1B064D7A2D04EB188D7A2D02C2
:100D80005B19C97A591821601146019B9943039D4B
:100D900003231A40032A00D150E7022A1ED0012A59
:100DA00001D1715C2170046828E0AA430025334614
:100DB0003768276077682760B7682760F76827601B
:100DC00010362D1DAA42F3D1002905D0AA001D46D8
:100DD0009B582360012909D1039D0FE072185278B6
:100DE000715C090289182180046807E0AA18536819
:100DF00023600229039D01D0916821602168457517
:100E0000084604B0F0BD10B5002810D0417D00297F
:100E100005D100210175044600F01EF8204602218C
:100E2000417500210279002A03D0836802E0012085
:100E300010BDCB430268136193686024A343C46868
:100E40001C43946093688024A34304691C4394600A
:100E500001224275084610BD81B0006807498842EA
:100E600001D001B07047064801684022114301607B
:100E7000006810400090009801B0704700300240B8
:100E80001410024010B5014620314A78022A12D1CE
:100E9000026813680E24A343136013680124A3435C
:100EA0001360C26B006C2346834053604C7000207B
:100EB00000220A7010BD04228263012000220A7001
:100EC00010BDB0B5014620314A78022A16D1026819
:100ED00013680E24A343136013680125AB4313600A
:100EE000C26B036C2C469C40546000240C704D7007
:100EF000416B002900D088472046B0BD04218163A2
:100F00000120B0BDF0B585B0C16B026C04273C4632
:100F10000292944003910E68214631404B424B416E
:100F2000049005682868014639404A424A411A43FC
:100F300030D02B4601220227014639404C424C4119
:100F4000029DAF40374201921146324600D0214601
:100F5000049E3446203400292CD008210840474202
:100F600047412846EA401107019D00D53D46002D26
:100F70001ED119680E229143196001210A46824050
:100F8000039B5A60B163002222706170316B0029AB
:100F90000CD10DE02968890602D42968B94329607B
:100FA00003994C60049EF16A002901D030468847BD
:100FB00005B0F0BD1968890605D419680A22914365
:100FC0001960012161700021217003994F60B16A9D
:100FD0000029EBD1ECE70000F0B585B0002830D057
:100FE0000546203502216970C4C804684168019132
:100FF00081680291C1680391016904911168134BE2
:101000000B4033433B43234301990B4302990B436A
:1010100003990B4304990B4313600024C4620C49E9
:1010200001632C700B490C385218142106461046E7
:1010300002F0C8F98000306401206870204605B0D5
:10104000F0BD0124204605B0F0BDC0460FC0FFFF33
:1010500000000240F8FFFDBFF0B582B0044620203A
:10106000255C0220012D2AD001922646203601223D
:1010700032707778012F20D1022070700020A06399
:101080002668376897433760E56B0095276C1546EF
:10109000BD40009F7D6073606368102B019F00D08E
:1010A0000F46B760102B00D00199F1603168E36AF8
:1010B000002B06D00E23194309E00021317002B045
:1010C000F0BD0A231943316031680423994331602C
:1010D00031681143316002B0F0BD0000F0B58CB052
:1010E00005900C68002C00D1CBE06748059A82423D
:1010F00001D0052000E0032000902032019200235F
:101100001D460A9309910CE032433A605B1C0C685F
:101110002046D8400A9A121D0A92AD1C002800D120
:10112000AFE0012706979F403C400794EED0029322
:1011300003242246AA40D0432B464D682E46264023
:10114000721E012A0495039313D8089005988268AB
:10115000089C2240CC689C4014438460EA06D20F6D
:10116000029B9A404468BC430746089814437C603D
:1011700007E0032E059F029B03D126460499039D99
:101180001FE0FA68024009998C68039DAC40144343
:10119000FC60022E049914D11C2108900A98014089
:1011A0000F228A40DC08A400019806599643099F43
:1011B0003A698A403243025108987968059F0326AC
:1011C0000E40AE403A68024032433A608903890FCC
:1011D00009999BD064480168069E3143016001680B
:1011E00031400B910322194691430B9A28480491F0
:1011F000085808900922D2060598904209D0254A3D
:10120000904207D0244A9042009E204F03D10226EC
:1012100001E000261D4F0C220A9802400F24944042
:101220000899A1431A48049C201896400E43066072
:10123000BC6809994868C20210D5079E3443BC6057
:10124000FC68820210D4B443FC607C68820310D432
:10125000B4437C603A68C00311D555E7079EB44398
:10126000BC60FC688202EED53443FC607C6882037B
:10127000EED534437C603A68C00300D544E7B243FE
:1012800043E70CB0F0BDC046000C0048000401402C
:1012900008000140000400480008004800690840B8
:1012A000411E8841704742690B4693430A4011042E
:1012B000C91881617047002A02D0182281507047F6
:1012C0002822815070470000054800687047C046DA
:1012D0001A48007802490A68101808607047C0462A
:1012E000E802002080B5C848016810220A43026065
:1012F000032000F005F800F023F8002080BDC04670
:1013000070B504467D20C0000C4E317802F05AF8CA
:101310000146C548006802F055F800F0B5FB01250C
:10132000032C08D8002806D10025E84321462A4688
:1013300000F028F87460284670BDC0460C000020FC
:1013400082B009480168012211430160016811401F
:1013500001910199110742680A43426040680840C0
:101360000090009802B0704718100240002805D481
:101370001F21084001218140014801607047C0469B
:1013800000E100E0002805D40322034693430A4A03
:101390009A1803E00C220240064BD2188007C00EB8
:1013A0008901C9B28140FF238340106898430843F4
:1013B0001060704714ED00E000E400E0F0B587B085
:1013C00004468078C0073D4F4FD0012005900107AB
:1013D0003A1F10680840049006D110680843106056
:1013E000106808400690069802920391344F3868BE
:1013F000C00512D405980602386830433860FFF7FC
:1014000063FF05463868304207D1FFF75DFF401B98
:101410006428F7D9032007B0F0BD03200190000233
:10142000264F3968014012D06268024091420ED0C6
:101430000598000439683A6802433A603A68824382
:101440003A6008461F4A10403860C80726D13868FD
:101450001C4908406168014339600498002804D1A0
:10146000029A10680399884310602168C80704D164
:10147000002089060AD407B0F0BD386903229043E2
:10148000A26802433A6100208906F4D53969102226
:101490009143E2680A433A6107B0F0BDFFF714FFD9
:1014A00005465A4E38688007D1D4FFF70DFF401B20
:1014B000B042F7D9019807B0F0BDC04620100240F5
:1014C00000700040FFFCFFFFF0B581B000284ED057
:1014D0000D4604464C4B186801210840A84208D22A
:1014E0001A68012082432A431A601A680240AA42FD
:1014F0004BD1206882070ED5420705D5072212027C
:101500005D4E3368134333605B4E3268F0239A4379
:10151000A36813433360C0072CD13B4A11680120F4
:101520000140A94205D91168814311601168C907BA
:101530002BD12078400707D5072000024E4A1168BA
:101540008143E068084310604B4801680C220A4060
:101550004A48042A3DD0082A3DD18A02120F484B3E
:101560009C5C454A926AC90337D447483BE0012056
:1015700001B0F0BD62684048001F0068022A06D032
:10158000012A22D18003084604D401B0F0BD8001B5
:101590000846FAD5384B1868032100918843104358
:1015A0001860FFF791FE0646184F334800680C217B
:1015B0000140606880008142AFD0FFF785FE801B4C
:1015C000B842F2D9009801B0F0BD80070846DCD5DA
:1015D000E0E7044608E02D4C06E00F210A402949C7
:1015E000895C01F0EFFE4443234800680006000FC9
:1015F0000749085CC4400C4804600320FFF780FEE4
:10160000002001B0F0BDC046002002408813000059
:101610003038000804480068174909684905490F2F
:10162000024A515CC840704714000020403800084E
:1016300010B511490B680C201840104A04280BD033
:1016400008280BD19802000F0D4C205C896ADB033F
:1016500006D40D49484310BD104610BD0B4810BDBF
:101660000F231940074B595C0446104601F0AAFEAF
:1016700001462046484310BD0410024040787D01D9
:10168000483800085838000800093D0000127A0068
:10169000F0B587B004460120002C00D1ECE10490A5
:1016A0002078C007F54E05940CD071680C200140DD
:1016B000042900D08AE03068800303D560680028E0
:1016C00000D1D8E0207880071CD570680007800F13
:1016D00009D070680C210140082900D08EE07068A4
:1016E000C00300D58AE030688007059C03D5E06818
:1016F000012800D0BFE03068F82188432169C90083
:1017000001433160059C2078000724D420784007ED
:1017100036D42078C00600D4CCE0706B05994969B6
:101720004A1D00D1BBE0012900D00AE10421084391
:101730007063706B012101437163FFF7C5FD0546BE
:10174000706B800700D5ADE0FFF7BEFD411B0320A5
:101750000229F5D990E1706AE169002979D0012167
:1017600008437062FFF7B0FD0546706A8007CDD46C
:10177000FFF7AAFD401B0228F7D9032007B0F0BDF0
:10178000012003900107F0690840029006D1F0693A
:101790000843F061F0690840069006980191B84F3F
:1017A0003868C00541D40398040238682043386083
:1017B000FFF78AFD05463868204236D1FFF784FDE1
:1017C000401B6428F7D9032007B0F0BD71680140C1
:1017D000082903D17068C00300D56CE762683068DF
:1017E00001214F04002A00D1F9E0052A00D1EFE0E1
:1017F000012A00D009E1090408430CE13068059C86
:10180000E16800293AD0012108433060FFF75CFD10
:1018100005463068800700D56DE7FFF755FD401B92
:101820000228F6D9032007B0F0BD05988168306A18
:10183000944F002900D1ADE0052900D195E00129A0
:1018400000D196E0039988433062306A04218843CE
:1018500091E0012188437062FFF736FD0546706A0A
:10186000800700D452E7FFF72FFD401B0228F6D96E
:10187000032007B0F0BD049807B0F0BD01218843F4
:101880003060FFF721FD05463068800700D439E756
:10189000FFF71AFD411B03200229F5D9ECE00421D2
:1018A00088437063706BF821884305998969C90082
:1018B000014371630598046A002C1ED070680C21E6
:1018C000014008291CD1012C049800D1D4E001204A
:1018D000030471680B40F26A059D6C6AA34200D054
:1018E000CAE00F231A40EC6AA24200D0C4E09A0476
:1018F0001140AA6A914200D0BEE0002007B0F0BDBE
:101900000120020631680492914331604706FFF7D7
:10191000DBFC0546022C0AD13068384200D18AE04F
:10192000FFF7D2FC411B03200229F5D9A4E030685F
:101930003842E2D0FFF7C8FC411B03200229F6D948
:101940009AE0042108437063706B0121884370633F
:10195000FFF7BAFC0546706B8007ABD5FFF7B4FC08
:10196000411B03200229F6D986E004210843306296
:10197000306A039908433062FFF7A6FC0546306AD7
:1019800080071BD4FFF7A0FC401BB842F7D9032007
:1019900007B0F0BD039988433062306A0421884360
:1019A0003062FFF791FC0546306A800706D5FFF7E5
:1019B0008BFC411B0320B942F6D95DE00298002858
:1019C000059C00D0A5E6F06901998843F061A0E686
:1019D0008A04104330600904306808431BE00A049D
:1019E000904330608804316881433160FFF76CFCBC
:1019F0000546059C3068384200D163E6FFF764FC79
:101A0000411B03206429F5D936E00A049043306075
:101A10008904306888433060FFF756FC054630681B
:101A2000384200D04EE6FFF74FFC401B6428F6D941
:101A3000032007B0F0BDF06A0F218843059AD16AF0
:101A40000143F1623D20000471688143906A0843BC
:101A5000516A014371603068049908433060FFF7B0
:101A600033FC04463068384200D046E7FFF72CFCD0
:101A7000011B03200229F5D907B0F0BD0010024078
:101A80000070004088130000401E010E01D00120AC
:101A900070470749074A5060074803680B40032115
:101AA0008907591801600020906007211160704774
:101AB000FFFFFF0010E000E020ED00E070477047FE
:101AC000F0B587B007460168CD690C682020049402
:101AD000029004406242624101200690C3021E4609
:101AE0002F362E40203E701E8641164305918E688B
:101AF00049D00397803701930F331D422B46049D35
:101B000006D0D348284001221640301800D089E082
:101B10000197102428462040474247410398006E11
:101B20000128069E059935D0D806069A36D4002A93
:101B3000039F37D080202840414241411806069A31
:101B400000D50A46002A00D17AE040210D406A42C1
:101B50006A41580600D506920698002873D1EFF323
:101B60001080012282F310883A6813688B43136057
:101B700080F310880020F8660298F867384600F075
:101B800051FA07B0F0BDB96E00295CD038468847DD
:101B900007B0F0BD3E46D806069AC8D53246002AA0
:101BA000039FC7D13D4658350C62886840064CD427
:101BB0006A8829886888002845D0914243D0EFF38D
:101BC0001080012383F3108809256D013E68069279
:101BD0003A463768AF43376080F31088EFF31080E0
:101BE00083F310881568AE689E43AE6080F310885A
:101BF0000298019D2860002090661066EFF3108027
:101C000083F3108813681D68A5431D6080F3108856
:101C1000022050660698081A81B21046FFF74EFF60
:101C200007B0F0BD00921002284042424241D8075E
:101C30000698059955D1002856D098075BD462E0E4
:101C4000F96E0029A2D107B0F0BD796F086842682B
:101C500090B20028F7D02B889842F4D26A80886925
:101C6000202833D0EFF31080012181F310887A4AC5
:101C700020323B681E6816401E6080F31088EFF328
:101C8000108081F310883A6893688B43936080F3E7
:101C90001088EFF3108081F310883A68936840262B
:101CA000B343936080F310880298019A106000207B
:101CB0003866EFF3108081F3108839680A68A24310
:101CC0000A6080F31088786FFFF7DCF802207866EE
:101CD00028886988401A81B23846FFF7EFFE07B0BE
:101CE000F0BD10460028A8D1009A0A627868104317
:101CF0007860980707D5002E05D002200862786822
:101D0000042202437A60580707D5002E05D004202C
:101D100008627868022202437A6026437242724166
:101D20001807069E00D51646002E04D1082008622A
:101D30007A6802437A600098800605406A426A41E8
:101D400001980342069D06D1002D07D0786800282F
:101D5000039D0DD177E71546002DF7D1086278680D
:101D6000029A1043786078680028039D00D16AE7E2
:101D70003E460298034062426241002B00D0069228
:101D80000698002805D1AA6E002A02D0284690475E
:101D9000296870682822024088684021084080181D
:101DA00006D12846FFF78BFE0020706007B0F0BD1B
:101DB000EFF31080009F87F31088092252012B68EF
:101DC0001C6894431C6080F31088EFF3108087F345
:101DD00010882A689368BB43936080F31088286E4C
:101DE00001280BD1EFF31080009A82F310882A6843
:101DF00013681024A343136080F3108802983060A6
:101E000000202866A8662868806840061AD5EFF387
:101E10001080009A82F310882A6893688B4393603D
:101E200080F31088696F00290CD00A48486308467F
:101E3000FFF747F8002800D105E7686F416B884736
:101E400007B0F0BD2846FFF73AFE07B0F0BDC04628
:101E500020010004F9230008DFFEFFFFB0B50028D1
:101E60001DD00446C06F002805D1782000212154E0
:101E7000204600F029F82420E06720680168012549
:101E8000A9430160606A002802D0204600F0E2F910
:101E9000204600F03FFB002803D02846B0BD0120BB
:101EA000B0BD0120C102226853688B435360916822
:101EB000082399439160116801431160204600F0A6
:101EC00033FA05462846B0BD70B586B004460026F4
:101ED000059604960396029601960068D8498842B2
:101EE00001D006B070BDC748416801220592930336
:101EF00019434160416819400091009951040268FA
:101F00000A43026000680840009003960220029095
:101F1000032004904002019000980920C00601A906
:101F2000FFF7DCF80F4D802010210F4A2A6069600E
:101F3000AE60E8602E616E61AE61EE612846FFF72B
:101F40004BF8002801D0FEF741FC6C6225671B248A
:101F5000012100222046FFF715FA2046FFF706FA76
:101F600006B070BD480100201C000240F0B581B0F1
:101F70001346C26F202A12D1012400290CD0002B55
:101F80000AD001263203846894420CD1CA070AD0D1
:101F90000269002A07D13446204601B0F0BD022470
:101FA000204601B0F0BD02465032074684375380C8
:101FB00000243C601380C1642122C267056F002D9C
:101FC00018D0174AAA62154AEA62134A2A636C6358
:101FD0000268283200902846FFF73EF80146009834
:101FE000002907D0102139602021C16734462046DE
:101FF00001B0F0BD016840220A62EFF310810122B6
:1020000082F310880068826880231343836081F321
:102010001088204601B0F0BD0F24000809250008F3
:10202000C124000870477047FEE70000B0B584B0D7
:1020300024212248012444548462002101620822A0
:102040001F4BFF25C235036041608160C1600461A0
:1020500042618161C561FEF75DFC002801D0FEF799
:10206000B5FB07200390019420030290134801A9B7
:10207000FEF7B0FB002801D0FEF7A8FB022001907C
:102080000E4801A9FEF7A6FB002801D0FEF79EFB33
:1020900003200190094801A9FEF79CFB002801D00C
:1020A000FEF794FB04200190044801A9FEF792FB7F
:1020B000002801D0FEF78AFB04B0B0BDA8000020C4
:1020C0000024014080B50948012181610022084BAC
:1020D0008360C2600261017106490160FEF793FEF0
:1020E000002801D0FEF772FB80BDC046E80000204A
:1020F000E707000000300240B0B582B041480168F7
:1021000001221143016000681040019001980924E8
:102110000221002520462A46FFF734F92046FFF722
:1021200025F90A24204629462A46FFF72BF920469E
:10213000FFF71CF902B0B0BDF0B589B000240894D7
:1021400007940694059404940125A9052D48026876
:102150000A43026002680A40039203996904026814
:102160000A43026002680A4003920399A9040268C4
:102170000A43026000680840039003980920C606DD
:102180002021009130462246FFF795F880210191E9
:1021900030462A46FFF78FF81B480221029122465B
:1021A000FFF789F806950594049504AF3046394643
:1021B000FEF794FF07940694059500980490304626
:1021C0003946FEF78BFF0298069005944020049054
:1021D00030463946FEF782FF0320079006940595A6
:1021E0000198049030463946FEF778FF079406942C
:1021F00005950298049004483946FEF76FFF09B030
:10220000F0BDC046141002400004004810B50B4851
:1022100000210C220A4B01624162E124640218C0D1
:10222000016041608160C260016141610838FFF76F
:1022300015FE002801D0FEF7C9FA10BD8C01002060
:1022400000380140FEE77047704780B5FFF740F85F
:1022500080BD7047B0B5416A0A070CD4CA0714D1D3
:102260008A071CD44A0724D4CA062CD48A0634D43C
:102270004A063CD44CE00122D20303685C689443D4
:10228000426B22435A60CA07EAD001225204036813
:102290005C689443826A22435A608A07E2D501222D
:1022A000120403685C689443C26A22435A604A0776
:1022B000DAD50122920403685C689443026B2243DE
:1022C0005A60CA06D2D50122120303689C6894435F
:1022D000826B22439A608A06CAD5012252030368A0
:1022E0009C689443C26B22439A604A0610D501222F
:1022F0001305026854689C43056C2C4354609D424E
:1023000006D103235B0554689C43436C234353600D
:10231000090607D50121C904026853688B43806C04
:1023200018435060B0BD0000F0B583B004460646C7
:1023300078360025F560FEF7C7FF03462068016880
:10234000090721D502952B48009001256905002237
:1023500020461F4600F066F9002812D0EFF31080E7
:1023600085F3108821680A6880239A430A6080F305
:102370001088032020227C21029D6250357003B01A
:10238000F0BD20683B46029D0068400726D51948ED
:1023900000900127B9050022204600F043F90028EB
:1023A0001CD0EFF3108087F31088092149012268BF
:1023B00013688B43136080F31088EFF3108087F36A
:1023C000108821688A68BA438A6080F310880320E5
:1023D000202280216250357003B0F0BD2020E067DC
:1023E000B060256664212A4628466250357003B0E5
:1023F000F0BDC046FFFFFF0180B5406A0146523183
:1024000000220A8152214252FFF759FB80BDF0B5EC
:1024100081B0406AC16F80228358024652320468FC
:10242000A5682D0612D5212910D100211180EFF3C6
:102430001081012484F3108804682568C026B54300
:10244000256081F310882021C1670468014680312E
:10245000A46864062CD5222B2AD100231381EFF324
:102460001084012282F3108809256D0106683768FF
:10247000AF43376084F31088EFF3108482F3108841
:102480000568AE689643AE6084F31088046E012C34
:102490000AD1EFF3108482F31088026815681026C1
:1024A000B543156084F3108820220A6083660366B2
:1024B0004A68102313434B60FFF701FB01B0F0BDE6
:1024C000B0B50146406A8969202902D1FFF7AAFD0B
:1024D000B0BD522100224252EFF31081012282F35B
:1024E000108803689C688025AC439C6081F3108849
:1024F000EFF3108182F310880068026840231343D1
:10250000036081F31088B0BD80B5406AFFF78BFD92
:1025100080BD0000B0B5044600680168394A0A4031
:10252000A16823690B4365691D431543E1690D43A8
:1025300005600322120343689343E2681A43426032
:10254000A269236A13430B221202856895431D4337
:1025500085602D4800688007000F2CA213580125C4
:10256000EA032E4891420FD1082B46D87B441B79B1
:102570005B009F4404422442194242422300FFF779
:1025800049F800281BD137E0082B36D87B441B794B
:102590005B009F44043225320E3232322400FFF7B2
:1025A00039F800281CD127E0FFF742F8002806D1AF
:1025B00022E0FFF73DF8002812D11DE01046400050
:1025C00061684A08101800F0FDFE0246103A1449EE
:1025D0008A4212D201400007400F08430AE0104629
:1025E00061684A08101800F0EDFE014610390C4AE7
:1025F000914202D22168C86000250020A066E066F2
:102600002846B0BDF369FFFF301002400000000013
:1026100004000000080000000200000000127A0020
:10262000F0FF0000F0B585B01F4615460E46036862
:10263000D9693140891B4A424A410021AA4222D12C
:102640000A9C002C22D00391611C24D1D96931400D
:10265000891B4A424A41AA4231D1D9693140891B7A
:102660004A424A41AA422AD1D9693140891B4A4289
:102670004A41AA4223D1D9693140891B4A424A4181
:10268000AA42E3D01BE0084605B0F0BDFEF71CFEF1
:10269000032005B0F0BD402E049001D0802E14D14F
:1026A000FEF712FEC01BA0420CD804980068016817
:1026B000C0693040801B41424141A942F0D003989B
:1026C00005B0F0BD032005B0F0BD783001900120C9
:1026D0000090C002029006E0C8693040801B414271
:1026E0004141A942EBD1FEF7EFFDC11B0320A142FE
:1026F0003ED8049909680A685207EDD5CA691207DD
:1027000038D4CA69029B1A42E6D0029A0A62EFF3F1
:102710001082012181F3108809235B01049C246845
:1027200025689D43256082F31088EFF3108281F3C2
:102730001088049B1B689C688C439C60049B82F3FC
:1027400010881A6E012A0BD1EFF3108281F31088E2
:1027500019680B681024A3430B60049B82F3108854
:102760002021019CA16000221A669A662270E16015
:1027700005B0F0BD08250D62EFF31081009880F3DD
:10278000108809225201049B1B681C6894431C603A
:1027900081F31088EFF3108180F31088049A126897
:1027A000936883439360049B81F31088196E012919
:1027B0000CD1EFF31081012282F310881A6813689C
:1027C0001024A3431360049B81F310882021019AF5
:1027D00091600021196699661170D56005B0F0BD51
:1027E00080B50248FFF76CF980BDC0468C0100201F
:1027F00070B582B00C46054601AE002030803046F0
:1028000000F008F830784009401C2070A8730120BF
:1028100002B070BDF0B595B011900920C6068024B5
:1028200010940022149230462146FEF744FD012503
:10283000304621462A46FEF73EFD402112913046A1
:10284000FEF72CFD2027304639462A461395FEF721
:1028500032FD30463946149C2246FEF72CFD3046A8
:102860001299FEF71BFD0F90304639462A46FEF7B7
:1028700022FD304639462246FEF71DFD3046129DA8
:102880002946FEF70BFD0E9030463946139C224632
:10289000FEF711FD30463946149AFEF70CFD30461E
:1028A0002946FEF7FBFC0D90304639462246FEF7DE
:1028B00002FD30463946149C2246FEF7FCFC3046A9
:1028C0002946FEF7EBFC0C9030463946139AFEF78A
:1028D000F2FC304639462246FEF7EDFC30462946EA
:1028E000FEF7DCFC0B9030463946139C2246FEF77F
:1028F000E2FC30463946149D2A46FEF7DCFC3046A1
:102900001299FEF7CBFC0A90304639462246FEF774
:10291000D2FC304639462C462A46FEF7CCFC3046DF
:10292000129D2946FEF7BAFC099030463946139AA3
:10293000FEF7C1FC304639462246FEF7BCFC304665
:102940002946FEF7ABFC089030463946139C2246D8
:10295000FEF7B1FC30463946149AFEF7ACFC30461F
:102960002946FEF79BFC0790304639462246FEF783
:10297000A2FC30463946149C2246FEF79CFC3046A9
:102980002946FEF78BFC069030463946139D2A46B1
:10299000FEF791FC304639462246FEF78CFC304665
:1029A0001299FEF77BFC0590304639462C462A46A4
:1029B000FEF781FC30463946149AFEF77CFC30461F
:1029C000129D2946FEF76AFC04903046394622469D
:1029D000FEF771FC30463946149C2246FEF76BFC2C
:1029E00030462946FEF75AFC039030463946139A82
:1029F000FEF761FC304639462246FEF75CFC304665
:102A00002946FEF74BFC029030463946139C22467D
:102A1000FEF751FC30463946149AFEF74CFC30461E
:102A20002946FEF73BFC0190304639462246FEF728
:102A300042FC30463946149C2246FEF73CFC3046A8
:102A40002946FEF72BFC0546304610992246FEF734
:102A500032FC30463946139C2246FEF72CFC0F9878
:102A6000401E41424141C8000E99491E4A424A4116
:102A7000910040180D99491E4A424A4151000818D8
:102A80000C99491E4A424A41801880000B99491E00
:102A90004A424A41510008180A99491E4A424A418D
:102AA000801880000999491E4A424A41510008187D
:102AB0000899491E4A424A41801880000799491ED8
:102AC0004A424A41510008180699491E4A424A4161
:102AD000801880000599491E4A424A415100081851
:102AE0000499491E4A424A41801880000399491EB0
:102AF0004A424A41510008180299491E4A424A4135
:102B0000801880000199491E4A424A415100081824
:102B1000691E4A424A41801811990880204615B022
:102B2000F0BD000070B582B001AC44482080204662
:102B3000FFF770FE424D29882488614088B2C9079A
:102B40002DD1810731D4410735D4010739D4C106CD
:102B50003DD4C10541D4810545D4410549D4010581
:102B60004DD4C10451D4810455D4410459D400B288
:102B700000285DD4FEF7A8FB324E70612C8009203E
:102B8000C0060121FEF78AFB41424141307888426C
:102B900002D0707C401C7074317002B070BD294945
:102BA0000A79521C0A718107CDD526494A79521CEF
:102BB0004A714107C9D523498A79521C8A71010794
:102BC000C5D52049CA79521CCA71C106C1D51D4953
:102BD0000A7A521C0A72C105BDD51A494A7A521C9A
:102BE0004A728105B9D517498A7A521C8A72410501
:102BF000B5D51449CA7A521CCA720105B1D511491A
:102C00000A7B521C0A73C104ADD50E494A7B521C83
:102C10004A738104A9D50B498A7B521C8A734104EB
:102C2000A5D50849CA7B521CCA7300B20028A1D599
:102C30000448017C491C01749CE7C046FFFF00006A
:102C4000180000208000002096B001A80025057023
:102C5000FEF748FB0F950D9510950E9511950C9567
:102C60000B9512200A90042015900520C0041490A2
:102C700013950224129401200F900D9010201090B3
:102C80000E900595049503950AA8FEF701FD00280E
:102C900003D0EFF3108072B6FEE70995089507940C
:102CA0000720069006A801242146FEF70DFC002807
:102CB00003D0EFF3108072B6FEE70495029402A8E9
:102CC000FEF77CFB002803D0EFF3108072B6FEE71E
:102CD000FFF732FAFFF710FAFFF7A8F9FFF796FAB5
:102CE000FFF7F0F91E4C01A92046FFF781FD1D4EAC
:102CF0001D4D1E4FFEF7E8FA3168401A642806D3CE
:102D0000FEF7E2FA306002212846FEF7CCFAFEF721
:102D1000DBFA3968401A052804D3FEF7D5FA386083
:102D2000FFF700FFFEF7D0FA7968401A022804D3B3
:102D3000FEF7CAFA786000F001FBFEF7C5FAB96841
:102D4000401A0A28D6D300F0F5FA0146204600F0D2
:102D500001FB0028CED1FEF7B7FAB860CAE7C0463B
:102D6000840000201402002000040048000000201D
:102D7000F0B59BB00148002527E0C0469800002030
:102D8000104600F025FC149900F022FC159900F083
:102D90001FFC169900F01CFC189900F019FC214644
:102DA00000F016FC394600F013FC1F21490600F024
:102DB0007FFC13998862FDF7E0FA039908810846C1
:102DC0002C35881CB02D00D1B1E20D4E7719391D7C
:102DD0000390048824223846FDF781FA2046FDF747
:102DE0001EFB0E90786202957659139779683046EB
:102DF0000D9100F0E2FB07460028189603D101E090
:102E0000180200200D9E139881683046149100F03E
:102E1000D4FB05460028344600D1149C1398C168A1
:102E20002046199100F0C9FB1A90002D00D114968C
:102E3000002F01D118980D900D9D2846149900F08F
:102E4000BCFB01900028139F199E00D1149D1A9875
:102E50000028314600D1214604952846159100F0FE
:102E6000ACFB0B901A98002800D134463D692046EF
:102E7000294600F0A2FB06460B9800280498129001
:102E800001D115981290002E294600D121461298A2
:102E9000169100F092FB0A90002E00D12C467D691D
:102EA0002046294600F089FB06460A980028129819
:102EB000119001D116981190002E294600D121467B
:102EC0001198189100F079FB0990002E00D12C4642
:102ED000BD692046294600F070FB06460998002887
:102EE0001198109001D118981090002E294600D109
:102EF00021461098179100F060FB0890002E00D139
:102F00002C46FD692046294600F057FB06460898E6
:102F1000002810980F9001D117980F90002E294685
:102F200000D121460F981A9100F047FB0790002E20
:102F300000D12C463D6A2046294600F03EFB06465D
:102F4000079800280F9F00D11A9F002E294600D114
:102F500021463846199100F030FB0690002E00D132
:102F60002C4620460E9D294600F027FB0699002995
:102F70003946159E00D11999002800D125460591A2
:102F80000846294600F019FB0C900B98002800D148
:102F9000049E0198002801D10D981490149C20469D
:102FA000314600F00AFB0E90002800D134461596F9
:102FB0000A980028169900D112992046169100F01F
:102FC000FCFA049000280D9401D116980D901297E8
:102FD00009980028189900D111990D9F3846189129
:102FE00000F0EBFA0990002800D1189F08980028FB
:102FF00001D1109817903846179900F0DEFA10901A
:103000000028119701D117981190079800281A9954
:1030100000D10F99119E30461A9100F0CEFA0F9010
:10302000002800D11A9E06980028199900D11299FB
:103030003046199100F0C1FA08900028324600D1BC
:10304000199A0C980028294600D1059901960B92EF
:1030500010460A9100F0B1FA1290049800281699CF
:1030600000D121460E980028159E00D1149E3046AE
:10307000169100F0A2FA07900028344600D1169C61
:1030800015960E9509980028189900D10D9920469B
:10309000189100F092FA06900028264600D1189E5A
:1030A0001098002800D117973046179F394600F036
:1030B00084FA0D900028109600D110970F980028E0
:1030C0001A9900D11199109D28461A9100F075FAAD
:1030D0000F90002800D11A9D08980028199900D156
:1030E00001992846199100F068FA089000282A46AC
:1030F00000D1199A129800280A9900D10B991492BC
:103100001046099100F059FA119006980028189974
:1031100000D121460798002801D115981690169CD9
:103120002046189100F049FA0790002800D1189C19
:1031300015950D98002800D1374620461797394637
:1031400000F03BFA07460028254600D1179D0F984E
:1031500000281A9900D1109928461A9100F02DFAEA
:103160000F9000282E4600D11A9E08980028199921
:1031700000D115993046199100F01FFA0D900028E2
:10318000324600D1199A11980028099900D1149952
:1031900015921046089100F010FA1090002F179F1A
:1031A00000D1274607980028189C169900D10C4694
:1031B0002046394600F001FA06900028189400D104
:1031C0003C4617970F9800281A9900D129462046A7
:1031D0001A9100F0F2F907460028254600D11A9D01
:1031E0000D980028199900D131462846199100F010
:1031F000E4F9064600282A4600D1199A10980028BA
:10320000089900D1159916921046079100F0D5F94A
:103210000F90002F1A9900D1214606980028179F79
:1032200000D1189F38461A9100F0C7F904460028CB
:10323000179700D11A9F002E199900D129463846B8
:103240000E4600F0BAF905460028384600D130464F
:103250000F990029079900D116991890069100F04E
:10326000ACF90D90002D314600D13946002C01D12A
:1032700017981A901A9C2046199100F09EF907465B
:10328000002800D1199C0D990029069E00D1189E96
:1032900017942046314600F090F905460028344640
:1032A00000D1179C002F19981A9900D1084607469B
:1032B000214600F082F9002800D12746002D05990B
:1032C0000B9A179C13D00D980028029D14D00F98CC
:1032D000002816D01098002818D0119800281AD06D
:1032E000129800281CD00C9800281ED048E53446BF
:1032F0000D980028029DEAD1069818900F98002892
:10330000E8D10798169010980028E6D108981590F3
:1033100011980028E4D10998149012980028E2D15D
:103320000A9A0C98002800D02AE50E9928E51BB0CF
:10333000F0BD0000064808307047C04680B503481D
:1033400003490422FDF7D8FB80BDC046A800002039
:1033500098000020F0B581B0034608880090164C14
:10336000522060704C2020704E888F88CD88A01C21
:1033700014221946FCF772FF01200003411B0A0AC0
:1033800062772177390AE176A776310A6176267667
:103390000099401A010AE175A07508481E222146CD
:1033A000FDF704FC0A21E177A07705482022214699
:1033B000FEF7DCFD01B0F0BDC8020020E8000020EF
:1033C0008C01002043088B421AD3002203098B4250
:1033D00079D3030A8B425ED3030B8B4242D3030C97
:1033E0008B4227D30902FF2212BA030C8B4202D36D
:1033F0001212090203D0030B8B4233D31AE0D3E03D
:10340000411A8041401C704703460B4371D4430866
:103410008B42F5D3002203098B4254D3030A8B421B
:1034200039D3030B8B421DD3030C8B4202D394463A
:103430006EE0090AC30B8B4201D3CB03C01A524181
:10344000830B8B4201D38B03C01A5241430B8B4237
:1034500001D34B03C01A5241030B8B4201D30B0320
:10346000C01A5241C30A8B4201D3CB02C01A524147
:10347000830A8B4201D38B02C01A5241430A8B420A
:1034800001D34B02C01A5241030A8B4201D30B02F3
:10349000C01A5241CDD2C3098B4201D3CB01C01A0D
:1034A000524183098B4201D38B01C01A5241430917
:1034B0008B4201D34B01C01A524103098B4201D305
:1034C0000B01C01A5241C3088B4201D3CB00C01A72
:1034D000524183088B4201D38B00C01A52414308EA
:1034E0008B4201D34B00C01A5241411A5241100085
:1034F0007047CA0F00D04942031000D340425340E6
:1035000000229C4603098B422DD3030A8B4212D31F
:103510008901FC2212BA030A8B420CD38901921151
:103520008B4208D3890192118B4204D3890137D091
:10353000921100E08909C3098B4201D3CB01C01A63
:10354000524183098B4201D38B01C01A5241430976
:103550008B4201D34B01C01A524103098B4201D364
:103560000B01C01A5241C3088B4201D3CB00C01AD1
:10357000524183088B4201D38B00C01A5241D9D2E9
:1035800043088B4201D34B00C01A5241411A00D26A
:1035900001465241104663465B1000D340427047DB
:1035A00063465B1000D3404201B50021004201D0C8
:1035B000C9430846C046C04602BD10B500F04EF8EB
:1035C000EFF300804000800F012800D0002010BDE4
:1035D00070B50125ED0704004C4020D4441A01D2F7
:1035E000001B0919C60D4B00F2B2FF2A29D01B0E91
:1035F0002CD000020C0228432C43D31ADC400519BE
:1036000010D2280A02D3401C6D0611D0761EF60592
:103610008019FF2A00DA70BDC00DC00570BD694079
:1036200000F0A4F801200543C541521C761CE8E7D0
:1036300064089C40C90161408900E7D10124A0438E
:10364000E4E71B0E440200D0034870BD002AFCD101
:10365000C00FC00770BD00BF0000C07F0123DB05A5
:1036600002000A430DD4DA4203D49A4207D48842B6
:103670007047D84214D4D94212D48842704780424D
:103680007047DA4203D59A42F9D5814270475B0010
:103690004200DA4204D24A00DA4201D28142704743
:1036A00010B5024AFCF72AFF10BD00BF0900130441
:1036B00070B5420064414B005C41120E39D01B0EC4
:1036C00038D0FF2A3CD0FF2B3AD0D2187F3A4002A4
:1036D0004902400A490A4518ED0106004E43000A16
:1036E000090A48430104731A4019190C4318990F29
:1036F00004D05B08012149075B1A521CD80904D386
:10370000401CF50301D19D0607D0FF2A08D2D5053C
:1037100006D0E4072043401970BD0125A843F4E713
:10372000002A01DCE00770BD2402FF202043C00511
:1037300070BD1B0EFF2A03D0FF2B01D0E00770BD28
:10374000FF2636064500B54206D84D00B54203D8DF
:10375000D218FF2A00D0E7E7004870BD0000C07F04
:1037600070B50125ED0704004C4022D4441A02D262
:103770006C40001B0919C60D4B00F2B2FF2A4BD05A
:103780001B0E50D000020C02A8432C43D31ADC407D
:10379000051B05D5AD0019D36D08761E521E37D016
:1037A000F605280A01D2801970BD70416D0603D05C
:1037B00070BD6940FFF712FF9C400902614049005B
:1037C00001D0401E70BD0124A04370BD6D081DD006
:1037D00001202B0C01D12D0410302B0E01D12D0214
:1037E00008302B0F01D12D01001DAB0F01D1AD0011
:1037F000801CEB0F01D16D00401C361A121A6D00AF
:10380000680AF5054019012A02DB70BD002070BD71
:10381000C036300AC00770BD1B0E440201D1FF2B19
:1038200000D1024870BD002AF0D070BD0000C07FFA
:103830000000000000000000010203040607080960
:103840000000000001020304020304050607080942
:103850000A0B0C0D0E0F10100102030405060708D9
:10386000090A0B0C0D0E0F1088380008000000200C
:10387000200000000C010008A838000820000020EB
:10388000D00800002C010008020000000100000028
:1038900003000000010000000400000000127A0094
:0838A000FFFF00000000000022
:04000005080000B13E
:00000001FF
