:020000040800F2
:10000000F0FC0020BD020008CDB300080177000815
:10001000A5B30008B1140008F1F1000800000000C9
:1000200000000000000000000000000081C4000883
:100030006D16000800000000E1C20008A5C4000819
:10004000D7020008D9C20008D7020008D70200086A
:10005000D7020008D7020008D7020008D70200081C
:10006000D7020008D7020008D7020008D70200080C
:10007000D7020008D7020008D7020008D7020008FC
:10008000D702000831160008D7020008D70200087E
:10009000D9140008D7020008D70200087916000812
:1000A000D7020008D7020008D7020008D7020008CC
:1000B000D7020008D7020008D7020008D7020008BC
:1000C000D7020008D7020008D702000845C300087D
:1000D000D7020008D7020008D7020008F9C90008B3
:1000E00071160008D7020008D7020008D7020008DE
:1000F000D7020008B9C50008D7020008D7020008D7
:10010000D7020008D7020008D7020008D70200086B
:10011000D7020008D7020008D7020008D70200085B
:1001200049160008D7020008D70200085516000833
:10013000D7020008D7020008D7020008D70200083B
:10014000D7020008D7020008D7020008CDC2000875
:10015000D7020008D702000861160008D70200087D
:10016000D7020008D7020008D7020008D70200080B
:10017000D7020008D702000825160008000000007A
:10018000D7020008D702000800F002F800F086F855
:1001900014A696E8000CB244B344DA4501D100F04D
:1001A0007DF8BAE80F000FA696E83000A5EB04052D
:1001B00004EB0607AAEB0704A7F101074FEA1515A0
:1001C0004FEA3414A4F10104AC4201D300F066F804
:1001D00013F0010F18BFFB1A43F0010300F001F800
:1001E000DBE7184794500100B45001000A444FF077
:1001F000000C10F8013B13F0070408BF10F8014B86
:100200001D1108BF10F8015B641E05D010F8016BCA
:10021000641E01F8016BF9D113F0080F1EBF10F82E
:10022000014BAD1C0C1B09D16D1E58BF01F801CB51
:10023000FAD505E014F8016B01F8016B6D1EF9D5D4
:100240009142D6D37047000070470000002300247D
:1002500000250026103A28BF78C1FBD8520728BFD6
:1002600030C148BF0B607047642900F05381782982
:1002700000F0B781732900F06485002070471FB536
:1002800013F0D6FD00F0EAFF04000020002113F077
:10029000B9FD401C60601FBD10B510BD00F0B0FF7F
:1002A0001146FFF7ECFF10F0FBFA00F0DBFF03B4A0
:1002B000FFF7F2FF03BC0EF09DFF000009488047E6
:1002C00009480047FEE7FEE7FEE7FEE7FEE7FEE738
:1002D000FEE7FEE7FEE7FEE704480549054A064B50
:1002E00070470000A5C5000889010008F0E800205B
:1002F000F0FC0020F0EC0020F0EC0020704753EA06
:10030000020C00F069802DE9F04B4FF00006002B45
:100310001FBFB3FA83F503FA05F424FA05F65E402D
:1003200012BF1643B2FA82F502FA05F4C5F12005B0
:100330001EBF22FA05FC44EA0C04203556EA044CA0
:100340004FEA144418BF641C4FF000084FF0000936
:10035000904271EB030C39D3002919BFB1FA81F730
:1003600001FA07F6B0FA80F700FA07F6C7F120079E
:100370001EBF20FA07FC46EA0C062037B6FBF4FC49
:10038000A7EB0507103F07F01F0BCBF120062CFA57
:1003900006F60CFA0BFB44BFB3460026202FA4BF81
:1003A0005E464FF0000B5BEA060C08BF4FF0010BF6
:1003B00019EB0B0948EB0608ABFB027C06FB02CCF1
:1003C0000BFB03CCC01B71EB0C01C1E70B460246D3
:1003D00041464846BDE8F08B13B5084318BF4FF0BF
:1003E000FF300146AFF30080BDE81C4070470000BD
:1003F0000FB4044910B503AA029800F0A7FC10BC82
:100400005DF814FB809300200FB41CB5084B06AABE
:100410007B4469460090059800F061FC044600208A
:10042000694600F06FFC20461CBC5DF814FB000020
:10043000F10800000FB41CB50C0007AA009007D00B
:100440004142A14202D32044401E01E04FF0FF3060
:10045000074B7B4469460190069800F040FC002160
:10046000002C01D0009A11701CBC5DF814FB000038
:10047000B908000070B5044685690068C10601D559
:10048000302600E02026C00707D070BDD4E9012146
:1004900030469047206A401C20626D1EF6D570BD24
:1004A00070B5044685690078C00707D170BDD4E9EE
:1004B000012120209047206A401C20626D1EF6D545
:1004C00070BD70B50C460546012A05D02878800617
:1004D00000D5EA69002302E0012305E05B1C93429A
:1004E00002D2E05C0028F9D1A869E618C01AA86118
:1004F000286A184428622846FFF7BCFF04E0D5E9C3
:10050000012114F8010B9047B442F8D32846FFF7B5
:10051000C7FF70BD2DE9F04106460024106875291B
:10052000314616A510D0AFF30080002802DA404211
:1005300013A507E031688A0701D512A502E0490733
:1005400004D511A5012401E0AFF3008000210A22A7
:1005500006F1240709E0B0FBF2FCB0FBF2F302FB6A
:100560001C00303078541846491C0028F3D123462B
:100570002A463046BDE8F04100F053BB00000000C1
:100580002D0000002B00000020000000F0B40D46FC
:100590000188090502D5214C7C4402E01F4C7C44B3
:1005A0000E34002100F1240608E002F00F071209C2
:1005B000E75D42EA03721B097754491C52EA0307BC
:1005C000F3D102780023120704D5702D06D009B1AB
:1005D000022311342246F0BC00F023BB0123103467
:1005E000F8E770B504460D4621461068AFF3008069
:1005F000024629462046BDE870400023C6E7D21DCA
:1006000022F00703D3E90023C0E70368126843F030
:10061000200303600823C3610023B7E7AE3801005D
:100620002DE9F05F894604464FF0000ADFF874B107
:10063000FB44C0F820A02046E1688847002874D019
:10064000252806D0D4E901219047206A401C206269
:10065000F1E700265F462046E168884720280546E6
:1006600007DB312D05D2781910F8200C08B10643AC
:10067000F1E7B00701D526F00406C4F81CA0002756
:10068000C4F818A02A2D09D0284613F0B4FB38B3BB
:1006900004EB8708303DC8F8185019E059F8041BDE
:1006A000204604EB87029161E1688847012F0546E7
:1006B00018D1E069002820DA26F020061DE0D8F8DD
:1006C000180000EB800005EB40003038C8F8180037
:1006D0002046E1688847054613F08DFB0028EED1DF
:1006E000012F0AD02E2D08D12046E16888477F1CB3
:1006F0000546022F46F02006C4DBA069002803DA75
:10070000404246F00106A061F00701D026F0100635
:100710006C2D0BD0682D09D04C2D39D06A2D35D0D9
:10072000742D35D07A2D33D016E038E0E1682F46AD
:1007300020468847B842054609D16C2F26D04FF491
:100740008060E168064320468847054604E06C2F38
:100750001AD04FF4807006430DB3A5F1410019285B
:1007600002D8203546F400664A46294620462660CF
:100770004E46FFF779FD80B101280BD0F61D26F01B
:10078000070000F1080956E74020E4E78020D8E799
:100790000020D6E706F104094DE7284652E7206A13
:1007A000BDE8F09F3E3801000FB400B58DB010A930
:1007B000099000910B904FF0FF300A9000200C90B0
:1007C000064878440690064878446A4607900F9990
:1007D00009A800F0E1FA0DB05DF814FBF305000084
:1007E0000B0600002DE9FF5F1D464FF0FF3B9146D1
:1007F0004FF000085F46D5E90146A96901987F1CC2
:100800008847296A824688470028F6D1BAF1FF3F17
:100810000CD0002E24F4C06419DD600614D5BAF1A2
:100820002B0F09D0BAF12D0F0ED103E0584604B0BA
:10083000BDE8F09F44F48064A96901987F1C884753
:10084000761E8246002E02DDBAF1300F03D0B9F1D8
:10085000000F26D032E0A969761E01987F1C44F46F
:1008600000748847002E824605DDBAF1780F06D065
:10087000BAF1580F03D0B9F1000F10D01EE0B9F152
:10088000000F02D0B9F1100F18D1A969761E019896
:100890007F1C24F4007488478246102002E0082060
:1008A00000E00A20814609E0A96908FB0908761ED4
:1008B00001987F1C44F4007488478246002E05DDB1
:1008C0004946504600F054FA0028EDDAE9690198EB
:1008D0008847A00502D46FF00100A8E7E00725D102
:1008E000600613D5600502D5C8F1000000E040465F
:1008F00029680A1D2A600968220501D5087015E0DB
:10090000220701D5088011E008600FE02868011D6A
:1009100029600068210502D580F8008006E02107E3
:1009200002D5A0F8008001E0C0F8008038467EE7DC
:1009300001490FF0D7BE00008093002010B5044697
:1009400003E00FF0CFFE401C09D014F8010B05495D
:100950000028F6D1BDE810400A200FF0C3BE4FF0CA
:10096000FF3010BD8093002040EA010310B59B07C3
:100970000FD1042A0DD310C808C9121F9C42F8D009
:1009800020BA19BA884201D9012010BD4FF0FF30BA
:1009900010BD1AB1D30703D0521C07E0002010BDD0
:1009A00010F8013B11F8014B1B1B07D110F8013B5C
:1009B00011F8014B1B1B01D1921EF1D1184610BD3D
:1009C00010B5431C02E010F8011B71B18107FAD188
:1009D0004FF0013202C88C1A8C4314EAC211F9D0CC
:1009E000C01A0A0603D0C01E10BDC01A10BD0A04EA
:1009F00001D0801E10BD0902FCD0401E10BD421E59
:100A000012F8013F002BFBD111F8013B002B02F83B
:100A1000013BF9D17047032A40F2308010F0030CFB
:100A200000F0158011F8013BBCF1020F624498BF41
:100A300011F801CB00F8013B38BF11F8013BA2F1DE
:100A4000040298BF00F801CB38BF00F8013B11F059
:100A5000030300F06780083AC0F0088051F8043BB7
:100A6000083A51F804CBA0E80810F5E7121D5CBF66
:100A700051F8043B40F8043BAFF30080D20724BF99
:100A800011F8013B11F801CB48BF11F8012B24BF2D
:100A900000F8013B00F801CB48BF00F8012B70477C
:100AA000431A28BF9A427FF6B6AF10441144032A76
:100AB00040F2268010F0030F1EBF11F8013D521EB8
:100AC00000F8013D10F0030F7FF4F6AF11F00303BF
:100AD00000F0A581083AC0F00B8051F8043D083AB7
:100AE00051F804CD40F8043D40F804CDFFF7F3BFC2
:100AF000121D5CBF51F8043D40F8043DAFF3008087
:100B0000D20724BF11F8013D11F801CD48BF11F8FB
:100B1000012C24BF00F8013D00F801CD48BF00F8CA
:100B2000012C704710B5203AC0F00B80B1E8185086
:100B3000A0E81850B1E81850A0E81850203ABFF4C7
:100B4000F5AF5FEA027C24BFB1E81850A0E8185066
:100B500044BF18C918C0BDE810405FEA827C24BFBA
:100B600051F8043B40F8043B08BF7047D20728BF48
:100B700031F8023B48BF11F8012B28BF20F8023B97
:100B800048BF00F8012B70474FF000020429C0F065
:100B9000128010F0030C00F01B80CCF1040CBCF1AF
:100BA000020F18BF00F8012BA8BF20F8022BA1EB01
:100BB0000C0100F00DB85FEAC17C24BF00F8012BE6
:100BC00000F8012B48BF00F8012B70474FF00002DE
:100BD00000B5134694469646203922BFA0E80C5033
:100BE000A0E80C50B1F12001BFF4F7AF090728BF0E
:100BF000A0E80C5048BF0CC05DF804EB890028BF8A
:100C000040F8042B08BF704748BF20F8022B11F0B2
:100C1000804F18BF00F8012B70477047704770472E
:100C200070472DE9F0470D4699469246044600F17B
:100C300024080168880604D5E06921F010012160CC
:100C400000E00120A84201DD471B00E00027A16968
:100C50007A1902EB0900081AA0612078C00602D4B4
:100C60002046FFF707FC002608E0D4E901211AF826
:100C700006009047206A401C761C20624E45F4DB3B
:100C80002078C0060AD52046FFF7F4FB06E0D4E939
:100C9000012130209047206A401C2062381EA7F1B5
:100CA0000107F4DC07E0D4E9012118F805009047BA
:100CB000206A401C2062281EA5F10105F3DC2046B5
:100CC000FFF7EEFB2078000602D50220BDE8F08792
:100CD0000120FBE701694A1C02610878704700B5F2
:100CE0008FB0CDE901310021059105497944CDE965
:100CF000031011466846FFF793FC0FB000BD0000DB
:100D0000E5FFFFFF0A6802F8010B0A607047D1E9AE
:100D100000239A4202D2531C0B601070704710B52A
:100D2000436913B1AFF3008001E0FFF7CAFB012074
:100D300010BD127800F124010A7000224A700122CD
:100D4000EDE711684FF0FF32E9E70000074B70B59F
:100D50000D467B44FFF7C3FF0446284600F04CFADB
:100D600010B14FF0FF3070BD204670BD8FF900000C
:100D70003A2800D2303820F02002412A01D3A2F1D3
:100D80003700884201D34FF0FF30704702681144AA
:100D90001378016018467047D16005497944516164
:100DA00004497944116200211161114600F06AB8CA
:100DB000EDFFFFFFCD000000426842B1016811F86D
:100DC000013B23B1521EC0E90012184670470121B1
:100DD000C160881E704742685AB1C368016843B950
:100DE00083688B4205D0491E521CC0E900120020C6
:100DF00070474FF0FF307047431A28BF9A427FF682
:100E000091AE1044114410F0030F1EBF11F8013DC4
:100E1000521E00F8013D10F0030F7FF4F6AF103AB8
:100E2000C0F00A8010B531E9185020E91850103A86
:100E3000BFF4F9AFBDE81040530724BF31E90810F3
:100E400020E9081044BF51F8043D40F8043D12F079
:100E5000030F08BF7047D20728BF31F8023D48BFD3
:100E600011F8012C28BF20F8023D48BF00F8012CE2
:100E7000704710B5044600F0E9F90068005D00F025
:100E8000010010BD2DE9F34F4FF0000A0C46564605
:100E90008DB001200C9001F10C000B9062690B9851
:100EA00001219047051E2DD0252D2CD0216A884781
:100EB000C0B162690B9801219047216A88470028D8
:100EC000F7D16269411E0B98904700E0761CA1693A
:100ED0000D988847216A88470028F7D1E1690D9865
:100EE0008847DBE7A1690D988847A842074601D1EA
:100EF000761CD3E7E1690D9888477F1C02D1BAF1CF
:100F0000000F6FD06BE162690B9800273D463946B0
:100F100090472A2804D162690B9801219047012546
:100F2000DFF8D08262690B9801219047A0F130016F
:100F30000A290AD24745E5DC07EB870100EB4107A8
:100F4000303FDFD445F01005ECE7E90601D46FF03F
:100F500000476C280AD04C2814D0682815D06A287D
:100F60000DD074281CD07A281AD01DE062690B9825
:100F7000012190476C2802D045F0040514E045F0AB
:100F800002050DE045F020050AE062690B98012199
:100F90009047682802D045F0080505E045F4006553
:100FA00062690B9801219047C4E9015765283DD03B
:100FB00019DC58287AD00CDC452837D004DC2528E9
:100FC00026D041289ED131E046282FD0472899D1FC
:100FD0002CE05B2877D0612828D063287CD0642857
:100FE00023D15AE0F6E06F2848D008DC66281DD0EF
:100FF00067281BD0692821D06E2816D127E07028D9
:1010000045D0732868D0752847D078280DD14DE099
:10101000A1690D988847252805463FF469AFE16925
:101020000D9888476D1C3FF46AAFD8E00D992346B0
:101030006A466FF00100AFF30080C5E045F0400064
:1010400023464FF000026060A80736D43EE0E80770
:101050007FF447AF2068011D21600068290501D594
:1010600006701BE7290701D5068017E7A90703D5F6
:10107000F117C0E9006111E706600FE745F0400095
:1010800023464FF008026060A80716D41EE040F621
:101090000E0125EA0100606016E045F0400023469D
:1010A0004FF00A026060A80707D40FE045F0400047
:1010B0006060A80708D5234610220D996FF0010043
:1010C000AFF3008080E007E0102223460D996FF017
:1010D0000100FFF787FB77E04FF0000963284F46D8
:1010E000C8464B46CB4602D05B2806D038E0E8061F
:1010F00001D40120A060012732E06269D4F80CB06D
:101100000B98012190475E2807D14FF0010949460D
:101110006269D4F80CB00B989047216939B9002165
:101120000A4603AB43F82120491C0829FADBD8B34F
:10113000216949B308F1010862690B9801219047C0
:101140005D28F4D1B9F1000F09D0002003A951F8AE
:101150002020D24341F82020401C0828F7DB03ABB5
:101160002069002820794FEA40701ED05B46224655
:10117000CDF80080CDE901970D9900286FF00100AE
:1011800020DAAFF300801FE0C11703AA00EBD161A2
:101190004B1121F01F0102EB8302411A1368012059
:1011A000884003431360C7E719E00D9922460028E1
:1011B0006FF00100009702DAAFF3008004E0AFF3B4
:1011C000008001E0AFF3008000280ADA401C06D15D
:1011D0000C9820B14FF0FF300FB0BDE8F08F5046B3
:1011E000FAE7E90701D10AF1010A064400200C9050
:1011F00054E60000CCCCCC0C007B00F080007047A3
:10120000754600F039F8AE4605006946534620F0B1
:101210000700854618B020B5FFF75EF8BDE820400E
:101220004FF000064FF000074FF000084FF0000BA2
:10123000AC46ACE8C009ACE8C009ACE8C009ACE811
:10124000C00921F007018D467047000010B500F07D
:1012500005F8001D10BD00BFAD2B01000048704710
:101260005052002010B50446AFF300802046BDE880
:101270001040FFF71CB800000048704730520020B3
:1012800030B44FF0013C50F8042B51F8043BCCFA39
:1012900052F4D51A20D1FCB950F8042B51F8043B74
:1012A000CCFA52F4D51A17D1B4B950F8042B51F82E
:1012B000043BCCFA52F4D51A0ED16CB950F8042B79
:1012C00051F8043BCCFA52F4D51A05D1002CDAD0EF
:1012D00030BC4FF00000704729BAB1FA81F111F02B
:1012E0001801D1F120008440F2D1CA40CB4012F065
:1012F000FF0213F0FF0330BCD01A704770B545F2FF
:101300005045C2F20005012303286B7038D84AF219
:101310004404C2F2000494F84130202B34D11DA3C0
:1013200053F820000B46A8600020C4F202004FF4DE
:10133000807116461A4602F051FDA868AE708168A9
:10134000027B6160A2F10901B1FA81F14909827B56
:101350000903A160A2F14501B1FA81F149098902AD
:101360004F2A08BF4FF4C061407B21610238B0FAB8
:1013700080F040094003E060204605F065FF034629
:1013800000211846697070BD02230021184669705B
:1013900070BD00BFB001002004020020E801002061
:1013A000CC01002070B545F25045C2F200056878C6
:1013B00000B170BD287838B34AF24400C2F2000090
:1013C00090F841002028F4D1A8680028F1D0A9782D
:1013D000B9B10369002BECD04AF23024C2F2000408
:1013E00005F10C00EA1C21469847EA784AF24400CD
:1013F000C2F2000021464FF47A7306F0B5F80028D7
:10140000D7D10020287070BD02F0EEFC6968401A48
:101410006528CED340F22526C2F200063078002897
:10142000C7D10020A882C5E903004AF24400C2F2F5
:10143000000090F841002028BBD1A8680028B8D04F
:10144000A978C1B10369002BB3D04AF23024C2F2AB
:10145000000405F10C00EA1C21469847EA784AF29C
:101460004400C2F2000021464FF47A7306F07CF883
:10147000002818BF70BD0120307070BDB0B545F2B6
:101480005044C2F2000401216170026843680025E3
:10149000C4E9032300892170A08240F22520C2F212
:1014A0000000057002F0A0FC60606570B0BD000037
:1014B00045F2DA00C0F6010002A1FEF799FF00BF75
:1014C000FEE700BF4275734661756C745F48616EDC
:1014D000646C65720000000049F28070C2F2000086
:1014E00001F0E4B8202805D180B5084608F08EFC4C
:1014F000BDE88040002070470020704710B549F2D9
:101500005C44C2F2000448F68031C2F20001204679
:1015100000220BF03DFC48F28031C2F2000120466F
:101520000BF028FC002010BDB0B5044608F038FCD4
:1015300049F25C45C2F20005284621460BF01AFC30
:1015400028460BF0F1FB0020B0BD000000207047E2
:1015500049F25C42C2F20002D2F8BC22D2F8143244
:10156000002B1CBF0120704710B549F25C44C2F249
:1015700000040A46014620460BF00AFC2046BDE85E
:1015800010400BF089BC0000806B816B496D022913
:101590001CBF012180F8251001F0D0BA10B5846B72
:1015A000A36AA06B01680A6863B1A36ADB0717D15D
:1015B00012F4002214D0C968E26A01EBC2010022D1
:1015C00016E000BF100319D40868000318D4E06ABD
:1015D000D4E90C2303EB80000861A26210E000BF95
:1015E0000A6812030CD40969E26A01EBC201012204
:1015F00001F0E6FCA06A0138A06201E0606BC860FF
:10160000A06A216B884218BF10BD2068C16841F0F4
:101610000101C1600068800744BF012084F82500F3
:1016200010BD000049F2A870C2F2000001F08ABAB1
:1016300080B549F60810C2F2000001F08FFFBDE846
:10164000804011F0C9B8000049F64800C2F200001D
:1016500001F084BF49F6A800C2F2000001F07EBF8D
:1016600049F2E870C2F2000001F078BF7047000054
:101670004FF4805002F0C8BA802002F0C5BA0000D2
:1016800045F2A400C0F60100FFF758F972B600BF9A
:10169000FEE70000F0B581B04AF2B027044643F6F9
:1016A0000C46C2F200070020C4F20206F86102F004
:1016B0009BFB3168C9031BD43068C0071CBF0120E5
:1016C0003060306810F0F20F30D03068C00631D48E
:1016D0003068800637D4306840063DD43068000654
:1016E00043D43068800749D4012001B0F0BD00BF69
:1016F000C4B10546601C10D13068C003DCD5306829
:10170000C00344BF30685FEAC030D5D53068C0033D
:10171000F2D4D1E73068C003CED502F065FB401BA0
:10172000A042F7D9032001B0F0BD00BF002001B0F6
:10173000F0BD00BFF86940F01000F8611020306083
:1017400030688006C7D5F86940F00800F8612020AD
:10175000306030684006C1D5F86940F00400F86197
:101760004020306030680006BBD5F86940F00200C8
:10177000F8618020306030688007B5D5F86940F0A6
:101780002000F86102203060012001B0F0BD0000AF
:101790000246002840F60040C4F202004FF020014B
:1017A00018BF012202F01ABB002808BF70472DE9BC
:1017B000F04782B047F6B4480546C2F2000840F64A
:1017C000004640462946A822C4F20206FFF7AAF9BD
:1017D00095F8A6004FF0070A022808BF4FF0270A25
:1017E000012830464FF4805108BF4FF00F0A02F035
:1017F000E7FA002842D145F2F027C2F2000747F28B
:101800002704384620F8314F00F12101022200F070
:101810009DFC30464FF4805102F0D2FA70BB38463E
:1018200020F8314F00F12101022200F08FFC3046F8
:101830004FF4805102F0C4FA00BB47F22704384647
:1018400020F8314F00F12101022200F07FFC3046E8
:101850004FF4805102F0B4FA80B9384620F8314F85
:1018600000F121010222022400F070FC30464FF406
:10187000805102F0A5FA002800F0FC800020FFF75C
:1018800087FF95F89C0000287AD0012840F0EA8074
:1018900095F8A40045F2F0290238C2F2000909F8CF
:1018A000320F23204E4606F8010D09F1200730467D
:1018B0003946022200F04AFC95F8A440D5F8A01061
:1018C0003020307048462246FFF7A5F8621C3046AB
:1018D000394600F03BFC95F8A440D5F8A0102A202A
:1018E000307048462246FFF796F8621C304639466B
:1018F00000F02CFC40F23D40308030463946022258
:1019000000F024FC4FF49E703080304639460222AD
:1019100000F01CFC41F6247030803046394602222B
:1019200000F014FC95F8A5002521317089F800001D
:1019300030463946022200F009FC2620307030463D
:101940003946022289F800A000F000FC4FF46260E2
:10195000308030463946022200F0F8FBE1208DF855
:1019600001000DF101006946012200F0EFFBE220C9
:101970008DF803000DF103000DF102016CE000BFD2
:1019800045F2F02695F8A440C2F200062A20D5F8C8
:10199000A01006F8310F701C2246FFF73CF8621CBD
:1019A00006F121043046214600F0D0FB4FF491703F
:1019B000308030462146022200F0C8FB95F8A50091
:1019C00025213170707030462146022200F0BEFBA6
:1019D00042F23100308030462146022200F0B6FB50
:1019E00095F8A400232102383170707030462146EA
:1019F000022200F0ABFB40F23D40308030462146F1
:101A0000022200F0A3FB4FF49E7030803046214646
:101A1000022200F09BFB2620307030462146022235
:101A200086F801A000F092FB4FF4726030803046DF
:101A30002146022200F08AFBE1208DF805000DF11D
:101A4000050001A9012200F081FBE2208DF80700CA
:101A50000DF107000DF10601012200F077FB0120D6
:101A6000FFF796FE012088F8000002B0BDE8F047BD
:101A7000704700BF47F2270027F8310F07F1210117
:101A80003846022200F062FB2C7002B0BDE8F0473D
:101A9000704700002DE9F0412DED028B82B045F238
:101AA000F024C2F2000447F22700254625F8310F42
:101AB00005F121012846022200F048FB95F821603B
:101AC000B00661D547F6B447C2F20007397840F254
:101AD00024080020C2F20008207029BB98F80000FA
:101AE00010B397F8641069B197F8800050B1F86EA0
:101AF000D7F8881088420DD2002087F8640007F1DB
:101B000070000CE007F15400002908BF07F17000D5
:101B100005E000BF002087F8800007F154006060F6
:101B200002F062F9C7F88C006168D1E90220203226
:101B300082428A6010D2086825468118A02005F8E4
:101B4000310F681C2022FEF766FF05F121012846AF
:101B5000212200F0FBFA14E000220A74012100EEB9
:101B6000100A3970B8EE408A02F03EF9D7F88C10AE
:101B7000401A00EE100AB8EE400A88EE000A87ED1F
:101B8000250A387888F80000700640F1B38061209B
:101B9000254605F8310F4FF0FF30C5F81D00C5F898
:101BA0001900C5F81500C5F81100C5F80D00C5F8F5
:101BB0000900C5F80500C5F8010005F12101284616
:101BC000212200F0C3FAA5F1210005F12201202213
:101BD000FEF721FF55F8210C46F25561C8F6770152
:101BE000884229D043F24431C1F2221188424FD1B8
:101BF000606947F28871C5F26651884248D147F65C
:101C0000B445C2F20005E869002859D0A86B002845
:101C100056D095F82C00002805F11C005DD095F8F1
:101C20004810002905F1380156D06A6B2B6D9A4295
:101C300028BF084651E000BF606942F21121C4F29A
:101C40003341884224D16078012853D1A068C8B3B9
:101C50004168E26891423BD10121017402F0C4F86D
:101C6000A16894ED030A8861B8EE408A02F0BCF8DE
:101C700047F6B441C2F20001D1F89020801A00EE7C
:101C8000100AB8EE400A88EE000A81ED260A31E01B
:101C9000607801282ED1A568A5B16868E1688842FE
:101CA00028D26969884225D229682022084404F193
:101CB0005301FEF7F5FE6868203068601AE000BF47
:101CC0000020A06002B0BDEC028BBDE8F08100BF37
:101CD000002141600EE000BF084600210174416010
:101CE000617ED4F81A206170C4E9020202F07CF827
:101CF000C5F89000F006E5D520780130C1B206297C
:101D0000207005D347F6B440C2F2000002210170F2
:101D1000E1208DF807000DF107000DF10601012209
:101D200000F014FA616819BB47F6B440C2F2000033
:101D300090F8642072B190F8801059B1C16ED0F85B
:101D4000882091420ED2002180F8641000F17001C9
:101D50000DE000BF00F15401002A08BF00F170013E
:101D600005E000BF002180F8801000F1540161609F
:101D70000868896820220144A02004F8310F601C03
:101D8000FEF749FE04F121012046212200F0DEF990
:101D900002B0BDEC028BBDE8F081000070B5AAB0C6
:101DA0000C46D8B3012835D100F08CF800286BD050
:101DB0003FA0FEF7C3FD6D462846A821FEF706FFAB
:101DC00045F29810C0F601002890052001268DF8F4
:101DD000A40028468DF89C608DF8A5408DF8A6607B
:101DE000FFF7E2FC47F6B44040F22621C2F20000C1
:101DF000C2F2000142F62623416500214FF4205231
:101E0000C2F2000380F864108266036780F88010D5
:101E1000C0F8842070B22AB070BD00BF00F052F844
:101E200090B31EA0FEF78AFD6D462846A821FEF756
:101E3000CDFE45F29810C0F60100289005208DF8DF
:101E4000A400012628468DF8A5408DF8A660FFF76E
:101E5000ABFC47F6B44040F22621C2F20000C2F2C9
:101E6000000142F62623C16100214FF42052C2F244
:101E7000000380F82C100263836380F84810C2646A
:101E800070B22AB070BD00BF45F29E10C0F60100CE
:101E9000FEF754FDFF2670B22AB070BD4E72662068
:101EA0004F6E6C696E652C204D6F64653A527800F8
:101EB0004E7266204F6E6C696E652C204D6F6465A6
:101EC0003A54780070B50020FFF762FC012001F061
:101ED0002BFD40F60040C4F202004FF4805101F0A7
:101EE0006FFF45F2F024C2F2000448B947F227011F
:101EF000204620F8311F00F12101022200F026F9CE
:101F00003020254605F8310F4FF0A630C5F8010006
:101F10006FF0590005F12106687128463146062206
:101F200000F014F94FF0FF306871C5F8010010207F
:101F3000287028463146062200F008F995F822005C
:101F4000A6284FF0000047D195F82310A62943D1C9
:101F500095F82410A6293FD195F82510A6293BD144
:101F600095F82610A62918BF70BD302004F8310F4F
:101F70004FF03230C4F80100322004F121056071C5
:101F800020462946062200F0E1F84FF0FF3060714C
:101F9000C4F801001020207020462946062200F0D7
:101FA000D5F894F8220094F8231094F8242094F89B
:101FB000253080F0320081F0320194F82660084329
:101FC00082F03201084383F03201084386F0320187
:101FD0000843B0FA80F0400970BD00002DE9F041DF
:101FE000034653F8547F1FB3074657F8706FFEB18E
:101FF00090F8646090F88050002E1E4618BF0026AE
:10200000002D08BF3E463EB907780026002F00F09D
:102010009980022F08BF1E4673691F3222F01F04E9
:10202000A3F14002944207D9FE2670B2BDE8F081C8
:10203000FF2670B2BDE8F081326847F28873C5F2BE
:102040006653536043F24433C1F222131360326883
:102050004FF0000882F80880326801275772326812
:102060000546C2F80A403268203210462246FEF782
:10207000D2FC306842F211212044C4F23341416263
:1020800046F25561C8F67701016204F140003774E9
:10209000C6E9028001F0A8FE2A78B061002A50D07B
:1020A00045F2F024C2F2000485F80080A0272546FE
:1020B000316805F8317F681C2022FEF7ACFC05F181
:1020C00021012846212200F041F895F82100C0079F
:1020D00037D03068254605F8317F00F12001681CB3
:1020E0002022FEF798FC05F121012846212200F06C
:1020F0002DF895F82100C00723D03068A027254689
:1021000005F8317F00F14001681C2022FEF783FCB6
:1021100005F121012846212200F018F895F8210048
:10212000C0070ED0306804F8317F00F16001601CF8
:102130002022FEF770FC04F121012046212200F04C
:1021400005F8012670B2BDE8F0810000F0B581B05D
:1021500040F60047C4F2020714460D4606463846CC
:102160004021002201F03AFE49F604704FF0640C61
:10217000C2F2000031462A462346CDF800C003F0E3
:10218000BDFE38464021012201B0BDE8F04001F01B
:1021900025BE000070B581B00022009290F83C206E
:1021A000012A03D1022001B070BD00BFD1F800E0C8
:1021B0000122BEF10A0F1FFA8EFC80F83C2009D3E1
:1021C0004FEA4C02036812FA8EF2A2F11E0403F1E8
:1021D0000C0204E003680EEB4E0403F11002072525
:1021E0001668A54026EA050515608D68166805FA8B
:1021F00004F4344314604968062907D801EB8101CF
:102200004A1F194651F8345F0FE000BF0C2901EB5B
:10221000810105D8A1F12302194651F8305F04E08D
:10222000A1F14102194651F82C5F1F24944025EA80
:1022300004040C600CFA02F20C6842F2043CC4F292
:10224000010C2243ACF54174A3420A603ED1BEF1B9
:10225000120F07D1DCF8001041F48001CCF8001017
:1022600034E000BF2EF0010110292FD1DCF800105E
:10227000BEF1100F41F40001CCF8001026D140F25D
:10228000DC01C2F2000109684DF68362C4F21B3220
:10229000A1FB0212910C01EB810149000091009910
:1022A000A1B1009901390091009979B100990139E2
:1022B0000091009951B1009901390091009929B11B
:1022C00000990139009100990029EAD1002180F894
:1022D0003C10002001B070BD002804BF01207047F1
:1022E00010B5016C00293DD0016CC90645D4016CC4
:1022F00041F202129143023142F204320164C4F20B
:102300000102116821F440311160136890E8121045
:102310002343D0F810E013604A68012422F480724D
:102320004A604A68C0F6007442EA0E224A604A686F
:1023300022F040724A604A6842EA0C024A608A68A7
:1023400022F400628A60C2688B681A438A60826ADB
:102350008B68A24223F070638B608B6810D123F0EE
:10236000405216E0044600F065F820460021616402
:1023700084F83C10016CC906B9D5012153E000BFB7
:102380001A438A608A6822F040528A60C26A8B6867
:102390001A438A608A6822F002028A608A68037E91
:1023A00090F8204042EA43028A604A6884B142F4CD
:1023B00000624A604A684EF2000322F460424A60BA
:1023C000426ACFF6FF734C6803EB4232224301E0CE
:1023D00022F400624A60CA6A40F2000C22F47002E1
:1023E000CA62C3694269CFF6F07CCC6A0CEB035336
:1023F0002343CB628B6823F400738B6090F83030FA
:102400008C6844EA43238B608B6823F480638B6081
:102410008B6843EA82228A6000214164026C0123B6
:1024200063F301020264002280F83C20BDE8104002
:1024300008467047006842F20001C4F20101884278
:1024400018BF704781B00020009043F64400C4F2EA
:102450000200016841F480710160006800F480703E
:102460000090009801B0704790F82020013A012AAE
:1024700008D8006800F114020020136819431160A5
:10248000704700BF00F1240201204FF4802113683F
:10249000194311607047000090F82020013A012A8A
:1024A00030D8B0B546F20060C4F20000026842F0D5
:1024B00001020260026822F47C520260D1F814E04A
:1024C000CC694A6A0368012C43EA022202600EF0DA
:1024D0001F024FF0010303FA02F2C3696FEA020C14
:1024E00023EA0203C36113D02CBBC36803EA0C03C5
:1024F000C360CB688C8844EA034300EBCE042364BA
:102500000B4611E0416A41F480214162012070478D
:10251000C3681343C3600B688C8844EA034300EB31
:10252000CE04236401F10C038C681B8843EA044346
:1025300000EBCE04636443688D6943EA0204D1F87A
:1025400010E0096A002D08BF03EA0C0444604369E7
:10255000BEF1000F43EA020408BF03EA0C0401299C
:10256000446102D1C1691143C161016821F00101D7
:1025700001600020B0BD000070470000B0B590F8C9
:102580002040013C012C7DD8D0F800C000290CBFB0
:10259000DCF80C40DCF81040A4077DD00CF5D875B1
:1025A0004FEA011C55F80C4014F00404946055F8EF
:1025B0000CE005EB011C19BF4FEADE0555604FEA40
:1025C0005E551560DCF80050E64605F00205D56062
:1025D0005EF8044F24075ABFDEF8004004F00F04F1
:1025E00008241461DEF800400029C4F30724946134
:1025F000DEF800504FEA15455561DCF808201A70E6
:10260000026802EB0112D2F8B8214FEA12225A7086
:10261000026802EB0112D2F8B8214FEA12429A7016
:10262000026802EB0112D2F8B8214FEA1262DA70A6
:10263000026802EB0112D2F8BC211A71026802EBA7
:102640000112D2F8BC214FEA12225A71026802EB41
:102650000112D2F8BC214FEA12429A71026802EBD1
:102660000112D2F8BC214FEA1262DA7100680CBF85
:1026700000F10C0100F11001002020220B681A4328
:102680000A60B0BD00F1240101204FF480220B68E4
:102690001A430A60B0BD00BF00F1240101204FF4CD
:1026A00000120B681A430A60B0BD00002DE9F04F1C
:1026B00081B0044600684669D0F804908768D0F875
:1026C0000CB0D0F810A0D0F81880F10704D1002584
:1026D00030071DD424E000BFF90710D00121BA074C
:1026E000816009D4780700F1AF80380700F1B68027
:1026F000204600F015FA02E0204600F013FA00250B
:10270000F80500F18780F80300F1B180300707D5A4
:102710001BF0100004D0206845F400751021C16042
:10272000700708D51BF0080005D020680821C1609B
:10273000204600F0A7F9B00706D52068C0688007DA
:1027400002D0204600F0A0F9700607D51AF010005C
:1027500004D0206845F4806510210161B00608D5D9
:102760001AF0080005D0206808210161204600F019
:10277000A3F9F00606D520680069800702D020463C
:1027800000F09CF9B00308D519F0100005D02068BE
:1027900010214160204600F093F9F00308D519F0AC
:1027A000080005D0206808214160204600F0C4F9E7
:1027B000300440F19B805FEA497040F1948006F458
:1027C000807008EA102028435FEA8871014648BFFC
:1027D00041F00201B20558BF01465FEA48700D465C
:1027E00048BF45F00405700558BF0D46300540F15F
:1027F0007A8018F0700000F0768010380009052803
:102800006CD8DFE800F003655D61596945F00805A3
:1028100064E000BF20684FF48071BA0581600BD47A
:10282000780515D438051DD4204600F07DF9F8034D
:102830007FF56CAF1BE000BF204600F077F9F8038E
:102840007FF564AF13E000BF4FF4006558E700BFA9
:1028500005F50055F8037FF559AF08E04FF48055B2
:102860004EE700BF05F58045F8037FF54FAF2068C0
:102870004FF48031BA0381600AD4780310D438034E
:1028800014D4204600F054F930073FF541AF47E734
:10289000204600F04FF930073FF53AAF40E700BF60
:1028A00005F5004530073FF533AF39E705F58035CD
:1028B00030073FF52DAF33E745F080050EE000BF50
:1028C00045F020050AE000BF45F0400506E000BFE6
:1028D00045F0100502E000BF45F48075206881696D
:1028E00021F07001816120680421416055B1606A66
:1028F00040EA05012046616201B0BDE8F04FFFF7F4
:102900003BBE00BF01B0BDE8F08F0000002804BF4F
:1029100001207047B0B5044690F8200010B9204659
:1029200000F06EF82068016841F00101016001F0DB
:102930005BFA054620684168C90705D101F054FAE1
:10294000401B0B28F6D310E0016821F00201016062
:1029500001F04AFA054600BF2068416889070DD595
:1029600001F042FA401B0B28F6D3606A052140F4BF
:1029700000306062012084F82010B0BD217E026822
:10298000012922F0800208BF80320260617E026865
:10299000012922F0400208BF40320260A17E026895
:1029A000012922F0200208BF20320260E17E026885
:1029B000012922F0100218BF10320260217F026844
:1029C000012922F0080208BF08320260617F026814
:1029D000012922F0040208BF04320260D4E901C2D6
:1029E000D4E9033561691A432A431143ACF101026A
:1029F0001143C16100200121606284F82010B0BD44
:102A000080B586B046F200410068C4F200010022A1
:102A100088420592CDE903220292019202D006B0CB
:102A200080BD00BF43F630000092C4F2020003698B
:102A300043F000730361036903F000730093009B8C
:102A40000092036843F0080303600068022300F06B
:102A50000800009000980320019004900920059040
:102A600001F5D43001A9CDE9023201F0D9F81420E2
:102A70000821002201F05CFC142001F047FC06B0A4
:102A800080BD000070470000B0B58AB0044601F078
:102A9000ABF947F6B041C2F2000101AD086003AAEC
:102AA000204600212B46FFF769FDBDF80C002946A2
:102AB0000CF0E8FC0AB0B0BD7047000070470000A1
:102AC00070470000B0B5044690F8200001281DD1E1
:102AD000022084F820002068016821F001010160D3
:102AE00001F082F9054600BF20684068C00713D096
:102AF00001F07AF9401B0B28F6D3606A40F40030ED
:102B00006062052084F820000120B0BD606A40F4B6
:102B1000002060620120B0BD00206062B0BD0000F6
:102B200070470000704700007047000070470000C9
:102B300070470000704700007047000070470000B9
:102B40007047000070B50446006841F28956056977
:102B5000C0F60006690717D504214161E06B40F01B
:102B60000200E06384F82510A06B066500F0E4FC29
:102B700050B1A06B806B816B496D02291CBF012194
:102B800080F82510FFF7DAFFA80719D5216802227F
:102B9000A06B4A61E16B41F00101E163042184F81B
:102BA0002510066500F0C8FC50B1A06B806B816BEE
:102BB000496D02291CBF012180F82510FFF7BEFFD7
:102BC000E80605D5206810214161204600F060F834
:102BD000280705D5206808214161204600F0ECF95E
:102BE000E80708BF70BD21680868800703D5C8687A
:102BF00020F01E00C860C86820F001022046CA60AC
:102C0000BDE87040FFF79CBF002804BF012070475B
:102C1000F0B581B090F8251049B9002180F8241052
:102C2000044600F037F8204600F034F82046022130
:102C300080F8251090E8065040F6F8740B68102ACA
:102C400023EA04030B60D0E90443856943EA0E03D9
:102C500043EA0403066A43EA0C030F6843EA0503E8
:102C600043EA060343EA070343EA02030B6004BF97
:102C7000C2698A61CA6842F01E02CA60002101224C
:102C8000C16380F8252001B0BDE8F04008467047D8
:102C9000704700002DE9F04387B00446006800212A
:102CA000C5F2050100278842CDE90577CDE9037714
:102CB000029703D007B0BDE8F08300BF43F63000B1
:102CC0000197C4F20200416840F2004841F001015E
:102CD00041604168C4F2020801F0010101910199CB
:102CE0000197016802AE41F0100101600168022500
:102CF00001F0100101910199019701684FF00D0950
:102D000041F001010160016801F0010101910199A7
:102D10000197016841F004010160016801F00401BC
:102D2000019101990197016841F002010160006879
:102D3000314600F00200019001986320029008F5EE
:102D40004060CDE903550597CDF8189000F068FF75
:102D5000502002A9A1C1A8F580603146CDE90579CE
:102D600000F05EFF4FF40C60CDE9020504A880E896
:102D7000A00208F58060314600F052FF4020CDE906
:102D8000020504A880E8A0024046314600F048FF52
:102D9000802002A9A1C140463146CDE9057900F065
:102DA0003FFF49F2E87546F2B840C2F20005C4F2AE
:102DB00002004FF000714FF4805385E8830005F165
:102DC00014004FF48046C8C04FF440304FF4806286
:102DD000C5E908072846C5E9037200F0A1FC0028F0
:102DE00018BFFEF74DFC4E2007210022A563AC63FF
:102DF00001F09EFA4E2001F089FA07B0BDE8F08399
:102E000070B582B0044690F8240001284FF002000B
:102E100078D04FF0010E84F824E084F82500D4F82F
:102E200000C0A06BDCF80050002645F48045CCF8CB
:102E30000050DCF80050B6EB134F25F00205CCF83B
:102E40000050DCF8005041EA0501CCF8001041F2D6
:102E50009D5141F28955C0F60001C0F60005C163DD
:102E6000C0E91356A662266304D10CF1280100F0D4
:102E700009FD3FE04164C4F828E0E3626263E16A6F
:102E8000B1F5803F28D30021E36A5B08E362A36ABF
:102E90005B00A362E36AB3F5803F1DD3E36A5B087E
:102EA000E362A36A5B00A362E36AB3F5803F13D3D6
:102EB000E36A5B08E362A36A5B00A362E36AB3F5BB
:102EC000803F09D3E36A5B08E362A36A5B00A36205
:102ED000E36AB1EB134FD7D1A16A0239A162A16AAB
:102EE0002163E16AE66A02EB81030CF12801009696
:102EF00000F070F821680A6842F001020A600021BF
:102F000084F8241002B070BDB0B582B040F2DC018C
:102F1000C2F20001096842F293424908C9F249220B
:102F2000A1FB02129108019190F8241002240129BA
:102F30003ED0012180F8241080F8254001680A68FD
:102F400022F001020A60019A531E0193D2B10A686D
:102F5000D20714D0019A531E01939AB10A68D2077E
:102F60000DD0019A531E019362B10A68D20706D0B0
:102F7000019A531E01932AB10A68D207E3D10024B3
:102F800005E000BFC26B032442F02002C2630A685E
:102F9000054622F480420A60816B084600F084FAFC
:102FA000E86BE863012085F82500002085F82400FF
:102FB000204602B0B0BD000001200DF071BF00003E
:102FC000D0F800C010230020002A08BF0C234CF8C2
:102FD0000310704770B58568802D05D14FF480715E
:102FE0004165012070BD00BFC46B002C50D0446C03
:102FF000002C4DD0C46C002C4AD090F83440012CE9
:103000004DD0012480F8344090F83540012C43D154
:10301000022480F8354000244465D0F800C0049CA8
:10302000DCF8006046F20C4E46F48026C4F2020E34
:10303000CCF80060CCF810300B46CCF80440402DA2
:1030400004BF13460A460EF14C018C45CCF80830FB
:10305000CCF80C2026D946F28841C4F202018C45F6
:1030600064D046F27041C4F202018C4572D1202135
:10307000CEF800101021CEF800100821CEF8001074
:103080000421CEF800100121CEF80010EEE100BFBF
:1030900040214165012070BD002180F834100220DC
:1030A00070BD00BF46F20801C4F2020101F1B00296
:1030B000944519D946F21043C4F2020346F228425D
:1030C0009C45C4F2020200F08780944500F08080A5
:1030D00046F24046C4F20206B4450CBF4FF4001459
:1030E0004FF0006479E000BF01F1500246F2100E8B
:1030F00046F270039445C4F2020EC4F2020353D99F
:103100009C4500F0CF8046F28804C4F20204A44536
:1031100000F0C08046F2A004C4F20204A4450CBF33
:103120004FF400144FF000644C60C1E04FF40061B4
:10313000CEF800104FF48061CEF800104FF400710B
:10314000CEF800104FF48071CEF800104021CEF878
:1031500000108BE10EF194014FF000628C4508BF26
:103160004FF40012CEF800204FF0806208BF4FF4F9
:103170008012CEF800204FF000728C4508BF4FF44B
:103180000022CEF800204FF0807208BF4FF480225A
:10319000CEF800204FF480028C4508BF4FF48032F7
:1031A000CEF8002062E100BFF44500F07F8046F2D7
:1031B0002804C4F20204A44570D046F24004C4F2CC
:1031C0000204A4450CBF4FF400144FF000646EE0FD
:1031D0004FF4006401E000BF20249C45C1F8004486
:1031E00010D094450AD046F24046C4F20206B445D7
:1031F0000CBF4FF480144FF0806404E04FF48064FF
:1032000001E000BF10249C45C1F8004410D0944553
:103210000AD046F24046C4F20206B4450CBF4FF451
:1032200000244FF0007404E04FF4007401E000BF8C
:1032300008249C45C1F8004410D094450AD046F2B9
:103240004046C4F20206B4450CBF4FF480244FF050
:10325000807404E04FF4807401E000BF04249C45B6
:10326000C1F8004412D094450CD046F24042C4F25A
:10327000020294450CBF4FF480324FF48002C1F833
:103280000024F3E04022C1F80024EFE00122C1F85D
:103290000024EBE04FF400644C6009E04FF400645C
:1032A00005E000BF20244C6002E000BF20240C6039
:1032B000944513D99C452DD046F28804C4F20204EB
:1032C000A4451FD046F2A004C4F20204A4450CBFDA
:1032D0004FF480144FF080644C6021E0F4451DD021
:1032E00046F22804C4F20204A4450FD046F240047A
:1032F000C4F20204A4450CBF4FF480144FF0806464
:103300000DE000BF4FF480644C6009E04FF480642E
:1033100005E000BF10244C6002E000BF10240C60E8
:10332000944513D99C452DD046F28804C4F202047A
:10333000A4451FD046F2A004C4F20204A4450CBF69
:103340004FF400244FF000744C6021E0F4451DD090
:1033500046F22804C4F20204A4450FD046F2400409
:10336000C4F20204A4450CBF4FF400244FF00074D3
:103370000DE000BF4FF400744C6009E04FF400749E
:1033800005E000BF08244C6002E000BF08240C6088
:10339000944513D99C452DD046F28804C4F202040A
:1033A000A4451FD046F2A004C4F20204A4450CBFF9
:1033B0004FF480244FF080744C6021E0F4451DD020
:1033C00046F22804C4F20204A4450FD046F2400499
:1033D000C4F20204A4450CBF4FF480244FF0807463
:1033E0000DE000BF4FF480744C6009E04FF480742E
:1033F00005E000BF04244C6002E000BF04240C6020
:10340000944513D99C452BD046F28802C4F202029F
:1034100094451FD046F2A002C4F2020294450CBFAC
:103420004FF480324FF480024A601FE0F4451BD015
:1034300046F22802C4F2020294450FD046F240023E
:10344000C4F2020294450CBF4FF480324FF4800264
:103450000BE000BF40224A6008E000BF402204E0C9
:1034600001224A6002E000BF01220A60DCF800107D
:1034700041F01601CCF80010DCF8141041F0800186
:10348000CCF81410016C09B9806C28B1DCF800008C
:1034900040F00800CCF80000DCF8000040F001002B
:1034A000CCF80000002070BD70B5866D044600F0B9
:1034B0009BFC94F83510022928D105462068216C20
:1034C000026822F016020260426922F08002426124
:1034D00009B9A16C19B1016821F008010160016806
:1034E00021F00101016000BF20680068C00715D00D
:1034F00000F07AFC401B0628F6D3202060650320EC
:1035000084F83500002184F8341070BD8020606597
:103510000120002184F8341070BD00BFE06D3F2110
:1035200001FA00F0B060012084F83500002000218D
:1035300084F8341070BD000090F83510022909D1CC
:10354000052180F835100068016821F00101016053
:10355000002070478021416501207047F0B581B09F
:103560000021009140F2DC01C2F200010B68D0E9B9
:10357000166148F2B51537680822C1F64E358A4003
:103580003A42A3FB05350CD003681C68640708D5D4
:103590001C6824F004041C60B260426D42F0010219
:1035A000426501228A403A4208D003685B691B06E3
:1035B00004D5B260426D42F00202426504228A40A4
:1035C0003A4208D003681B689B0704D5B260426D7D
:1035D00042F00402426510228A403A4219D0016842
:1035E0000B681B0715D5B2600B680A685B0309D42A
:1035F000D20509D40A6822F008020A60016C29B9D0
:1036000007E000BF110341D4016C11B104468847A3
:103610002046C26D202101FA02F33B4243D00168EB
:103620000F68FF063FD5B36090F835700B68052F23
:103630001CD123F016030B604B6923F080034B6110
:10364000036C0BB9836C1BB10B6823F008030B6090
:103650003F219140B160012180F83510016D0022B9
:10366000002980F8342054D158E000BF0A685B0379
:1036700010D4D20512D40A6822F010020A60012187
:1036800080F83510002180F8341007E0816C0029A3
:10369000BCD1BEE7110301D4416C00E0C16B11B194
:1036A000044688472046416DC1B3416DC9072ED0FD
:1036B000052180F835100168AA0A0B6823F0010380
:1036C0000B60009B0133934200931AD80B68DB0711
:1036D00017D0009B01339342009312D80B68DB078D
:1036E0000FD0009B0133934200930AD80B68DB078D
:1036F00007D0009B01339342009302D80B68DB078D
:10370000DFD1012180F83510002180F83410C16C20
:1037100021B101B0BDE8F040084700BF01B0F0BDE5
:103720002DE9F041044600F05FFBECB105460220B4
:1037300084F835000020216884F83400086820F0FF
:103740000100086021680868C00711D000F04CFB38
:10375000401B0528F6D9032520230320636584F840
:103760003550BDE8F08100BF0120BDE8F08100BF09
:10377000086848F23F02CFF21002D4E9013500EAAE
:10378000020C04F10C0898E8C10143EA0C032B4336
:103790001843D4E9072E304338431043626A40EAA5
:1037A0000E00042A40EA08031CD1206BD4E90A2E3B
:1037B00040EA0E00184308604869BEF1000F20F08F
:1037C000030040EA020040F0040C11D0B8F5005F9D
:1037D00036D0B8F1000F45D1022A46D0012A3BD09D
:1037E00032B942E00B60486920F0070040EA020C61
:1037F00001F0F8004AF6AB221038CAF6AA22A0FB64
:1038000002231A0945F29C03C1F814C0C0F6010353
:103810009A5C40F2FF335F284FF03F0021EA03013A
:1038200000FA02F088BF0431C4E916128860002350
:1038300001250020636584F83550BDE8F08100BFA4
:10384000032AD5D8012540230120DFE802F0030E2A
:10385000030500BF82E700BFAEF1C070B0FA80F090
:10386000400904E0032A04D3C2D1CEF3006000284B
:10387000BED0012540230120636584F83550BDE8A2
:10388000F081000090F834C0BCF1010F04BF0220A9
:10389000704770B54FF0010C80F834C0D0F858E094
:1038A00090F835C0BCF1010F38D14FF0020C80F810
:1038B00035C04FF0000CC0F854C0D0F800C0846888
:1038C000056CC06DDCF80060402C26F48026CCF836
:1038D0000060CCF804300B4604BF13460A463F2173
:1038E00001FA00F0CCF80830CCF80C20CEF8080033
:1038F000DCF8000040F01600CCF800002DB1DCF838
:10390000000040F00800CCF80000DCF8000040F0B7
:103910000100CCF80000002070BD00BF002180F83D
:103920003410022070BD0000B0B5044600F05CFA0F
:10393000054640F20000C2F200000078611C18BF8A
:10394000044400BF00F050FA401BA042FAD3B0BDBF
:103950002DE9F04381B04AF2B028C2F2000898F88D
:103960001820012A04D1022001B0BDE8F08300BF75
:103970000546012088F818004CF250308946FDF7C2
:1039800089FE28B1002188F8181001B0BDE8F08345
:103990004FF0FF30C9F80000286843F610470128AF
:1039A000C4F202071CD128693968000221F4407171
:1039B0003960396880B241F00401396039680843E0
:1039C00040F4803038604CF25030FDF763FE3968C7
:1039D00021F00401396057F8101C89053BD452E0EE
:1039E000D5E902603044864230D2F000841C00BF2A
:1039F00028694FF44072C1B2032939684FEA0020A8
:103A000021F440713960396838BF82B241EA02005E
:103A10003860386820F078003860386820433860B3
:103A2000386840F4803038604CF25030FDF732FE98
:103A30003968002821F07A01396047D1D5E90201BF
:103A400001360844864204F10804D1D3002057F817
:103A5000101C890517D557F8101C21F4007147F880
:103A6000101C57F8101C41F4006147F8101C57F85F
:103A7000101C21F4006147F8101C57F8101C41F489
:103A8000007147F8101C57F8101C49057FF57AAFF4
:103A900057F8101C21F4806147F8101C57F8101CCF
:103AA00041F4805147F8101C57F8101C21F4805144
:103AB00047F8101C57F8101C41F4806147F8101C9F
:103AC000002188F8181001B0BDE8F083C9F8006043
:103AD00057F8101C8905BED4D5E7000043F6104105
:103AE000C4F20201086840F0004200200A607047FA
:103AF0002DE9F0414AF2B024C2F20004277E012FE2
:103B000004BF0220BDE8F0810546012020764CF27A
:103B1000503098460F461646FDF7BCFD20B10021F7
:103B20002176BDE8F08100BF2A46022D43F61045FC
:103B3000C4F202051ED0012A314638460CD03ABBE9
:103B40002A6822F440722A602A682A602A6842F0B1
:103B500001022A6001702CE02A6822F440722A6077
:103B60002A6842F480722A602A6842F001022A60C0
:103B700001801EE0286820F440702860286840F426
:103B800000702860286840F0010028603E6010E066
:103B90002A6822F440722A602A6842F440722A603D
:103BA0002A6842F001022A600160BFF36F8FC0F8FB
:103BB00004804CF25030FDF76DFD296821F00101C1
:103BC000296000212176BDE8F081000043F6044021
:103BD000C4F20200C168B1F1FF3FC4BF00207047CA
:103BE00040F22311C4F26751016048F6AB11CCF6E4
:103BF000EF510160C068C00F70470000802818BFF7
:103C00007047FDF747BF000043F61441C4F20101BD
:103C10000A68024214BF08607047FFF7EFBF000058
:103C20002DE9F04F83B000F1200200F13E4741F64C
:103C30000045009207F1FF77C4F2020508224FEA1F
:103C4000B726A84208BF072200254FF000084FF012
:103C50000009072E38BF4FEAB72201920AE000BFE1
:103C600009F1010908F10208B9F1100F05F1040585
:103C700000F0A2800F68012202FA09FE17EA0E0A7C
:103C8000EED0D1F804C003220CF003077E1E02FA26
:103C900008F4012E6FEA040B12D88468CE6804EA97
:103CA0000B0406FA08F634438460446824EA0E06DE
:103CB000CCF3001404FA09F42643466004E000BF84
:103CC000032F01D103271EE0C6688C6806EA0B06A5
:103CD00004FA08F42643022FC66014D16FF00302E1
:103CE000009E02EA590756F807C005F01C040F228F
:103CF0000B69A2402CEA0202A3401A43F251D1F808
:103D000004C00CF00307026807FA08F302EA0B028A
:103D10001A431CF4403F0260A2D0002243F6440341
:103D20000292C4F202031A6843F6004442F480424D
:103D30001A601A68C4F2010402F480420292029AE4
:103D400029F003024FF6084C2244CFF6FF7C52F8CC
:103D50000C3005F00C070F26BE40B343019E06FA57
:103D600007F73B4342F80C30A2684B6842EA0A0767
:103D700043F60C4CDE0258BF22EA0A07A760C4F2E1
:103D8000010CDCF800209E0242EA0A0758BF22EA32
:103D90000A07CCF8007062689E0342EA0A0758BF1F
:103DA00022EA0A0767602268DB0342EA0A0758BF73
:103DB00022EA0A07276053E703B0BDE8F08F00004E
:103DC0000069084018BF012070470000426902EAFC
:103DD0000103914341EA034181617047002A08BF12
:103DE00009048161704700004EF28410C2F20000A5
:103DF0000068704747F61020C1F6FF7000687047F2
:103E000047F61420C1F6FF700068704747F6182087
:103E1000C1F6FF7000687047002804BF012070479A
:103E2000F0B581B0044690F83D0028B9002084F830
:103E30003C00204600F050F9242084F83D00206822
:103E4000016821F001010160016841F40041016055
:103E5000016821F40041016001F0F0FB636848F261
:103E6000A16CC0F2010C40F60011C0F23D016345A7
:103E70003CBF48F28041C0F21E01884202D20120BC
:103E800001B0F0BD4DF68361C4F21B31A0FB0112FD
:103E90002168970CD1F804E04FF496762EF03F0598
:103EA00045EA92454D60774348F638160D6AC0F2F0
:103EB0004106A7FB067625F03F07634538BF960C01
:103EC000721C3A430A62CA6948F2A0664CF6FF7750
:103ED000C0F20106B34222EA07020BD801385B00A8
:103EE000B0FBF3F001306FF31F30042898BF0420BB
:103EF0001BE000BFA768013857B119277B43B0FB0F
:103F0000F3F001306FF31F3070B100F5804007E02F
:103F100003EB4303B0FBF3F001306FF31F3018B134
:103F200000F5004001E000BF01201043C8610868AF
:103F3000D4E9072320F0C0001043184308608868C4
:103F400048F2FF3204F10C0790438CCF1843104322
:103F5000A6698860C86820F0FF0038433043C86015
:103F6000086840F00100086000202021206484F8E7
:103F70003D10206384F83E0001B0F0BD2DE9F04310
:103F800083B0994616460F460446FFF72DFF94F876
:103F90003D10202924D10546206800BF816989078A
:103FA0001AD5FFF721FF411B20681A29F6D3816932
:103FB0008907F3D500202021206384F83D1084F880
:103FC0003E00216C41F02001216484F83C00022075
:103FD00003B0BDE8F08300BF94F83C10012903D181
:103FE000022003B0BDE8F083012284F83C2003687E
:103FF000DDE90B180A9ADB0703D1036843F00103DC
:104000000360036823F400630360212084F83D000B
:10401000402084F83E000020206462626185608D4B
:10402000394620850020CFF6FF70E06220463246F8
:104030004B46CDE9008503F073FB18B1012003B0B6
:10404000BDE8F083208D98B9204641462A4603F00A
:10405000CBFB88B3206C0428F0D12068016841F4C0
:1040600000710160012003B0BDE8F0830004EBD0D3
:10407000204641462A4603F067FD0028EAD1616ADE
:104080002268084610F8013B1361238D6062581EB8
:104090002085678D013F678557697F07E6D507044F
:1040A000E4D048781061881C6062981E2085618D7C
:1040B00001396185DAE700BF2068016841F40071C9
:1040C0000160202084F83D00002084F83E0084F840
:1040D0003C0003B0BDE8F083B0B586B0006845F69B
:1040E0000001C4F2000100248842CDE90444CDE976
:1040F000024401942ED045F20041C4F200018842EE
:1041000051D143F630050094C4F20205286801A994
:1041100040F002002860286800F00200009000983B
:104120004FF4407001901220CDE902040320049066
:104130000420059040F20040C4F20200FFF770FD39
:104140000094286940F400102861286900F40010E8
:1041500027E000BF43F630050094C4F2020528684A
:1041600001A940F002002860286800F002000090D9
:1041700000984FF4406001901220CDE90204022023
:1041800004900420059040F20040C4F20200FFF7C2
:1041900047FD0094286940F480002861286900F4F4
:1041A00080000090009806B0B0BD000040F2000012
:1041B0004EF28411C2F20000C2F2000100780A68D7
:1041C000104408607047000080B543F60040C4F218
:1041D0000200016841F400710160016841F48061EE
:1041E0000160016841F480710160032000F0CCF8A7
:1041F0000F2000F005F800F05DF8002080BD000001
:1042000070B586B0002543F640010195C4F2020165
:104210000A68044642F480720A60096801A801F441
:10422000807101910199694601F0E2F9049E002E26
:1042300018BF012601F002FA4DF68361B040C4F2C6
:104240001B31A0FB01014FF0FF3000EB914149F61B
:10425000B47042F20002C2F20000C4F2000240F266
:10426000E733C0E90021C0E902530561856102F02E
:104270004BF808B106B070BD49F6B470C2F2000048
:1042800002F0B2F80028F5D12D2000F03FF80F2CF5
:104290000CD82D202146002200F04AF840F20401FB
:1042A0000020C2F200010C6006B070BD012006B013
:1042B00070BD000080B582B0002043F6400101903F
:1042C000C4F202014A6842F480424A604A6802F439
:1042D00080420192019A00900868002240F08050CC
:1042E000086008680F2100F08050009000986FF07F
:1042F000010000F01DF801200521002200F018F84F
:10430000012002B0BDE88040AFF30080002848BF24
:10431000704700F01F01012202FA01F11C2202EA9B
:10432000D0004EF20012CEF2000281507047000021
:1043300010B54EF60C5CCEF2000CDCF80030C3F386
:10434000022E8EF00704042C28BF0424BEF10303C0
:104350004FF0FF3E0EFA04F438BF0023A14399400A
:104360000EFA03F39A43114300F00F0200F1604389
:104370000901043A03F564436244002848BF02F18E
:104380000C03197010BD00004EF60C51CEF2000166
:104390000A684FF6FF031A4060F30A2242F0806079
:1043A00040F0FD7008607047704700000268002010
:1043B000516270472DE9F041D0F80080D8F82430E0
:1043C00091B1D8F82870B1F1010C03EB17414FD02F
:1043D0005FFA8CF708F58273042F0CF0030E0BD2F2
:1043E000002700242BE000BF43EA02410020C8F868
:1043F0002810BDE8F08100BF0CF0FC0508F1F406C0
:10440000002400BF56F8107F44F0020001EB174172
:1044100044F00107FFB253F82770C0B253F82000F0
:1044200001EB174101EB104044F00301C9B253F80E
:1044300021100434E7B2AF4200EB1141E2D1BEF1EA
:10444000000F15D053F82700BEF1010F01EB10410A
:104450000ED0601CC0B253F82000BEF1020F01EB79
:10446000104105D0A01CC0B253F8200001EB104150
:1044700041EA024008EB8C01C1F804010020BDE8CC
:10448000F0810000D0F8E00409F03CB801EBC10273
:10449000D0F8E03400EB8200026A184608F096BFBC
:1044A00001EBC102D0F8E03400EB8200D0F86022CA
:1044B000184608F0E9BF0000D0F8E00409F024B87D
:1044C00010B501F00F0E0A464FFA81FC0EEBCE013B
:1044D00000EB810303F51571BCF1000F48BF03F138
:1044E000140190F89434D209012B4A7081F800E04D
:1044F00004BF022010BD0268012380F894340446F2
:10450000104609F00BFE002084F8940410BD000052
:10451000037901F00F029A4284BF0120704710B561
:1045200002EBC20300EB83034FFA81FC8E4603F5D6
:104530001571BCF1000F48BF03F114014FEADE13FF
:104540004B7090F894344FF0000C012B81F802C0AE
:104550000A7004BF022010BD0268012380F8943461
:10456000044610460AF0CEF8002084F8940410BDEA
:1045700001F00F0101EBC10100EB8100D0F86802EE
:104580007047000010B54FFA81FE01F00F0CBEF12C
:10459000000F6FF3DF220CEBCC010DD400EB810E8A
:1045A00000240EF515718EF855428EF854C2CEF8DF
:1045B0005C228EF8583209E000EB810101F814CF3B
:1045C00001244C708A600B71A1F81AC0022B04BF41
:1045D00000224A7190F89424012A04BF022010BDE1
:1045E0000268012380F894340446104609F008FC60
:1045F000002084F8940410BD10B501F00F0E0EEBEE
:10460000CE0100EB81044FF0000CC4F868C284F8BE
:1046100055C290F806C004F51571C4F86022C4F8BC
:104620006432BCF1010F84F854E208BFCA6100682B
:1046300062460AF0B1F8002010BD0000B0B5027962
:1046400001F00F0494424FF001022CD801EBC1039A
:1046500000EB83034FFA81FC03F5157304EBC405EB
:10466000C90900EB8505BCF1000F48BF05F1140333
:10467000597090F894149A7001291C7004BF02209C
:10468000B0BD0168054680F89424084619460AF032
:1046900063F82CB92868A97905F29C420AF004F85D
:1046A000002285F894241046B0BD000001F00F0CE4
:1046B0000CEBCC0100EB810101F814CF4FF0000CA2
:1046C0000B618379C1F814C04FF0010CCA60012B53
:1046D00081F801C008BFCA6180B500681A460AF0B7
:1046E0005BF8002080BD00002DE9F04F87B0056821
:1046F000824628460AF06CFA10B107B0BDE8F08F88
:10470000DAF800000AF092FA0028F6D0D5F8080886
:10471000C0F30D21DAF80000CAF8D4140AF086FAC2
:104720000146DAF80000890703D5416901F002016A
:10473000416105F5006104910AF078FA0146DAF862
:104740000000C906059535D5816921F01001816108
:104750002C6A04F00F0000EBC0000AEB8001C4F3E8
:104760004340062801F5157512D002281BD147F6E3
:10477000F07014EA000616D0E9683409059822465C
:104780000AF058FAE86800EB1610E86008E000BF8D
:1047900005980AF29C4108220AF04CFAC4F30A1464
:1047A000686920446861DAF80000816941F010010D
:1047B0008161059D0AF03AFA000340F1F180DAF8D0
:1047C00000000AF011FA002800F0EA8006460AF21A
:1047D0009C404FF4306800244FF0000B069019E025
:1047E00005EB080002218160B80642BF05EB080016
:1047F00020218160B80442BF05EB08004FF400514E
:1048000081600BF1010B760808F1200804F1240403
:1048100000F0C680F007F4D0DAF800005FFA8BF9F8
:1048200049460AF0FBF90746C00760D005EB0800CF
:1048300001218160DAF8000008EB0001036C8A684E
:104840009AF80650012D25D1150733D4950600F1AD
:104850009F8043F20B05C4F65475AB42059D02D30D
:1048600012F4004230D10AEB0402D2F87432096922
:104870006FF3DF41A3EB0101C2F868129CBBD2F8D1
:104880006432002B00F08A80D2F860020844C2F83B
:10489000600228E043F20B05C4F65475FF35AB42C5
:1048A00018D1059D10040FD4900644BF20208860C5
:1048B00019E000BF43F20B00C4F65470059D83421B
:1048C00015D312F4004012D04FF40040886038072E
:1048D0000FD43DE0059D34B9DAF8641219B900210E
:1048E000069A09F0E1FE50464946FFF7D9FD380720
:1048F0002ED505EB080008218160DAF8000043F2AC
:104900000B02056C40448168C4F6547295420BD387
:1049100011F4004108D04FF400418160504600F08E
:1049200019FD059D0AE000BF504600F013FD43F25B
:104930000B00C4F654708542059D09D39AF8060011
:10494000012805D1DAF80000069A012109F0ACFE31
:10495000F80642BF05EB080010218160B8077FF51B
:1049600043AF6869000604D50499486840F4806044
:1049700048600AEB040090F8571201297FF430AF29
:10498000002180F857125046494600F031FB27E7D6
:1049900020208860059D3807ABD4D9E701219FE727
:1049A000DAF80000CDF818A00AF040F9400340F111
:1049B000D380069800680AF00FF9002800F0CC8038
:1049C0000646069805F5106900F1140100F29C40B6
:1049D000002703910190CDF8089004E0760807F1D4
:1049E000010700F0B980F007F8D006985FFA87FA5F
:1049F000006851460AF000F90446C00726D0049A20
:104A000007F00F00516B012303FA00F021EA0000C8
:104A1000506309EB4710836006988079012811D113
:104A2000039907EBC70001EB8000D0E902121144A3
:104A3000C1603FB9006928B90698019A0068012150
:104A400009F032FE06985146FFF720FD200742BFCD
:104A500009EB471008218160E00642BF09EB4710CF
:104A600010218160600642BF09EB47104021816040
:104A7000A00716D5284639460AF03CF8039907EBFB
:104A8000C70001EB800010F8031F012905D10021A8
:104A900001700698514600F0A7FA09EB4710022171
:104AA000816020069AD5039907EBC70001EB8008C7
:104AB000D8E90420824291D30699D8F808300C68CE
:104AC000111A994238BF0B4604EB4711D1F818C9A7
:104AD00003F1030E1FFA8CF3B3EB9E0F2DD301F5F8
:104AE000106900BFD8F81020824224D9101A069A03
:104AF000D8E902B19579584538BF83461FFA8BF340
:104B0000204652460095059D0AF03CFBD8F80C0063
:104B1000D8F814105844C8F80C0001EB0B00C8F882
:104B20001400D9F818100BF1030289B2B1EB920FFF
:104B3000D8D2D8F81020DDF8089082423FF64EAF68
:104B400007F00F00D4F83418012202FA00F021EA2D
:104B50000000C4F8340841E7DDF81890D9F80000E7
:104B60000AF064F8002821D4D9F800000AF05EF8B1
:104B700000053AD4D9F800000AF058F8C00445D529
:104B80000499486820F001004860D9F8000010211D
:104B900009F0B0FF99F80400010600F0EC80C1B202
:104BA000042900F0030035D200219AE004994868F6
:104BB00020F00100486099F8CC04012808D10020B9
:104BC00089F8CC0448460021FFF7EEFB03E000BF64
:104BD000484600F0A3FBD9F80000416901F000410C
:104BE00041610AF023F80005C4D504988068C00725
:104BF00002D0484600F0D6FBD9F80000416901F424
:104C0000006141610AF012F8C004B9D4D9F800007B
:104C1000DDE000BF6FF0600202EA411200234FF6B0
:104C20007F370021EE18C6F80879D6F8005980338E
:104C300025F40015C6F80059C6F8087BD6F8005BC5
:104C40009A4225F40015C6F8005BD6F8005B01F126
:104C5000040145F00065C6F8005BC6F82879D6F86F
:104C6000205925F40015C6F82059C6F8287BD6F837
:104C7000205B25F40015C6F8205BD6F8205B45F0D4
:104C80000065C6F8205BC6F84879D6F8405925F487
:104C90000015C6F84059C6F8487BD6F8405B25F4A5
:104CA0000015C6F8405BD6F8405B45F00065C6F8D5
:104CB000405BC6F86879D6F8605925F40015C6F847
:104CC0006059C6F8687BD6F8605B25F40015C6F815
:104CD000605BD6F8605B45F00065C6F8605B059DDB
:104CE000A0D1002847D005F5106202EB41134FF622
:104CF0007F374E019F609559059B25F4001503F5FC
:104D00003063955103EB4115AF609D59012825F49F
:104D100000159D519D5945F000659D512BD04E1CAD
:104D200002EB46147501A760545903EB461624F4B0
:104D300000145451B7605F59022827F400175F51DF
:104D40005F5947F000675F5115D0881C02EB401790
:104D50004FF67F364101BE60575803EB401027F4F1
:104D6000001757508660585820F400105850585873
:104D700040F000605850049F8421F869442240F0BC
:104D80000110F86199F80F0000284FF00B0008BFE0
:104D9000142108BF42F22B007B5808BF1022184391
:104DA0007850B85840F00B00B850386809F29C426F
:104DB00020F4FE603860D9F8000099F8061009F078
:104DC00073FCD9F80000416901F48051416109F098
:104DD0002DFF0146D9F8000089041AD509F052F8D0
:104DE000D9F8000009F0E6FED9F8004089F807007C
:104DF00000F01EFC99F80720014620460AF036F91B
:104E0000484600F075FAD9F80000416901F40051F4
:104E1000416109F00BFF000706D4D9F8000009F042
:104E200005FF00060DD437E0484600F07BFAD9F8BC
:104E30000000416901F00801416109F0F7FE000638
:104E40002AD50599886920F08000886199F80400C6
:104E5000022821D309F5157409F11405012640F241
:104E60007B2704E00136864207F1240714D219F8A3
:104E700007100129F6D106F00F0000EBC002300642
:104E8000D9F8000005EB820158BF04EB820109F05C
:104E9000A1FD99F80400E5E7D9F8000009F0C6FE85
:104EA000C0024BD4D9F8000009F0C0FE059D800275
:104EB0007CD599F80410022926D305F53260013912
:104EC00009F51F72012304E02030013902F12402A8
:104ED0001AD007681678012EF6D1B7F1FF3FF3DC40
:104EE000D9F8D46486EA1747FF07EDD102F8013CF0
:104EF000AF6947F08007AF616F693F06E4D404995A
:104F0000486840F400704860D9F80000416901F435
:104F10000011416109F08AFE40004DD54846FFF777
:104F2000B1FAD9F80000416901F08041416109F00E
:104F30007DFE40077FF5E1AB45E000BF99F8040036
:104F4000022827D3059909F1140401F5126509F126
:104F50003B064FF00108012706E000BF013720356E
:104F6000874206F1240615D229687278012AF5D104
:104F7000B1F1FF3FF2DC07F00F0000EBC001D9F800
:104F8000000004EB810186F8008009F023FD99F808
:104F90000400E3E7D9F80000416901F480114161A0
:104FA00009F044FE059D80023FF583AFD9F800006B
:104FB00009F03CFE4000B1D4D9F8000009F036FEFB
:104FC00040077FF59AABD9F800004468610704D523
:104FD0004846FFF771FAD9F8000041682143416063
:104FE00007B0BDE8F08F0000D0F8E00408F0F0BA98
:104FF000D0F8E00408F002BB002804BF012070478D
:10500000F0B581B00446056890F8950428B90020F1
:1050100084F89404204600F027F90320B5F1A04F4E
:1050200084F8950404BF0020A071206809F034FBC7
:1050300094E80F00267C009608F034FF002840F02A
:1050400000812068002109F04BFE002840F0F98023
:1050500094F804E0BEF1000F00F0EC800EF0030CB9
:10506000BEF1040F4FF0000240D30EF0FC03A4F198
:1050700090000321012500BFCE1E80F8A460A0F897
:10508000BE608E1E80F8C860A0F8E2604E1E80F8F8
:10509000EC60A0F8066180F81011A0F82A110E1D2E
:1050A000013180F8A55080F8A820C0E92B22C0F873
:1050B000B42080F8C95080F8CC20C0E93422C0F870
:1050C000D82080F8ED5080F8F020C0E93D22C0F8EB
:1050D000FC2080F8115180F81421C0E94622C0F864
:1050E0002021903099423146C6D1F21EBCF1000F0A
:1050F00031D004F1140002EBC20100EB8105012361
:1051000000F821200021BCF1010F6B706A83297126
:10511000C5E9021129611ED0551C05EBC50600EB3F
:105120008607BCF1020F7B7000F826507D83397131
:10513000C7E9021139610ED0911C01EBC10200EBED
:105140008203012500F8221000205D705983187138
:10515000C3E902001861BEF1000F6BD0BEF1040F6D
:105160004FF0000236D30EF0FC000321234600BFAF
:10517000CF1E83F854728F1E83F878724F1E83F807
:10518000C0120D1D013183F8552283F85822C3E95E
:105190009722C3F8642283F8792283F87C22C3E93A
:1051A000A022C3F8882283F89D2283F89C7283F89A
:1051B000A022C3E9A922C3F8AC2283F8C12283F854
:1051C000C422C3E9B222C3F8D022903381422946D7
:1051D000CED1EA1EBCF1000F2CD004F5157002EB05
:1051E000C20300EB83070021BCF1010F797000F8C6
:1051F00023203971C7E9021139611BD0531C03EB1D
:10520000C30700EB8706BCF1020F717000F827306E
:105210003171C6E9021131610CD0911C01EBC10260
:1052200000EB820300275F7000F822101F71C3E9B2
:1052300002771F6194E80F00277C009708F0D0FFE9
:1052400030B1022084F89504012001B0F0BD00BF08
:1052500000206074012084F89504206808F0B0FFF5
:10526000002001B0F0BD0000B0B586B00068002499
:10527000B0F1A04F0594CDE903440294019401D00C
:1052800006B0B0BD43F630050094C4F202052868AC
:1052900001A940F001002860286800F0010000909A
:1052A00000984FF4C05001900220CDE90204032081
:1052B00004900A2005900020C4F20200FEF7B0FC22
:1052C0006868052140F080006860009468690022E9
:1052D00040F480406861686900F480400090009864
:1052E0004320FFF725F84320FFF710F806B0B0BDC4
:1052F00010B50446C07928B1022801D0FCF7C0F9E6
:10530000012100E00021D4F8E00408F0FFF9D4F80E
:10531000E004BDE8104008F0ADB90000D0F8E004AA
:1053200008F0DAB9D0F8E00408F0E0B990F8942475
:10533000012A04BF0220704710B5012280F894248E
:10534000417402680446104609F07EFE002084F88D
:10535000940410BDD0F8E02400F29C41104608F0FF
:10536000EBB9000010B5044690F89404012804BF7E
:10537000022010BD2068012184F89414C1684906F8
:1053800006D5617B012903D1816B41F480318163B2
:1053900009F0A8FB206808F003FF002084F89404BB
:1053A00010BD000010B50446D0F8E00408F01AFA69
:1053B0002068D0F8001E41F00101C0F8001EE07A1C
:1053C000002808BF10BD4EF61050CEF20000016854
:1053D00041F00601016010BD47F2000CC4F2000C60
:1053E000DCF80030026823F0E00343F600411A4382
:1053F000C4F20101CCF800204A6822F480324A60ED
:105400000A6822F480320A608A6822F480328A6054
:10541000CA6822F48032CA604068C20310D4820392
:1054200014D4C20703D08A6842F480328A608007AD
:1054300058BF7047C86840F48030C860704700BFEC
:105440000A6842F480320A608203EAD54A6842F46C
:1054500080324A60C207E6D1E9E700001020C4F2BA
:105460000E2001210160704704F050BC10B543F6D6
:105470001444C4F201042068C00358BF10BDFFF7F4
:10548000F3FF4FF48030206010BD0000002804BFFF
:10549000012070472DE9F04143F60808C4F20208E4
:1054A0000446D8F8F8030D4600F00700884207D2FA
:1054B00088F8F853D8F8F80300F00700A84277D12D
:1054C0002068810717D5410705D5D8F8001041F4A9
:1054D000E051C8F80010010705D5D8F8001041F4D4
:1054E0006041C8F80010D8F80010A26821F0F0015F
:1054F0001143C8F80010C00740D1D8F8F80300F0F5
:105500000700A84207D988F8F853D8F8F80300F044
:105510000700A8424CD12068410707D5D8F80010F1
:10552000E26821F4E0511143C8F80010000708D5E3
:10553000D8F80000216920F4604040EAC100C8F8B2
:10554000000000F0A3F8D8F8001043F69062C1F311
:105550000311C0F60102515C40F2DC0220FA01F1B5
:1055600040F20400C2F200000068C2F200021160C2
:10557000FEF746FE0020BDE8F08100BF6068811E96
:10558000022907D258F8081C89015CBF0120BDE838
:10559000F08111E0012807D158F8081C89035CBF8D
:1055A0000120BDE8F08107E058F8081C890703D402
:1055B0000120BDE8F08100BFD8F8001021F0030100
:1055C0000843C8F80000FEF70FFC064641F2883792
:1055D000D8F80000616800F00C00B0EB810F8CD0AF
:1055E000FEF702FC801BB842F2D90320BDE8F0812F
:1055F0000F22026043F60802C4F20202136803F0AD
:1056000003034360136803F0F0038360136803F43B
:10561000E053C360D2F800C04FF4E05303EADC0368
:105620000361D2F8F80300F007000860704700003B
:1056300040F2DC00C2F200000068704740F2DC007B
:1056400043F60801C2F20000C4F2020100680968D2
:1056500043F6A062C1F38221C0F60102515CC8404A
:105660007047000040F2DC0043F60801C2F200007F
:10567000C4F202010068096843F6A062C1F3423136
:10568000C0F60102515CC8407047000010B543F6F7
:105690000404C4F20204606800F00C0008280BD077
:1056A000042819BF42F20040C0F2F40047F640005F
:1056B000C0F27D1010BD00BF206821682368490238
:1056C00047F64001C0F27D1100F03F02C3F388109D
:1056D0005CBF42F20041C0F2F401A1FB00010023D3
:1056E000FAF70DFE21680222C1F3014102EB4101EC
:1056F000B0FBF1F010BD000070B586B043F6300687
:10570000002840F2000014460D46C4F20206C4F21E
:1057100002004FF0000123D00191326800F50060D3
:1057200042F004023260326802F004020192019AEF
:105730004FF400720192022202920322CDE9031279
:10574000059101A9FEF76CFA56F8280C20F0784074
:1057500040EAC400284346F8280C06B070BD00BFDC
:105760000191326842F001023260326802F00102B7
:105770000192019A4FF48072019202220292032256
:10578000CDE90312059101A9FEF74AFA56F8280C53
:1057900020F0EC602843204346F8280C06B070BD8A
:1057A000002804BF012070472DE9F04182B0044673
:1057B000007843F60006C007C4F202060CD0B068B9
:1057C00000F00C00042840F081803068800303D58D
:1057D0006068002800F06881207880071BD5B068D9
:1057E00010F00C0F09D0B06800F00C00082840F051
:1057F00087807068400200F183803068800703D59D
:10580000E068012840F050813068216920F0F800FC
:1058100040EAC10030602078000713D420784007A8
:105820002AD4A569002D00F03A81B06800F00C0080
:10583000082840F0A580012D40F00E81012002B023
:10584000BDE8F0816069002800F082800020C4F289
:1058500047200121C0F8801EFEF7C6FA054600BFAA
:10586000706F8007DAD4FEF7BFFA401B0228F7D921
:10587000032002B0BDE8F081306C5FEAC0080AD4B2
:1058800000200190306C40F080503064306C00F0AB
:1058900080500190019847F20007C4F20007386871
:1058A000C00547D4386840F480703860FEF79CFA31
:1058B000054600BF3868C0053CD4FEF795FA401B8A
:1058C0000228F7D9032002B0BDE8F081B06800F0EB
:1058D0000C00082803D1706840023FF576AF61687C
:1058E0003068B1F5803F07D0B1F5A02F40F09A8025
:1058F00040F480203060306840F4803030609AE0BE
:10590000E068002840F20000C4F247205CD001218A
:105910000160FEF769FA0546306880073FF574AF0D
:10592000FEF762FA401B0228F6D9032002B0BDE858
:10593000F08100BFA168306F012905D0052955D13C
:1059400040F004003067306F40F00100306756E0EF
:105950000020C4F247200021C0F8801EFEF744FA60
:10596000054600BF706F80077FF558AFFEF73CFA21
:10597000401B0228F6D9032002B0BDE8F08100BF29
:105980000027C4F2472700203866FEF72DFA022DC3
:1059900005460DD13068800140F18A80FEF724FA77
:1059A000401B02284FF00300F4D902B0BDE8F0819B
:1059B0003068800173D5FEF717FA401B02284FF0BC
:1059C0000300F5D9F1E700BF00210160FEF70CFAF2
:1059D000054600BF306880077FF51DAFFEF704FA6B
:1059E000401B02284FF00300F4D9DEE720F001004D
:1059F0003067306F002920F0040030677AD0FEF75E
:105A0000F3F9054641F28837306F800700F1848052
:105A1000FEF7EAF9401BB842F6D9032002B0BDE810
:105A2000F08100BF20F4803030603068002920F41D
:105A3000802030607AD0FEF7D7F9054630688003C1
:105A40003FF5CAAEFEF7D0F9401B6428F6D9032013
:105A500002B0BDE8F08100BF7068E16900F4800227
:105A60008A4221D1216A00F03F028A421CD147F6C6
:105A7000C071626A0140B1EB821F15D1A16A4FF675
:105A8000FF73C903994300F44032A1F580318A4283
:105A90000AD1E16A00F07060B0EB016F04D1002020
:105AA00002B0BDE8F08100BF012002B0BDE8F08186
:105AB00004F11C052FCD084340EA8210D9034FF6AC
:105AC000FF729143A1F5803140EA056008437060A0
:105AD00001203866FEF788F9044600BF306880016F
