:020000040800F2
:1000000068DD00205104000821AA0108A1E80008C9
:10001000F9A9010821250008A1DD01080000000060
:10002000000000000000000000000000F1C2010814
:10003000093600080000000031AA010861C9010862
:100040006B0400086B0400086B0400086B040008D4
:100050006B0400086B0400086B0400086B040008C4
:100060006B0400086B0400086B0400088931000869
:1000700099310008A9310008B93100086B04000863
:100080006B0400086B0400086B0400086B04000894
:100090006B0400086B0400086B0400086B04000884
:1000A0006B0400086B0400086B0400086B04000874
:1000B0006B0400086B0400086B0400086B04000864
:1000C0006B0400086B0400086B04000851C10108B0
:1000D0006B0400086B0400086B0400086B04000844
:1000E000113600086B040008000000006B040008D3
:1000F0006B0400086B0400086B0400086B04000824
:100100006B04000831B801086B0400086B04000898
:1001100069CE01086B0400086B0400086B0400083A
:10012000C93100086B0400086B0400086B04000868
:100130006B0400086B0400086B0400086B040008E3
:1001400000000000000000000000000000000000AF
:100150006B0400086B0400086B0400086B040008C3
:100160006B0400086B0400086B0400086B040008B3
:100170006B0400086B0400086B040008000000001A
:100180006B0400086B0400086B0400086B04000893
:1001900061C101086B0400086B0400086B040008CF
:1001A0006B0400086B0400086B0400086B04000873
:1001B00041B501086B0400086B0400086B040008DB
:1001C0006B0400086B0400086B0400086B04000853
:1001D0006B0400086B0400086B0400086B04000843
:1001E0006B0400086B0400086B0400086B04000833
:1001F0006B0400086B0400086B0400086B04000823
:100200006B0400086B0400086B0400086B04000812
:100210006B0400086B040008E9CB01086B040008BC
:100220006B04000869030108419D010800000000FB
:100230006B0400086B040008000000006B04000859
:100240006B0400086B0400086B0400086B040008D2
:100250006B0400086B0400086B0400086B040008C2
:100260006B0400086B0400086B0400086B040008B2
:100270006B0400086B0400086B0400080000000019
:100280006B0400086B0400086B0400080000000009
:10029000000000006B04000800F002F800F0C8F84D
:1002A00014A696E8000CB244B344DA4501D100F03C
:1002B000BFF8BAE80F000FA696E83000A5EB0405DA
:1002C00004EB0607AAEB0704A7F101074FEA15158F
:1002D0004FEA3414A4F10104AC4201D300F0A8F8B1
:1002E00013F0010F18BFFB1A43F0010300F001F8EF
:1002F000DBE718472C5F12009C5F12000A444FF0A6
:10030000000C10F8013B13F0070408BF10F8014B74
:100310001D1108BF10F8015B641E05D010F8016BB9
:10032000641E01F8016BF9D113F0080F1EBF10F81D
:10033000014BAD1C0C1B09D16D1E58BF01F801CB40
:10034000FAD505E014F8016B01F8016B6D1EF9D5C3
:100350009142D6D37047000070470000002300246C
:1003600000250026103A28BF78C1FBD8520728BFC5
:1003700030C148BF0B6070476E2900F0BA85702904
:1003800001F02381662908F0A489652908F0A18974
:10039000672908F09E89612908F09D8903681B0A76
:1003A00028BF41F08001692900F0C081642900F074
:1003B000BD81752900F0BA816F2901F0B1807829DB
:1003C00001F0EF80E92901F04B80E42901F0488039
:1003D000F52901F04580EF2901F0AE80F82901F000
:1003E000EE800368DB0928BF41F08001632900F03B
:1003F000CD87732900F0D287E32901F08D83F3299B
:1004000001F09283002070471FB588F055F901F084
:1004100069F904000020002188F022F9401C606086
:100420000020002188F032F9E0601FBD10B510BD3A
:1004300001F0D2FD1146FFF7E7FF71F0A5FB01F0D7
:10044000F0FD03B4FFF7F2FF03BC01F0F3FD000081
:100450000948804709480047FEE7FEE7FEE7FEE758
:10046000FEE7FEE7FEE7FEE7FEE7FEE70448054994
:10047000054A064B7047000019CB01089902000895
:1004800068BB002068DD002068CB002068CB00201E
:1004900053EA020C00F069802DE9F04B4FF00006A2
:1004A000002B1FBFB3FA83F503FA05F424FA05F60F
:1004B0005E4012BF1643B2FA82F502FA05F4C5F1A6
:1004C00020051EBF22FA05FC44EA0C04203556EA3A
:1004D000044C4FEA144418BF641C4FF000084FF05E
:1004E0000009904271EB030C39D3002919BFB1FA0E
:1004F00081F701FA07F6B0FA80F700FA07F6C7F1BC
:1005000020071EBF20FA07FC46EA0C062037B6FB80
:10051000F4FCA7EB0507103F07F01F0BCBF12006FB
:100520002CFA06F60CFA0BFB44BFB3460026202F2C
:10053000A4BF5E464FF0000B5BEA060C08BF4FF00D
:10054000010B19EB0B0948EB0608ABFB027C06FB21
:1005500002CC0BFB03CCC01B71EB0C01C1E70B46BB
:10056000024641464846BDE8F08B13B5084318BF24
:100570004FF0FF300146AFF30080BDE81C407047EC
:1005800053EA020C23D010B54C1084EA530404D56E
:100590004042C1F1000138BF491E1B4204D55242FE
:1005A000C3F1000338BF5B1EFFF772FF14F0804FEA
:1005B00004D04042C1F1000138BF491E14F0004F81
:1005C00004D05242C3F1000338BF5B1E10BD13B507
:1005D00040424FF0000070EB0104B8BF012001F071
:1005E000004100281CBF6FF000414FF0FF30AFF317
:1005F00000801CBD10B5044600F008FC0068005DDA
:10060000C00602D504F1200010BD204610BD000038
:100610007CB51D4616460C00009007D04142A14211
:1006200002D32044401E01E04FF0FF30064B7B44D4
:100630002A4669460190304600F083FE002C02D025
:10064000009A002111707CBD370D00000FB41CB55D
:100650000C0007AA009007D04142A14202D32044D7
:10066000401E01E04FF0FF30074B7B44694601908C
:10067000069800F066FE0021002C01D0009A11704F
:100680001CBC5DF814FB0000FB0C000070B50446B8
:1006900085690068C10601D5302600E02026C00724
:1006A00007D070BDD4E9012130469047206A401C34
:1006B00020626D1EF6D570BD70B504468569007860
:1006C000C00707D170BDD4E9012120209047206ADE
:1006D000401C20626D1EF6D570BD70B50C460546F7
:1006E000012A05D02878800600D5EA69002302E0B7
:1006F000012305E05B1C934202D2E05C0028F9D1A3
:10070000A869E618C01AA861286A18442862284611
:10071000FFF7BCFF04E0D5E9012114F8010B904775
:10072000B442F8D32846FFF7C7FF70BD2DE9F0416A
:100730000646002410687529314616A510D000F031
:100740006DFB002802DA404213A507E031688A07F2
:1007500001D512A502E0490704D511A5012401E045
:1007600000F065FB00210A2206F1240709E0B0FB36
:10077000F2FCB0FBF2F302FB1C0030307854184658
:10078000491C0028F3D123462A463046BDE8F041F3
:1007900000F056BB000000002D0000002B00000000
:1007A000200000002DE9F05F894604464FF0000A62
:1007B000DFF874B1FB44C0F820A02046E168884708
:1007C000002874D0252806D0D4E901219047206A5A
:1007D000401C2062F1E700265F462046E16888471A
:1007E0002028054607DB312D05D2781910F8200C9A
:1007F00008B10643F1E7B00701D526F00406C4F8B6
:100800001CA00027C4F818A02A2D09D0284687F07C
:100810001FFF38B304EB8708303DC8F8185019E0C3
:1008200059F8041B204604EB87029161E168884770
:10083000012F054618D1E069002820DA26F02006AD
:100840001DE0D8F8180000EB800005EB40003038C0
:10085000C8F818002046E1688847054687F0F8FE8A
:100860000028EED1012F0AD02E2D08D12046E168B4
:1008700088477F1C0546022F46F02006C4DBA0698E
:10088000002803DA404246F00106A061F00701D0DB
:1008900026F010066C2D0BD0682D09D04C2D39D0C8
:1008A0006A2D35D0742D35D07A2D33D016E038E04E
:1008B000E1682F4620468847B842054609D16C2F8B
:1008C00026D04FF48060E1680643204688470546FD
:1008D00004E06C2F1AD04FF4807006430DB3A5F1DD
:1008E0004100192802D8203546F400664A462946B8
:1008F000204626604E46FFF73FFD80B101280BD011
:10090000F61D26F0070000F1080956E74020E4E74D
:100910008020D8E70020D6E706F104094DE72846F5
:1009200052E7206ABDE8F09F227F08000FB400B5AF
:100930008DB010A9099000910B904FF0FF300A90F4
:1009400000200C90064878440690064878446A4691
:1009500007900F9909A800F057FE0DB05DF814FB41
:10096000DF0C0000F70C00002DE9FF5F1D464FF083
:10097000FF3B91464FF000085F46D5E90146A96963
:1009800001987F1C8847296A824688470028F6D14B
:10099000BAF1FF3F0CD0002E24F4C06419DD6006CC
:1009A00014D5BAF12B0F09D0BAF12D0F0ED103E0F7
:1009B000584604B0BDE8F09F44F48064A9690198EA
:1009C0007F1C8847761E8246002E02DDBAF1300F6A
:1009D00003D0B9F1000F26D032E0A969761E019844
:1009E0007F1C44F400748847002E824605DDBAF16E
:1009F000780F06D0BAF1580F03D0B9F1000F10D01C
:100A00001EE0B9F1000F02D0B9F1100F18D1A96999
:100A1000761E01987F1C24F40074884782461020BB
:100A200002E0082000E00A20814609E0A96908FBED
:100A30000908761E01987F1C44F40074884782469A
:100A4000002E05DD4946504600F0CAFD0028EDDACB
:100A5000E96901988847A00502D46FF00100A8E772
:100A6000E00725D1600613D5600502D5C8F1000066
:100A700000E0404629680A1D2A600968220501D560
:100A8000087015E0220701D5088011E008600FE02A
:100A90002868011D29600068210502D580F80080C2
:100AA00006E0210702D5A0F8008001E0C0F8008030
:100AB00038467EE740EA010310B59B070FD1042AB0
:100AC0000DD310C808C9121F9C42F8D020BA19BA19
:100AD000884201D9012010BD4FF0FF3010BD1AB17E
:100AE000D30703D0521C07E0002010BD10F8013BD3
:100AF00011F8014B1B1B07D110F8013B11F8014BFA
:100B00001B1B01D1921EF1D1184610BD10B5431C1C
:100B100002E010F8011B71B18107FAD14FF00132E8
:100B200002C88C1A8C4314EAC211F9D0C01A0A0602
:100B300003D0C01E10BDC01A10BD0A0401D0801E13
:100B400010BD0902FCD0401E10BDCBB22AB1017805
:100B50008B4203D0401C521EF9D100207047032A5B
:100B600040F2308010F0030C00F0158011F8013BCA
:100B7000BCF1020F624498BF11F801CB00F8013BB1
:100B800038BF11F8013BA2F1040298BF00F801CB75
:100B900038BF00F8013B11F0030300F06780083A0A
:100BA000C0F0088051F8043B083A51F804CBA0E8A3
:100BB0000810F5E7121D5CBF51F8043B40F8043BF8
:100BC000AFF30080D20724BF11F8013B11F801CB2D
:100BD00048BF11F8012B24BF00F8013B00F801CBFE
:100BE00048BF00F8012B7047431A28BF9A427FF68E
:100BF000B6AF10441144032A40F2268010F0030FD0
:100C00001EBF11F8013D521E00F8013D10F0030F08
:100C10007FF4F6AF11F0030300F03985083AC0F015
:100C20000B8051F8043D083A51F804CD40F8043DDA
:100C300040F804CDFFF7F3BF121D5CBF51F8043D2F
:100C400040F8043DAFF30080D20724BF11F8013D06
:100C500011F801CD48BF11F8012C24BF00F8013D67
:100C600000F801CD48BF00F8012C704710B5203ABC
:100C7000C0F00B80B1E81850A0E81850B1E8185047
:100C8000A0E81850203ABFF4F5AF5FEA027C24BF19
:100C9000B1E81850A0E8185044BF18C918C0BDE802
:100CA00010405FEA827C24BF51F8043B40F8043BCB
:100CB00008BF7047D20728BF31F8023B48BF11F880
:100CC000012B28BF20F8023B48BF00F8012B7047DA
:100CD00002F0FF0343EA032242EA024200F00AB8AC
:100CE00002F0FF0343EA032242EA024200F024B882
:100CF0004FF000020429C0F0128010F0030C00F045
:100D00001B80CCF1040CBCF1020F18BF00F8012BC2
:100D1000A8BF20F8022BA1EB0C0100F00DB85FEA90
:100D2000C17C24BF00F8012B00F8012B48BF00F85C
:100D3000012B70474FF0000200B5134694469646CB
:100D4000203922BFA0E80C50A0E80C50B1F12001DE
:100D5000BFF4F7AF090728BFA0E80C5048BF0CC08C
:100D60005DF804EB890028BF40F8042B08BF7047EA
:100D700048BF20F8022B11F0804F18BF00F8012B5C
:100D8000704700000000000030B44FF0013C50F804
:100D9000042BCCFA52F451F8043BD51A20D1FCB9FB
:100DA00050F8042BCCFA52F451F8043BD51A17D161
:100DB000B4B950F8042BCCFA52F451F8043BD51ACC
:100DC0000ED16CB950F8042BCCFA52F451F8043B14
:100DD000D51A05D1002CDAD030BC4FF00000704796
:100DE00029BAB1FA81F111F01801D1F12000844043
:100DF000F2D1CA40CB4012F0FF0213F0FF0330BC27
:100E0000D01A7047704770477047000010B500F067
:100E100069FC001D10BD00BF4978080009684A053B
:100E200001D540B27047C905FCD500B270470968CA
:100E30004A0501D5C0B27047C905FCD580B27047DC
:100E40002DE9F0470D4699469246044600F12408E4
:100E50000168880604D5E06921F01001216000E0F6
:100E60000120A84201DD471B00E00027A1697A1993
:100E700002EB0900081AA0612078C00602D42046BF
:100E8000FFF704FC002608E0D4E901211AF8060067
:100E90009047206A401C761C20624E45F4DB207887
:100EA000C0060AD52046FFF7F1FB06E0D4E9012190
:100EB00030209047206A401C2062381EA7F10107AD
:100EC000F4DC07E0D4E9012118F805009047206A16
:100ED000401C2062281EA5F10105F3DC2046FFF727
:100EE000EBFB2078000602D50220BDE8F087012048
:100EF000FBE711680268006A530501D508700AE033
:100F0000D30501D5088006E0130603D5C217C1E951
:100F1000000200E00860012070472DE9FF4F0C46F9
:100F20001E464FF0FF378BB0D2E90001DDF860803C
:100F30000A908A46C1F30A5505B93D460021084684
:100F40004FF00000BAF1000F00F4400005DA00EBAA
:100F500080004FF4400101EA50004FEA9059B9F186
:100F6000010F00DDB9460A9850EA4A000ED044F657
:100F70001050A5F2FF3545432F14B8F1000F1ED0D5
:100F80007542291E1EDDC9F100021CE0B8F1010FF7
:100F90004FF0000001D0302103E0F24305E021547E
:100FA000401CB042FBDB30460022002121540B994B
:100FB000C1F80880C1E900200FB0BDE8F08FBD1B6B
:100FC0006D1CDEE74A4600DA694206A800F06AFFB7
:100FD00006AB93E8070003AB83E8070050460A9985
:100FE00086F056FF8DE80700A0F500501F380090EE
:100FF0000398002D0ADD42F21F014A4608440023EF
:1010000003A90390684687F0BFF909E0A0F50050F6
:101010004A461F38002303A90390684687F0C9F9A0
:101020008DE807000004000C03D04FF0FF304108AA
:1010300000E01046B8F1000F03D0002200921546E0
:101040001EE0751E05D400F051FB303262556D1E56
:10105000F9D5B3460122084302D000227F1C04E0E8
:101060002078302801D100227F1E002A099784D0E1
:101070001DE0112D07DA00F039FB303262556D1C8E
:1010800050EA0102F5D1084302D00098C8B10EE041
:101090000021681E05E0235C625C63542254401EFC
:1010A000491C8142F7DBAB46A81B401E099000207B
:1010B00004F80B000B98099AC0F80880C0E9002BCF
:1010C0007AE711264FF0000857E72DE9F04F8846E0
:1010D0000446D21D22F0070191B0D1E90001CDE90B
:1010E0000A0187F09DFA02460B98C00F01D02D200F
:1010F00007E02068810701D52B2002E0202101EACA
:10110000C000032A099001D0072A05DB03464146A7
:10111000204600F0B7FC0BE12078800601D5E0699D
:1011200000E00620B8F1650F814606D0B8F1660FE1
:1011300018D0B8F1670F70D131E00020B9F1110F6C
:10114000009001DB112301E009F101030AAA01A9C2
:101150000CA8FFF7E2FEDDE90C70002609F101059D
:10116000834647E001204B4600904FF000470AAA13
:1011700001A90CA8FFF7D1FEDDE90DB00C995D4681
:10118000002610B909F101000D18B9EB050003D4D0
:10119000C0F1FF3609F10105A5EB09002BE0B9F11B
:1011A000010F01DA4FF001090020B9F1110F009091
:1011B000484601DD112300E003460AAA01A90CA854
:1011C000FFF7ABFEDDE90C704D4600268346207824
:1011D00000070AD4AB4500DA5D4601A8012D04DD05
:1011E000411911F8011C302907D04F4502DA17F1D7
:1011F000040F04DA012082460FE06D1EEEE7002F97
:1012000002DCED1B3E4403E0781CA84200DD7D1C9F
:10121000B81B00F1010A4FF000472078000703D403
:10122000AA4501DB4FF0FF3A0021B7F1004F0DF165
:1012300043088DF8431024D002202B23002F01DA1D
:101240007F422D230A21021EA0F1010000DC5FB1C4
:1012500097FBF1FC97FBF1F201FB1C7C17460CF1AC
:10126000300C08F801CDEEE7A8F1010003702188E9
:10127000090501D5452100E06521A0F1010800F82C
:10128000011C09980FA9A1EB0807FF1D00B101205F
:10129000411901EBEA70A1693844081A401EA061A7
:1012A0002078C00602D42046FFF7F0F9099828B14B
:1012B000D4E901219047206A401C20622078C006B2
:1012C00022D52046FFF7E2F91EE0002E04DBB345ED
:1012D00002DD01A8805D00E03020D4E901219047C3
:1012E000206A401C2062761CAAF101005FEA000A15
:1012F0000AD100F0F7F9C0680168405CD4E9012127
:101300009047206A401C2062281EA5F10105DCDC04
:1013100007E0D4E9012118F8010B9047206A401C2E
:101320002062381EA7F10107F3DC2046FFF7C4F95D
:10133000032011B041E6000001694A1C02610878EF
:10134000704700B58FB0CDE9013100210591054905
:101350007944CDE9031011466846FFF723FA0FB030
:1013600000BD0000E5FFFFFFD1E900239A4202D251
:10137000531C0B601070704710B5436913B1AFF385
:10138000008001E0FFF7A9F9012010BD127800F1FB
:1013900024010A7000224A700122EDE711684FF023
:1013A000FF32E9E72DE9FF5F15468A460446DFF87C
:1013B000AC80F8440027D8E900103E46CDE9001083
:1013C00010E03AF816106A4602A800F0DDFD411C54
:1013D00007D02178890603D5E269391891420DD8E2
:1013E0000744761C2078800602D5E069B84205DD06
:1013F000AE42E6DB3AF816000028E2D1A069C01B35
:10140000A0612046FFF742F9D8E90010CDE90010AD
:10141000002017E03AF818106A4602A800F0B4FD60
:10142000B0F1FF3F81460BD000250DF1080B05E020
:10143000D4E901211BF8050090476D1C4D45F7D3F9
:1014400008F10100B0428046E4DB206A38442062A3
:101450002046FFF731F9BDE8FF9F00003673080012
:101460002DE9F0418046D21D22F007020025D2E985
:101470000002F52915A614D0011E72F1000106DA4A
:101480000023D0EB030063EB020211A608E0D8F8BA
:1014900000108B0701D50FA602E0490701D50EA663
:1014A00001251146002408F1240704E000F01EF98C
:1014B00030323A55641C50EA0102F7D12B463246CD
:1014C00021464046BDE8F041FFF7BABC00000000ED
:1014D0002D0000002B0000002000000030B400218F
:1014E00000F1240408E002F00705D208303542EA92
:1014F0004372DB086554491C52EA0305F3D10468C2
:10150000002310A2250708D504F020040C4304D0C2
:10151000C46901230CA2641EC46130BCFFF790BCF7
:1015200010B5044621461068FFF781FC02462046AC
:10153000BDE810400023D1E7D21D22F00701D1E918
:101540000023CBE70000000030000000F0B40D469F
:101550000188090502D5214C7C4402E01F4C7C44E3
:101560000E34002100F1240608E002F00F071209F2
:10157000E75D42EA03721B097754491C52EA0307EC
:10158000F3D102780023120704D5702D06D009B1DB
:10159000022311342246F0BCFFF752BC0123103461
:1015A000F8E770B504460D4621461068FFF73FFC8A
:1015B000024629462046BDE870400023C6E7D21DFA
:1015C00022F00703D3E90023C0E70368126843F061
:1015D000200303600823C3610023B7E79871080064
:1015E0003A2800D2303820F02002412A01D3A2F15B
:1015F0003700884201D34FF0FF3070470268114432
:101600001378016018467047D160054979445161EB
:1016100004497944116200211161114600F088BA31
:10162000EDFFFFFF61010000426842B1016811F85F
:10163000013B23B1521EC0E9001218467047012138
:10164000C160881E704742685AB1C368016843B9D7
:1016500083688B4205D0491E521CC0E9001200204D
:1016600070474FF0FF307047431A28BF9A427FF609
:10167000FDAA1044114410F0030F1EBF11F8013DE4
:10168000521E00F8013D10F0030F7FF4F6AF103A40
:10169000C0F00A8010B531E9185020E91850103A0E
:1016A000BFF4F9AFBDE81040530724BF31E908107B
:1016B00020E9081044BF51F8043D40F8043D12F001
:1016C000030F08BF7047D20728BF31F8023D48BF5B
:1016D00011F8012C28BF20F8023D48BF00F8012C6A
:1016E00070470000004870476008002030B5B0F136
:1016F0000A0271F100034FEA900E4EEA817EB0EBD0
:101700000E0061EB91014FEA101E4EEA017E10EBD4
:101710000E0041EB11114FEA102E4EEA016E10EB54
:101720000E0041EB11214FEA104E4EEA014E10EB34
:101730000E0041EB1141401841F100014FEAD00089
:1017400040EA41704FEAD1014FEA810444EA9074C3
:1017500010EB800544EB01046D1944EB0404521BAB
:10176000A3414FF0000348BF0A3200D530BD401CF2
:1017700041F1000130BD10B50446FFF747FB00689A
:10178000005D00F0010010BD2DE9F04F04460D464C
:10179000D21D22F0070089B0D0E9009748463946AB
:1017A00086F03EFF0246F80F01D02D2307E02068A7
:1017B000810701D52B2302E0202101EAC0038DF827
:1017C00020300BB1012000E00020032A824601D026
:1017D000072A04DB2946204600F054F93FE120782F
:1017E000800601D40D2500E0E569C7F30A560D2DEA
:1017F00049DA00214FEA175B08464FF00000002F3E
:1018000000F4400007DA00EB80004FF4400100EBE9
:10181000D07001EA60008115012901DD4FF0FF3130
:1018200000224FEA850CBCF1180F06D31346ACF129
:1018300018004FF08052C24003E04FF4801323FAA7
:101840000CF30CF10C0CBCF1200F04D3ACF1200C08
:1018500009FA0CF001E007FA0CF000294FF00048FB
:1018600001DD18B90FE00ED140450CD319EB020988
:101870005F4121B9404502D19F4329EA0209BBEBF0
:10188000175F00D0761C2088000502D57B4878447D
:1018900002E07A487844193808AA302302F80A305E
:1018A000037C0AF10101002E0AF1020A53546A4630
:1018B00002DC4FF0300101E04FF031014FF0010840
:1018C0008DF8001002D0A6F2FF3603E059EA470176
:1018D00000D06B4E002D02DC2178090704D54FF0B3
:1018E00002082E218DF80110C44600210BE0C7F339
:1018F00003433F01C35C491C6D1E02F808300529F3
:1019000008F1010801DA002DF1DC00210CE000EB08
:101910001973491C1B786D1E082902F808304FEA1C
:10192000091908F1010801DA002DF0DC21688B06A5
:1019300002D516E0A8F10108E04505DD02EB080339
:1019400013F8013C302BF5D0B8F1000F09DD02EBA4
:10195000080313F8013C2E2B03D1090701D4A8F189
:101960000108002D05DD3E2102F808106D1E08F16A
:101970000108407C002E02F8080008F1010804DA92
:101980002D20764202F8080002E02B2002F8080021
:101990000A214FF47A70864208F101080BDB96FBAE
:1019A000F0F3303302F8083096FBF0F308F1010849
:1019B00000FB136601E0642E0CDB642096FBF0F361
:1019C000303302F8083096FBF0F308F1010800FB11
:1019D000136601E00A2E06DB96FBF1F0303002F8C8
:1019E000080008F1010896FBF1F001FB10603030AF
:1019F00002F80800A16908F1010808EB050202EBF2
:101A00000A00081AA0612078C00602D42046FEF71A
:101A10003DFE216A08AE01EB0A00206204E0D4E931
:101A2000012116F8010B9047BAF1010AF7D220788C
:101A3000C00602D52046FEF729FE6E4609E016F8DC
:101A4000010B3E280FD0D4E901219047206A401CA9
:101A50002062B8F10108F2D22046FEF72DFE09B04F
:101A60000320BDE8F08F206A2844206203E0D4E917
:101A70000121302090476D1EEBD3F8E79D6E0800E2
:101A800002FCFFFF2DE9F0411F46044603260168D2
:101A9000072A01F4006004DB08B116A505E016A5CD
:101AA00003E008B115A500E015A521F010002060A5
:101AB000A069C01EA0610FB1401EA0612046FEF7C4
:101AC000E5FD4FB1D4E9012138469047206A401C1A
:101AD0002062C01C206206E0206AFAE7D4E90121F6
:101AE00015F8010B9047761EF8D22046FEF7E4FD6C
:101AF000BDE8F0814E414E006E616E00494E4600D9
:101B0000696E660010B5436913B1AFF3008001E060
:101B1000FFF748FC012010BD128800F124018284E7
:101B20000022C2840122EDE711684FF0FF32E9E79D
:101B30002DE9F34F4FF0000A0C4656468DB00120B8
:101B40000C9001F10C000B9062690B9801219047F9
:101B5000051E2DD0252D2CD0216A8847C0B1626981
:101B60000B9801219047216A88470028F7D16269C4
:101B7000411E0B98904700E0761CA1690D9888479C
:101B8000216A88470028F7D1E1690D988847DBE78B
:101B9000A1690D988847A842074601D1761CD3E772
:101BA000E1690D9888477F1C02D1BAF1000F6FD010
:101BB0006BE162690B9800273D46394690472A2819
:101BC00004D162690B98012190470125DFF8D0828A
:101BD00062690B9801219047A0F130010A290AD2CD
:101BE0004745E5DC07EB870100EB4107303FDFD4D9
:101BF00045F01005ECE7E90601D46FF000476C28CA
:101C00000AD04C2814D0682815D06A280DD0742822
:101C10001CD07A281AD01DE062690B9801219047E8
:101C20006C2802D045F0040514E045F002050DE0F3
:101C300045F020050AE062690B9801219047682869
:101C400002D045F0080505E045F4006562690B988F
:101C500001219047C4E9015765283DD019DC582877
:101C60007AD00CDC452837D004DC252826D0412842
:101C70009ED131E046282FD0472899D12CE05B280F
:101C800077D0612828D063287CD0642823D15AE0FB
:101C9000F6E06F2848D008DC66281DD067281BD0E6
:101CA000692821D06E2816D127E0702845D07328E6
:101CB00068D0752847D078280DD14DE0A1690D98DE
:101CC0008847252805463FF469AFE1690D988847A4
:101CD0006D1C3FF46AAFD8E00D9923466A466FF059
:101CE0000100AFF30080C5E045F0400023464FF00F
:101CF00000026060A80736D43EE0E8077FF447AFF3
:101D00002068011D21600068290501D506701BE7C8
:101D1000290701D5068017E7A90703D5F117C0E900
:101D2000006111E706600FE745F0400023464FF0E1
:101D300008026060A80716D41EE040F60E0125EAEE
:101D40000100606016E045F0400023464FF00A02B3
:101D50006060A80707D40FE045F040006060A80766
:101D600008D5234610220D996FF00100AFF30080D3
:101D700080E007E0102223460D996FF00100FEF786
:101D8000F3FD77E04FF0000963284F46C8464B4605
:101D9000CB4602D05B2806D038E0E80601D401200B
:101DA000A060012732E06269D4F80CB00B980121E1
:101DB00090475E2807D14FF0010949466269D4F87F
:101DC0000CB00B989047216939B900210A4603AB42
:101DD00043F82120491C0829FADBD8B3216949B30B
:101DE00008F1010862690B98012190475D28F4D140
:101DF000B9F1000F09D0002003A951F82020D243E7
:101E000041F82020401C0828F7DB03AB206900289C
:101E100020794FEA40701ED05B462246CDF8008004
:101E2000CDE901970D9900286FF0010020DAAFF39A
:101E300000801FE0C11703AA00EBD1614B1121F014
:101E40001F0102EB8302411A1368012088400343FB
:101E50001360C7E719E00D99224600286FF00100D2
:101E6000009702DAAFF3008004E0AFF3008001E0F6
:101E7000AFF3008000280ADA401C06D10C9820B18C
:101E80004FF0FF300FB0BDE8F08F5046FAE7E9079A
:101E900001D10AF1010A064400200C9054E600002A
:101EA000CCCCCC0C2DE9F047814616468AB035489B
:101EB00078440DC88DE80D0032487844801C03AC8E
:101EC0000DC884E80D0041F69B300844372190FB93
:101ED000F1F290FBF1F5A5F1800501FB12041B3C2A
:101EE00002D56442012000E00020DFF898A080467F
:101EF0000027FA44AAF1BE0A0EE0E0070AD03246F3
:101F0000684607EB470101230AEB810186F051FA8D
:101F10008DE8070064107F1C002CEED1194F7F4420
:101F2000AE3F19E0E80715D007EB04100DF1180AD1
:101F300090E80E008AE80E00C068F04201D19819BE
:101F400008903246012306A903A886F032FA03ABB3
:101F500083E807006D10641C002DE3D14FF00103EE
:101F600032466946B8F1000F03A802D086F00CFA99
:101F700001E086F01EFAC9E90001C9F808200AB09C
:101F8000BDE8F0870C6908002DE9F04116460C46C3
:101F90000546FEF73BFF036893F80101012807D0CF
:101FA000FF2C12D8185D80B101202C70BDE8F081A3
:101FB000D3F807013246214603F20713C718284613
:101FC000BC46BDE8F041002360474FF0FF30EDE72D
:101FD00000487047400800207546FFF7F9FFAE46FD
:101FE00005006946534620F00700854618B020B525
:101FF000FEF73CFABDE820404FF000064FF0000726
:102000004FF000084FF0000BAC46ACE8C009ACE85C
:10201000C009ACE8C009ACE8C00921F007018D4651
:10202000704710B50446AFF300802046BDE810406D
:10203000FEF707BA01491820ABBEFEE726000200F2
:102040007047000000000000B0B50446006842F28E
:10205000001140F48070C4F20201884218D142F2AB
:102060000830C4F20200006810F4403F18D007F0B6
:10207000BFFE61680546B1F5803F05D0B1F5403F30
:102080002CD0B1F5003F2AD1080CB5FBF0F526E0C5
:1020900046F20830C5F60200006810F4403FE6D171
:1020A0004FF40020002106F0C3FD61680546A1F54C
:1020B00080224FEAB2420A2A11D8DFE802F007076D
:1020C0000707070755535951570000BF6FF001002C
:1020D00000EA5140B5FBF0F501E000BFAD0804F0A7
:1020E00007F941F2030188420ED8206842F60151F7
:1020F000C0F231118D4281682CBF41F4807121F40E
:1021000080718160B0BD00BF4BF62140C0F2BE00BF
:10211000854205D82068816821F440718160B0BD96
:1021200047F64100C0F27D10854207D820680122A1
:10213000816862F309218160B0BD00BF20684FF261
:102140008101C0F2FA218D42816805D8022262F332
:1021500009218160B0BD00BF41F440718160B0BD14
:10216000ED09BCE76D09BAE72D09B8E72D0AB6E716
:10217000AD09B4E700000000F0B581B00446006886
:102180008168C9074AD14FF6C0778168C7F6FF77E3
:1021900007F17F0211420BD0606D40F010006065C6
:1021A000A06D40F00100A065012001B0F0BD00BFAE
:1021B0008168394041F00101816004F0A1F842F2E8
:1021C000000246F20836C4F20202216802F580736A
:1021D00002F54275C5F60206994208BF2E469142A5
:1021E00008BF2E4699420546306814D110F01F00F2
:1021F00014D110E08868C00704D18868384040F0E6
:102200000100886004F07CF8401B2168032802D399
:102210000868C007C0D00868C007EBD0002001B034
:10222000F0BD000000000000F0B5DDF818E0DDF8BA
:102230001CC00EF107060CF10705F6080660EC0855
:102240000C600668002E18BFEE080E600EB900255F
:1022500005600EF10305EE0846604C604668002EEE
:1022600008BF34464C600CB900244460AC0884605C
:102270000CF10304E5088D608568002D18BFE508A2
:102280008D600DB9002585600EF10105AE08C660B0
:10229000A608CE60C668002E18BFA608CE600EB98C
:1022A0000024C4606C0804610CF10104A5080D61F0
:1022B0000569002D18BFA5080D610DB90025056140
:1022C0004FEA5E05456165084D614569002D18BFFF
:1022D00065084D610DB900244461C0F818E04FEA6B
:1022E0005C068E618669002E18BF4FEA5C06DDF839
:1022F00014C08E610EB9002686610024CCF800401F
:102300001C60DDF820E01460056855B10C683CB134
:1023100005FB0EF50126073506EBD5056C4300E0FD
:102320000024546004680D681E6804FB0EF4073432
:10233000E40804FB05645C600C68056804FB0EF4AB
:102340006C43DCF80050073405EBD404CCF80440AF
:102350004568546855B14E6846B105FB0EF5012736
:10236000073507EBD505754301E000BF00252C4478
:10237000946044684D685E6804FB0EF40734E4081A
:1023800004FB05649C604C68456804FB0EF46C43D8
:10239000DCF80450073405EBD404CCF80840856819
:1023A00094684DB18E683EB105FB0EF501270735E7
:1023B00007EBD505754300E000252C44D460846804
:1023C0008D689E6804FB0EF40734E40804FB056482
:1023D000DC608C68856804FB0EF46C43DCF8085004
:1023E000073405EBD404CCF80C40C568D4684DB173
:1023F000CE683EB105FB0EF50127073507EBD50585
:10240000754300E000252C441461C468CD68DE6883
:1024100004FB0EF40734E40804FB05641C61CC687B
:10242000C56804FB0EF46C43DCF80C50073405EB74
:10243000D404CCF81040056914694DB10E693EB161
:1024400005FB0EF50127073507EBD505754300E0C1
:1024500000252C44546104690D691E6904FB0EF4C7
:102460000734E40804FB05645C610C69056904FB3E
:102470000EF46C43DCF81050073405EBD404CCF8B0
:102480001440456954694DB14E693EB105FB0EF5E6
:102490000127073507EBD505754300E000252C44DF
:1024A000946144694D695E6904FB0EF40734E408E5
:1024B00004FB05649C614C69456904FB0EF46C43A4
:1024C000DCF81450073405EBD404CCF818408569C7
:1024D00094694DB18E693EB105FB0EF501270735B4
:1024E00007EBD505754300E000252C44D4618269D3
:1024F0008C699D6902FB0EF20732D20802FB04527E
:10250000DA618969806901FB0EF14843DCF8181033
:10251000073001EBD000CCF81C00F0BD000000003B
:1025200043F63E6003A1C0F612000EF0C1FD00BFED
:10253000FEE700BF4275734661756C745F48616E5B
:10254000646C6572000000002DE9F04782B040F62F
:102550001429C2F20009D9F80430002B1CBF02B0C4
:10256000BDE8F08792460D4663F096F8294652463C
:10257000C9F8040068F0E8F8D9F8040062F06CFFCC
:10258000D9F8046000210022304668F0B5F9002136
:102590000022304668F0B8F900210022304668F089
:1025A000C3F900210022304668F096F9D9F80400FA
:1025B0000021002268F0C0F9D9F8040000210022AF
:1025C00068F0C2F9D9F804000021002268F02CF963
:1025D00044F64C41D9F80400C0F60D01002268F021
:1025E00013F9D9F80400102167F02AFAD9F8040089
:1025F0005DF08AFC40F6B061C9F80800C0F60F0132
:102600005EF0B6FAD9F808006FF01A01A02268F05F
:1026100023F8D9F808004FF4D2715EF091FAD9F896
:1026200008006421002268F04FF9D9F81C0028B195
:10263000D9F80C00002840F0658290E1D9F8040038
:1026400063F02AF829465246C9F81C0068F07CF865
:10265000D9F81C0062F000FFD9F81C6000210022AC
:10266000304668F049F900210022304668F04CF904
:1026700000210022304668F057F900210022304640
:1026800068F02AF9D9F81C000021002268F054F9FA
:10269000D9F81C000021002268F056F9D9F81C0076
:1026A0000021002268F0C0F8D9F81C0000210022A7
:1026B00068F0B2F8D9F81C00102167F0C1F9D9F818
:1026C0001C0062F0E9FFBC213722C9F8140068F051
:1026D0003BF8D9F81400052100226FF0400362F0A6
:1026E00047F9D9F814000021002268F095F8D9F8CC
:1026F000146000210022304668F0FEF8002100221C
:10270000304668F001F900210022304668F00CF9EB
:1027100000210022304668F0DFF8D9F814000021CB
:10272000002268F009F9D9F814000021002268F0AD
:102730000BF9D9F814000021002268F075F8D9F8D7
:102740001400102167F07CF9D9F814005EF098FEAF
:1027500044F25A010746C0F6120160F081F8BC212C
:102760000C22384667F0F0FF022100220023384691
:1027700062F0FEF86FF07F4038F072FF20F07F418A
:102780000022384668F0F0F847F23C380022C0F6E4
:102790000F083846414668F0EFF80121002238461C
:1027A00068F0DAF8D9F814005EF06AFE0FF2AC4176
:1027B000064660F055F8BC210C22304667F0C4FF95
:1027C0000E220023304639460624009462F000F9B8
:1027D0006FF07F4038F044FF20F07F410022304608
:1027E00068F0C2F800223046414668F0C5F8012181
:1027F0000022304668F0B0F8D9F814005EF040FED0
:102800000FF28C41074660F02BF8BC210C223846B1
:1028100067F09AFF0E22002338463146009462F09A
:10282000D7F86FF07F4038F01BFF20F07F41002287
:10283000384668F099F800223846414668F09CF81E
:1028400001210022384668F087F8D9F81C005DF0B5
:102850005BFB4FF6D851C9F81000C0F60C015EF0D2
:1028600087F9D9F8100002210022162362F080F8BF
:10287000D9F81C0062F010FF73211E22C9F818005D
:1028800067F062FFD9F81800052100226FF01703E6
:1028900062F06EF84BF61C50D9F81860C0F2EC00EC
:1028A00038F0DEFE20F07F410022304667F0A4FFC2
:1028B000D9F818000821002268F03EF8D9F818600D
:1028C00000210022304668F017F80021002230462F
:1028D00068F01AF800210022304668F025F800213F
:1028E0000022304667F0F8FFD9F8180000210022D6
:1028F00068F02AF8D9F818000021002267F094FF48
:10290000D9F81800102167F09BF8D9F818005EF08C
:10291000B7FDEAA106465FF0A3FF092100220023CC
:10292000304662F025F86FF07F4038F099FE20F0D5
:102930007F410022304668F017F847F21831002234
:10294000C0F60F01304668F017F802210022304629
:1029500068F002F8D9F80C00002840F0D380D9F8CC
:10296000040062F099FE29465246C9F80C0067F04F
:10297000EBFED9F80C0062F06FFDD9F80C40002195
:102980000022204667F0B8FF00210022204667F0B1
:10299000BBFF00210022204667F0C6FF0021002275
:1029A000204667F099FFD9F80C000021002267F05B
:1029B000C3FFD9F80C000021002267F02DFFD9F8E1
:1029C0000C000021002267F0BFFFD9F80C000021A5
:1029D000002267F029FFD9F80C00102167F030F8C9
:1029E000D9F80C004C2100F08BF9C9F8280020B16F
:1029F00001210422322361F0BBFFD9F80C005221DF
:102A000000F07EF9C9F82C0028B103216FF0030211
:102A1000322361F0ADFFD9F80C0062F03DFE732166
:102A20001E22C9F8240067F08FFED9F82400052182
:102A300000226FF0170361F09BFF44F64A20D9F89B
:102A40002440C0F24A0038F00BFE20F07F41002203
:102A5000204667F0D1FED9F824000821002267F053
:102A60006BFFD9F8244000210022204667F044FF84
:102A700000210022204667F047FF00210022204667
:102A800067F052FF00210022204667F025FFD9F8A9
:102A900024000021002267F057FFD9F8240000210C
:102AA000002267F0C1FED9F82400102166F0C8FFAB
:102AB000D9F824005EF0E4FC44F24D010446C0F66F
:102AC00012015FF0CDFE092100220023204661F0B3
:102AD0004FFF6FF07F4038F0C3FD20F07F410022B0
:102AE000204667F041FF47F218310022C0F60F017F
:102AF000204667F041FF02210022204667F02CFFAC
:102B0000D9F80C00012161F0CFFD40F6F454C2F277
:102B10000004204633F074FED9F81010204634F03B
:102B20000BF84AF629282046C0F60608414633F03D
:102B3000DBFF6FF045011622204633F0F5FF4FF41E
:102B40004871204633F0C0FF46F639072046C0F6EC
:102B50000307394633F0CCFF45F6F1212046C0F695
:102B6000020133F0A5FF41F2D035C2F2000528463C
:102B700033F046FED9F81410284633F0DDFF28461E
:102B8000414633F0B1FF4FF6D4616FF04002CFF60B
:102B9000FF71284633F0C8FF4FF4FA71284633F02E
:102BA00093FF2846394633F0A3FF40F68C56C2F215
:102BB0000006304633F024FED9F81810304633F0C2
:102BC000BBFF3046414633F08FFF64216FF01302A4
:102BD000304633F0A9FF4FF4FA71304633F074FFFA
:102BE0003046394633F084FF40F6D477C2F200070E
:102BF000384633F005FED9F80810384633F09CFF0C
:102C00004AF6F1113846C0F6060133F06DFF6FF059
:102C100077016FF01A02384633F086FF4FF4967151
:102C2000384633F049FF4FF49661384633F04CFF95
:102C300046F6A9113846C0F6030133F059FF204685
:102C400033F0B6FF284633F0B3FF304633F0B0FF21
:102C5000384602B0BDE8F04733F0AABFC2B720E55E
:102C6000BC80E5A78BE5908EEFBC8CE8AFB7E5B0F4
:102C700086E68980E69C89E69187E69D86E68BA8B4
:102C8000E588B0E59084E696B9E5909100000000F3
:102C90002020E69C80E5A4A7E580BCEFBC8CE5B9CC
:102CA000B6E4BF9DE68C81E588B0E799BEE58886ED
:102CB000E6AF94E58F98E7BBBF000000E5BC80E578
:102CC000A78BE6A0A1E587860000000000000000B9
:102CD00010B540F61424C2F20004606828B162F016
:102CE000EBFC00206060E061E060206A002808BF23
:102CF00010BD6DF06DFD0020206210BD00000000D1
:102D00002DE9F04F81B08846522918BFB8F14C0F19
:102D100040F0088200284FF0000B00F0FF8162F0C5
:102D2000BBFC70217222044667F00EFD00210022D8
:102D3000204667F071FD00210022204667F0DCFD8F
:102D400000210022204667F0DFFD002100222046FE
:102D500067F0EAFD00210022204667F0BDFD00215A
:102D60000022204667F0E8FD00210022204667F09F
:102D7000EBFD00210022204667F056FD1021204681
:102D800066F05EFE204662F087FC3C21022205468A
:102D900067F0DAFC022100222D23284661F0E8FDCD
:102DA00044F64A29C0F24A09484638F059FC20F056
:102DB0007F410022284667F01FFD0021002228469F
:102DC00067F09AFD00210022284667F09DFD002152
:102DD0000022284667F0A8FD00210022284667F05F
:102DE0007BFD00210022284667F0A6FD002100227D
:102DF000284667F0A9FD00210022284667F014FD4F
:102E0000204662F049FC02213C22074667F09CFC08
:102E10000922002338462946CDF800B061F0D8FDDC
:102E2000484638F01DFC20F07F410022384667F00C
:102E3000E3FC00210022384667F05EFD00210022FD
:102E4000384667F061FD00210022384667F06CFDCE
:102E500000210022384667F03FFD0021002238465D
:102E600067F06AFD00210022384667F06DFD002101
:102E70000022384667F0D8FC204662F00DFC0C2199
:102E80000C22064667F060FC0922002330462946E2
:102E9000CDF800B061F09CFD6FF07F4038F0E0FBB2
:102EA00020F07F410022304667F0A6FC002100227E
:102EB000304667F021FD00210022304667F024FDF6
:102EC00000210022304667F02FFD0021002230460D
:102ED00067F002FD06210022304667F02DFD00213B
:102EE0000022304667F030FD00210022304667F0B6
:102EF0009BFC304662F0D0FB08210822064667F0B2
:102F000023FC0922002330462946CDF800B061F0A9
:102F10005FFD484638F0A4FB20F07F410022304698
:102F200067F06AFC00210022304667F0E5FC0021D2
:102F30000022304667F0E8FC00210022304667F0AE
:102F4000F3FC00210022304667F0C6FC0421002279
:102F5000304667F0F1FC00210022304667F0F4FCB7
:102F600000210022304667F05FFC20465EF088FAC0
:102F700044F248090646C0F6120949465FF070FC63
:102F80001B210822304667F0DFFB11226FF001039E
:102F900030462946CDF800B061F01AFD47F2843A78
:102FA0000022C0F60F0A3046514667F0E5FC6FF08C
:102FB0007F4038F055FB20F07F410022304667F01B
:102FC000D3FC03210022304667F0C6FC20465EF0A9
:102FD00057FA494606465FF043FC1B21082230465B
:102FE00067F0B2FB1422022330462946CDF800B028
:102FF00061F0EEFC00223046514667F0BDFC6FF0F8
:103000007F4038F02DFB20F07F410022304667F0F2
:10301000ABFC01210022304667F09EFC20465EF0AA
:103020002FFA494605465FF01BFC1B210822284663
:1030300067F08AFB0B2200236FF002000090284605
:10304000394661F0C5FC00222846514667F094FCE1
:103050006FF07F4038F004FB20F07F4100222846CB
:1030600067F082FC02210022284667F075FC2046AA
:103070005EF006FA494605465FF0F2FB1B21082286
:10308000284667F061FB0E220023042000902846AA
:10309000394661F09DFC00222846514667F06CFCE1
:1030A0006FF07F4038F0DCFA20F07F4100222846A4
:1030B00067F05AFC02210022284667F04DFC2046AA
:1030C0005EF0DEF91AA21DA1B8F14C0F054608BF4B
:1030D00011465FF0C5FB32210C22284667F034FB15
:1030E000052100220023284661F042FC47F26031AE
:1030F0000022C0F60F01284667F03EFC6FF07F40CB
:1031000038F0AEFA20F07F410022284667F02CFC10
:1031100002210022284667F01FFCA346584601B052
:10312000BDE8F08F4FF0000B584601B0BDE8F08FBE
:10313000E5B7A6E69187E69D86000000E58FB3E639
:103140009187E69D8600000040F6B42C0123C2F270
:10315000000C8CF8003013F0DBB800000000000019
:1031600010B540F6B424C2F20004206A18B16DF024
:103170002FFB002020622069002808BF10BD62F0EC
:103180009BFA0020206110BD43F6E810C2F2000057
:1031900001F08EBE0000000043F66020C2F2000085
:1031A00001F086BE0000000043F67010C2F200007D
:1031B00001F07EBE0000000043F6F800C2F20000FD
:1031C00001F076BE0000000043F68000C2F200006D
:1031D00001F06EBE0000000040F20F42D0F800C0C7
:1031E000C4F20202944511DC6F22C4F2020294453B
:1031F00022DC3F22C4F20202944539DC1022C4F2E0
:10320000020294455AD0282254E000BF40F26F4297
:10321000C4F2020294451BDC40F23F42C4F20202B7
:1032200094452DDC40F21042C4F20202944545D090
:1032300040F228423EE000BF9F22C4F202029445C1
:1032400028DC7022C4F20202944537D0882231E093
:1032500040F29F42C4F20202944523DC40F27042E5
:10326000C4F20202944529D040F2884222E000BF15
:103270004022C4F20202944520D058221AE000BF36
:1032800040F24042C4F20202944517D040F2584244
:1032900010E000BFA022C4F2020294450ED0B82272
:1032A00008E000BF40F2B842C4F20202944505D0E3
:1032B00040F2A042C4F20202944517D10CF0F80289
:1032C0004AF6AB23103ACAF6AA23A2FB03310AA39B
:1032D0005F2AC1F302115B5C40F2FF312CEA01016D
:1032E000C36588BF04318165084670472CF0FF0133
:1032F00081650846704700BF0006101600061016CC
:1033000070B540F26F44D0F800C0C4F20204D0F8A7
:1033100058E0A4451ADC9F25C4F20205AC4533DC15
:103320005725C4F20205AC455ADC1025C4F202054B
:10333000AC4500F098802825C4F20205AC4500F0A9
:1033400092804025C4F202058AE000BF45F22F4575
:10335000C5F60205AC452DDC40F2B745C4F20205C6
:10336000AC454BDC40F27045C4F20205AC457AD066
:1033700040F28845C4F20205AC4574D040F2A04545
:10338000C4F202056CE000BF40F22745C4F202051A
:10339000AC4543DCA025C4F20205AC4563D0B8259A
:1033A000C4F20205AC455ED040F21045C4F20205FD
:1033B00056E000BF45F26B45C5F60205AC453FDC63
:1033C00045F23045C5F60205AC454CD045F24445C2
:1033D000C5F60205AC4546D045F258453EE000BF73
:1033E0005825C4F20205AC453DD07025C4F2020553
:1033F000AC4538D08825C4F2020531E040F2B8452A
:10340000C4F20205AC452ED045F20845C5F60205CA
:10341000AC4528D045F21C4520E000BF40F22845CD
:10342000C4F20205AC451ED040F24045C4F202058C
:10343000AC4518D040F25845C4F2020510E000BF78
:1034400045F26C45C5F60205AC450CD045F29445F5
:10345000C5F60205AC4506D045F28045C5F6020525
:10346000AC4540F0D080456EC66E002E866E6E6014
:103470001CBFD0E91C566E60A44515DC9F24C4F225
:103480000204A4452CDC5724C4F20204A44551DCF8
:103490001024C4F20204A4457AD02824C4F2020401
:1034A000A44575D040246FE045F22F44C5F60204D0
:1034B000A44529DC40F2B744C4F20204A44545DC2B
:1034C00040F27044C4F20204A44561D040F2884442
:1034D000C4F20204A4455BD040F2A04454E000BF13
:1034E00040F22744C4F20204A4453FDCA024C4F205
:1034F0000204A4454CD0B824C4F20204A44547D029
:1035000040F2104440E000BF45F26B44C5F60204AF
:10351000A44555DC45F23044C5F60204A44561D00B
:1035200045F24444C5F60204A4455BD045F2584434
:1035300054E000BF5824C4F20204A44528D07024EB
:10354000C4F20204A44523D088241DE040F2B8440C
:10355000C4F20204A4451BD045F20844C5F6020497
:10356000A4453FD045F21C4438E000BF40F2284457
:10357000C4F20204A4450BD040F24044C4F2020459
:10358000A44505D040F25844C4F20204A4453AD1FF
:103590008468C06D00F01F003F2505FA00F0CEF8EA
:1035A0000800DCF80000402C20F48020CCF800005B
:1035B000CCF8043023D1CCF80820CCF80C1070BD26
:1035C00045F26C44C5F60204A4450BD045F2804494
:1035D000C5F60204A44505D045F29444C5F602049C
:1035E000A44510D1C46D012504F01F04806805FABC
:1035F00004F4CEF804404028CCF80430DBD0CCF8FA
:103600000810CCF80C2070BD7047000000000000CE
:103610004FF4004002F07CBD43F63E6043F6446147
:10362000C0F61200C0F612010DF042FDEFF310805B
:1036300072B600BFFEE7000090F85020012A01D1C9
:1036400002207047B0B582B042F2083200230193E5
:10365000C4F202020093A2F542740368A34227D188
:103660004FF6006C4FF60055CFF6FF7CCFF6FF7596
:1036700052F80C40535923435B0719D4D1F800E0AA
:103680001368BEF1000F23F440441FD04B6823435E
:103690001360535952F80C502B43DB0722D11368A7
:1036A00040F61F75AB438968194341EA0E0118E0E3
:1036B000416D41F0200141650121002280F8502038
:1036C00002B0BDE8B0400846704700BF14605159D1
:1036D00052F80C301943C90704D1116840F61F7322
:1036E000994311600021E8E7F0B581B00022009213
:1036F00090F85020012A03D10221084601B0F0BD04
:103700000768012380F85030BB685B0700F16C81CB
:103710000C684FF6FF7CB4F1FF3FC0F20F0C4FEA8C
:10372000946E0FDD94FAA4F314EA0C0FB3FA83F34A
:1037300008BFA30E012403F01F0304FA03F3FC697E
:103740002343FB614B681F260EF01F02C3F30124C5
:1037500003F01F039E4007EB84049A40256B25EA83
:10376000060632432263BA68BB6802F0040203F023
:103770000803D21840F095800A6807258E68C2F3C6
:103780004063C2F3045207EB830395405C6906FA79
:1037900002F224EA05052A435A6141F20002C5F605
:1037A0000042126802F07042B2F1805F32D14A6981
:1037B000FB680E2606EA530302FA03F30C69042C95
:1037C00038D007F160020E6806F0F84652F824502F
:1037D000334305F000452B4342F824300B694E7EFD
:1037E00052F82350012E25F0004508BF05F1004591
:1037F00042F823500A7E0B693E69013A03F01F0329
:10380000B2FA82F226F4F0465209D2029A403243CA
:103810003A6146E0FA684B69FE68D2064FEA560400
:1038200002D404F00E0201E004F0080293400C6997
:10383000042CC6D13A6E0B6802F0F8429B069A42FD
:1038400018D13A6E22F000423A667A6E02F0F842DF
:103850009A4214D0BA6E02F0F8429A4218D1BA6E67
:1038600022F00042BA66FA6E02F0F8429A4214D090
:1038700017E000BF7A6E02F0F8429A42EAD17A6EFF
:1038800022F000427A66BA6E02F0F8429A42E6D01E
:10389000FA6E02F0F8429A4203D1FA6E22F0004228
:1038A000FA66BA68D20752D1CA680B6802F01805E6
:1038B00003EA0C042CFA05F540F2000CD7F8C060BE
:1038C000C4F2FF7CA6431D40624545EA0602C7F8E4
:1038D000C02039D194B193FAA3F2B2FA82F2013244
:1038E00002F01E03092B02F01F0310D8012203EB84
:1038F00043069A4042EA065315E000BF012202EB5C
:10390000936202F01E030A2B02F01F03EED3012282
:1039100003EB43069A400023CFF6206303EB0653E4
:103920001A4342F00073C3F340620725C3F3045304
:103930008E6807EB82029D40546906FA03F324EA7D
:1039400005052B4353610B68B3F1FF3F02DD0021F6
:103950004FE000BF42F2000146F2083CC4F202010F
:10396000C5F6020C01F5807201F542769742624677
:1039700008BF32468F4242F2001508BF324647F474
:103980008076C4F20205AE42D2F800E024D18A6803
:10399000D1F808111143C90726D100210EF0E074B7
:1039A000CCF684318B4208BF1EF4000128D00021E0
:1039B000CCF252718B4263D10021B1EB146F5FD115
:1039C000ACF542718F42C2D1DCF8001021F0E071F9
:1039D000214341F0807168E04FF60051CFF6FF714E
:1039E0005CF80110C907D8D0416D41F02001416554
:1039F0000121002280F85020084601B0F0BD00BF30
:103A0000ACF542718F42A2D1DCF8001042F663524D
:103A100021F0E071C0F23E52214341F40001CCF8A4
:103A2000001040F20801C2F2000109688909A1FBF7
:103A300002129109022202EB410100910099002932
:103A40003FF485AF009901390091009900293FF4B6
:103A50007EAF009901390091009900293FF477AFBA
:103A6000009901390091009900293FF470AF009945
:103A700001390091009900294FF00001E2D1B8E727
:103A8000ACF542718F424FF00001B2D10022CCF66A
:103A9000B872934208BF1EF48002AAD1DCF800106D
:103AA00021F0E071214341F48001CCF800104EE791
:103AB0000068006C7047000070B582B004460028B2
:103AC0004FF0000001902DD0606D30B9204600F01D
:103AD0001FF90020A06584F85000206881688900E3
:103AE0004FF6C071C5F6FF7102D582680A40826048
:103AF0008268D20031D4826801F18051114042F6CF
:103B0000635241F08051816040F20801C0F23E52A0
:103B1000C2F2000109688909A1FB0212012101EB2F
:103B2000921105E00126304602B070BD01990139BD
:103B30000191019989B1019901390191019961B10D
:103B4000019901390191019900291FBF019901399A
:103B50000191019918BF0029E8D18168C90009D4F1
:103B6000616D012641F010016165A16D41F0010117
:103B7000A16500E000268168626D02F0100201F08C
:103B800004018918616D40F0918021F48171023146
:103B900061658168C90728D142F2001240F4807142
:103BA000C4F20202914242F20001C4F2020140F06A
:103BB000A5808A68D1F808311A43D20715D101F5DA
:103BC000807201F5427346F2080C9042C5F6020C71
:103BD0001A4618BF0CF54072884208BF1A46606842
:103BE000116821F47C110843106002F081FB41F25E
:103BF000030100228842A068A0F1100188BF0122C1
:103C0000B1FA81F1237F49091140226B617D15468C
:103C100016BF4D034A031C20012B45EA034141EA2C
:103C2000020141EA000106D1206A0022CFF6FE72AD
:103C300002EB40400143606A20B100F47870A26A50
:103C40001043014320684CF20303CFF6F073C268BF
:103C50001A401143C1608168826801F0040102F0DA
:103C60000802891836D1217D44F20305E26AC3684F
:103C700042EA813123EA05021143C16094F8381009
:103C8000012901691AD14FF61E020125CFF6004223
:103C9000CFF6FF751140D4E90F231943636C05EB90
:103CA00002421143A26C1943114309E041F0100094
:103CB00001266065304602B070BD00BF21F00101F1
:103CC00001610169626B21F070411143016120467D
:103CD000FEF7BAF92068E1680129026B22F00F01B2
:103CE00002D1A269013A114301630121606D61F3C0
:103CF00001006065304602B070BD00BF46F20802A8
:103D0000C5F602021268D2073FF459AF6DE7000012
:103D1000B0B5B8B0044602A8C0210025CDE936559B
:103D2000CDE934553395FDF705F842F200112068CE
:103D3000C4F20201884235D042F20001C4F202010D
:103D4000884269D1002003904FF4002002904FF484
:103D500000302B9002A805F06BF908B1FFF75CFC6E
:103D600040F6EC5144F2D840C2F20001C5F6020020
:103D70000A68002A02F101020A6008D1016841F0D4
:103D800020010160016801F0200101910199816821
:103D900041F004018160806800F004000190019806
:103DA00001202DE04FF4002002904FF400302B90C2
:103DB00002A8039505F03CF908B1FFF72DFC40F689
:103DC000EC5144F2D840C2F20001C5F602000A6884
:103DD000002A02F101020A6008D1016841F02001C5
:103DE0000160016801F0200101910199816841F0B1
:103DF00004018160806800F00400019001980220B5
:103E00003390032034900020359040F60000C5F632
:103E1000020033A902F088F938B0B0BD00000000FC
:103E2000F0B581B042F2000446F20833C4F2020455
:103E3000016804F5807504F54272C5F60203A942D3
:103E400008BF1346A14208BF13461E688968490788
:103E500003D490F85010012902D1022001B0F0BD26
:103E6000012180F850100746FEF786F930B1002096
:103E700087F85000012001B0F0BD00BF3968384616
:103E8000A94206F01F0218BF0C467B6D40F6017672
:103E9000671A23EA0606B7FA87F77F09FB0706F5D4
:103EA0008077476500D11AB9476D27F480174765B9
:103EB000476D0026FF044FF0000744BF876D27F0D1
:103EC000060787654FF01C070F6080F8506043B904
:103ED000092A19D8012303FA02F240F221231A42D7
:103EE00012D0CA68920104D5426D012363F30D32EA
:103EF00042654FF6C0728868C7F6FF721040043002
:103F00008860002001B0F0BD416D41F48011416531
:103F1000E1688901F5D5416D012262F30D314165FA
:103F2000002001B0F0BD0000CB0701D10120704797
:103F300010B54FF680734FEAF204C7F6FF7311EA2B
:103F4000030C18BF4FF0010C032C0AD840F2000EEE
:103F5000C7F6FF7EDFE804F01602081011EA0E0330
:103F600010D0012010BD00BF0EF57F430B401CBFD9
:103F7000012010BD06E000BFBCF1000F02D00120FF
:103F800010BD00BF00684161816821F01801114334
:103F90008160002010BD0000F0B502234377D0F807
:103FA00000E0036ADEF80850012B45F00105CEF869
:103FB000085047D0022B39D0032B51D1002A00F0F2
:103FC0001081940802F0030C4FF0000215D0A1F10B
:103FD0001003A2EB840400BF53F8105FCEF800502A
:103FE0005D68CEF80050043A9D68CEF800509442C7
:103FF000DD68CEF80050EFD15242BCF1000F00F066
:10400000F080BCF1010F51F82230CEF8003000F002
:10401000E88001EB8201BCF1020F4A68CEF8002073
:1040200000F0DF808968CEF80010DAE053081DD078
:104030005E1E03F0030C032E2CD20024BCF1000FF3
:1040400057D171E0930815D05D1E03F0030C032DCA
:1040500074D20023BCF1000F40F09580A8E000BFAF
:104060000021012242770846F0BD00BF0023D2079D
:104070005ED1B6E0002302F00302032A40F09F80E5
:10408000CA18C95C537843EA0121AEF80010917850
:104090009AE000BF6FF0030401F10E0304EA52043A
:1040A0006542002433F80E6C33F80C7C043CA542C6
:1040B00047EA0646CEF8006033F80A6C33F8087C0D
:1040C00047EA0646CEF8006033F8066C33F8047C05
:1040D00047EA0646CEF8006033F8026C33F8107BEE
:1040E00047EA0646CEF80060DCD16442BCF1000F1E
:1040F0001AD001EB840331F82440BCF1010F5D8834
:1041000045EA0444CEF800400ED09C88DD88BCF11E
:10411000020F45EA0447CEF8007005D01F895B897D
:1041200043EA0743CEF8003022F00103D20758D00B
:1041300031F81310AEF8001053E000BF6FF0030425
:1041400001F10F0304EA92046542002453F80F6C56
:10415000043CA54236BACEF8006053F80B6C36BA70
:10416000CEF8006053F8076C36BACEF8006053F80A
:10417000036C03F1100336BACEF80060E6D1634257
:10418000BCF1000F14D051F82340BCF1010F24BA48
:10419000CEF800400CD001EB8303BCF1020F5C6849
:1041A00026BACEF8006003D09B681BBACEF8003068
:1041B00022F0030302F00302032A3FF461AF022A54
:1041C00006D0012A0BD1C95C8EF8001007E000BFB1
:1041D000CA18C95C527842EA0121AEF80010D0F842
:1041E00000E0DEF80010012242770846F0BD000032
:1041F000D0B110B50446407F20B90020207720467A
:1042000000F036F802206077207978B1D4E9021204
:104210002046FFF789FE00281CBF012010BD6079F1
:1042200088B1206911E000BF01207047206841F685
:10423000B751C0F2C1414161816821F0180181602C
:1042400060790028EDD14FF0FF302168D4E90523D3
:104250000861886820F0600010438860886820F05A
:1042600080001843886001206077002010BD0000A6
:1042700044F2E0410068C5F6020101F5E4629042B3
:1042800018BF704781B0086840F4002008600868D3
:1042900000F400200090009801B07047000000007A
:1042A00090F86020012A4FF0020257D02DE9F0412A
:1042B000C1EBC10380F8612000EB830303F1280EFA
:1042C000D3E90B42D3E90DC5DE6B1204A4F1090852
:1042D0004FEA0C67B8F1020F42EA055538BF0CF0FF
:1042E0007F4745EA46564FF6F07246EA0705C0F2A8
:1042F000CC02002945EA040118D00B2C05D1DEF8C8
:104300001830A2F5402241EA83410468B8F1010F58
:10431000E36902EA030241EA0201E161DEF800100A
:10432000216113D82CF07F4121620FE00468B8F1BD
:10433000010F636A02EA030241EA02016162DEF8E8
:104340000010A16102D82CF07F41A162002201215E
:1043500080F8611080F86020BDE8F0411046704799
:1043600000283FD010B590F8611031B9002180F8D5
:104370006010044600F038F82046022180F86110F1
:1043800090E806404FF6BF73D0F80CC00C68CFF62B
:10439000F8732340C4691A4340F2071322430A60AA
:1043A0004A6B9A43836942EA0E021A434A630A6CD3
:1043B0004FF6FF739A4342EA0C020A644A6B0369A0
:1043C00022F44012446942EA035242EA44524A63E8
:1043D00000214166012280F86120BDE810400846B6
:1043E000704700BF0120704741F200010068C5F22C
:1043F0000021884218BF704781B044F2D440C5F60E
:104400000200016841F010010160006800F0100036
:104410000090009801B0704770B582B00022019200
:10442000026804460D461068C00757D001F068FFC7
:1044300022685168890751D4064650680190681C6B
:10444000019838D010F0210F38D1002D00F0BE8037
:1044500001F056FF801BA84200F2BA802268506823
:1044600080073BD450680190019810F0210FEFD0E5
:1044700024E000BF5068800730D450680190019854
:1044800010F0210F1AD15068800727D4506801908E
:10449000019810F0210F11D1506880071ED4506888
:1044A0000190019810F0210F08D15068800715D4B1
:1044B00050680190019810F0210FDBD00198800620
:1044C00003D5606E40F0020060660198C00703D01B
:1044D000606E40F001006066212021E0D069516AE1
:1044E0000843800644D501F00BFF22685168C906D5
:1044F0003ED4064650680190681C019817D010F011
:10450000290F51D0019800073ED40198800642D46B
:104510000198C00703D0606E40F00100606629205A
:1045200090600120042127E050680190019810F06C
:10453000290FE7D15068C0061AD45068019001983D
:1045400010F0290FDED15068C00611D450680190D8
:10455000019810F0290FD5D15068C00608D45068D2
:104560000190019810F0290FCCD15068C006DBD51E
:10457000122090600020012184F86110002184F84D
:10458000601002B070BD00BF606E40F00400606655
:1045900001988006BCD5606E40F00200606601980C
:1045A000C007B8D1BBE700BF85B100BF01F0A8FECE
:1045B000801BA8420CD822685068C006D8D4506826
:1045C0000190019810F0290FF0D09BE701F098FEC0
:1045D000606E032140F0200060660320CCE70000FD
:1045E00090F860C0BCF1010F4FF0020C68D0B0B57C
:1045F0004FF0010E80F860E080F861C0049CD0E9C3
:1046000000CE44EA0343BEF5802FDCF8445005F0A9
:10461000404543EA0503CCF84430CCF83C2013D0A5
:10462000BEF5403F12D1CAB28368032B2CD80FF2DB
:104630000C0000EB83053820DFE803F036020A1493
:1046400021F07F4130E000BF14202DE00C202BE052
:104650004FF4FC604FF4784300EA511003EA112153
:104660000DE000BF4FF478704FF4F84300EA91106A
:104670004FF4004503EA5123184405EA1141084468
:1046800040EAD2010FE000BFF0204FF4706300EA6F
:1046900011204FF4704503EA1133184405EA114123
:1046A000084440EA121138204CF80010DCF80000F1
:1046B00040F00100CCF800004FF0000CBDE8B04025
:1046C00060467047000000002DE9F041044601F00B
:1046D00017FE1CB3054694F83500022822D140F29B
:1046E0000F472668C4F2020740F26F48BE426FF0DF
:1046F0000E00C4F202081DDC6F21C4F202018E42DA
:104700002ADC3F21C4F202018E4241DC1021C4F2B6
:1047100002018E4263D028215CE000BF0120BDE889
:10472000F08100BF802060650120002184F83410F2
:10473000BDE8F08146451BDC40F23F41C4F2020176
:104740008E422DDC40F21041C4F202018E4246D06E
:1047500040F228413EE000BF9F21C4F202018E4298
:1047600028DC7021C4F202018E4238D0882131E069
:1047700040F29F41C4F202018E4223DC40F27041BC
:10478000C4F202018E422AD040F2884122E000BFEA
:104790004021C4F202018E4221D058211AE000BF0C
:1047A00040F24041C4F202018E4218D040F258411A
:1047B00010E000BFA021C4F202018E420FD0B82148
:1047C00008E000BF40F2B841C4F202018E4206D0B8
:1047D00040F2A041C4F202018E42314607D1314677
:1047E000306820F01E0041F8140B6FF080000A685A
:1047F000464500EA020008601ADC9F20C4F202006D
:10480000864233DC5720C4F2020086425ADC102074
:10481000C4F20200864200F097802820C4F2020011
:10482000864200F091804020C4F202008AE000BF7E
:1048300045F22F40C5F6020086422DDC40F2B7401B
:10484000C4F2020086424BDC40F27040C4F2020027
:10485000864279D040F28840C4F20200864273D08A
:1048600040F2A040C4F202006CE000BF40F22740DA
:10487000C4F20200864243DCA020C4F20200864259
:1048800062D0B820C4F2020086425DD040F21040EF
:10489000C4F2020056E000BF45F26B40C5F60200CC
:1048A00086423FDC45F23040C5F6020086424BD0DE
:1048B00045F24440C5F60200864245D045F25840D4
:1048C0003EE000BF5820C4F2020086423CD0702077
:1048D000C4F20200864237D08820C4F2020031E0E0
:1048E00040F2B840C4F2020086422DD045F20840A2
:1048F000C5F60200864227D045F21C4020E000BFEA
:1049000040F22840C4F2020086421DD040F24040EE
:10491000C4F20200864217D040F25840C4F20200AE
:1049200010E000BF45F26C40C5F6020086420BD095
:1049300045F29440C5F60200864205D045F280401B
:10494000C5F60200864204D1206E016821F4807110
:104950000160306820F00100306000BF3068C0079F
:1049600010D001F0CDFC401B0628F7D32020606555
:10497000032084F835000120002184F83410BDE8BC
:10498000F08100BF20680821B8424FF03F0211DCDF
:104990006F23C4F2020398421EDC3F23C4F20203D9
:1049A000984235DC1023C4F20203984257D02823E2
:1049B00050E000BF40451BDC40F23F43C4F202031D
:1049C00098422DDC40F21043C4F20203984246D0D4
:1049D00040F228433EE000BF9F23C4F20203984206
:1049E00028DC7023C4F20203984238D0882331E0D7
:1049F00040F29F43C4F20203984223DC40F270432A
:104A0000C4F2020398422AD040F2884322E000BF59
:104A10004023C4F20203984221D058231AE000BF79
:104A200040F24043C4F20203984218D040F2584387
:104A300010E000BFA023C4F2020398420FD0B823B5
:104A400008E000BF40F2A043C4F20203984206D03F
:104A500040F2B843C4F20203984240F0C580D4E962
:104A6000163707F01F07404502FA07F25A5019DCC3
:104A70009F21C4F20201884232DC5721C4F20201B4
:104A8000884259DC1021C4F20201884200F096806D
:104A90002821C4F20201884200F090804021C4F233
:104AA000020189E045F22F41C5F6020188422DDC62
:104AB00040F2B741C4F2020188424BDC40F270413F
:104AC000C4F20201884279D040F28841C4F2020166
:104AD000884273D040F2A041C4F202016CE000BFF2
:104AE00040F22741C4F20201884243DCA021C4F213
:104AF0000201884262D0B821C4F2020188425DD02E
:104B000040F21041C4F2020156E000BF45F26B4191
:104B1000C5F6020188423FDC45F23041C5F602018C
:104B200088424BD045F24441C5F60201884245D047
:104B300045F258413EE000BF5821C4F202018842CC
:104B40003CD07021C4F20201884237D08821C4F2DF
:104B5000020131E040F2B841C4F2020188422DD096
:104B600045F20841C5F60201884227D045F21C41B2
:104B700020E000BF40F22841C4F2020188421DD06B
:104B800040F24041C4F20201884217D040F258413D
:104B9000C4F2020110E000BF45F26C41C5F602010B
:104BA00088420BD045F29441C5F60201884205D0F7
:104BB00045F28041C5F6020188420BD1616EA26EBA
:104BC000E06E4A6030B1016821F480710160D4E97F
:104BD0001C014160012084F835000020002184F888
:104BE0003410BDE8F08100BF0421012237E7000046
:104BF000F0B190F83510022918D180B540F20F427B
:104C00000168C4F20202914214DC6F23C4F2020371
:104C1000994225DC3F23C4F2020399423CDC102375
:104C2000C4F2020399425DD0282357E080214165F8
:104C30000120704740F26F43C4F2020399421BDC2B
:104C400040F23F43C4F2020399422DDC40F210438C
:104C5000C4F20203994245D040F228433EE000BF2F
:104C60009F23C4F20203994228DC7023C4F202039A
:104C7000994237D0882331E040F29F43C4F20203C7
:104C8000994223DC40F27043C4F20203994229D0D6
:104C900040F2884322E000BF4023C4F2020399425D
:104CA00020D058231AE000BF40F24043C4F2020370
:104CB000994217D040F2584310E000BFA023C4F23D
:104CC000020399420ED0B82308E000BF40F2B84377
:104CD000C4F20203994205D040F2A043C4F2020399
:104CE000994275D191424FF0040280F8352011DCD1
:104CF0006F20C4F20200814222DC3F20C4F2020095
:104D0000814239DC1020C4F20200814259D02820AF
:104D100054E000BF40F26F40C4F2020081421BDC4D
:104D200040F23F40C4F2020081422DDC40F21040CC
:104D3000C4F20200814244D040F228403EE000BF6D
:104D40009F20C4F20200814228DC7020C4F20200DD
:104D5000814236D0882031E040F29F40C4F2020008
:104D6000814223DC40F27040C4F20200814228D02C
:104D700040F2884022E000BF4020C4F2020081429D
:104D80001FD058201AE000BF40F24040C4F2020099
:104D9000814216D040F2584010E000BFA020C4F27B
:104DA000020081420DD0B82008E000BF40F2B840B8
:104DB000C4F20200814204D040F2A040C4F20200DA
:104DC0008142086820F001000860002080BD00BF1B
:104DD0000A6822F00E020A6045F25742C5F6020246
:104DE00091420A6822F001020A600FDC45F22F426C
:104DF000C5F60202914219DC45F20842C5F60202EC
:104E0000914229D045F21C4222E000BF45F27F4288
:104E1000C5F60202914213DC45F25842C5F6020281
:104E2000914219D045F26C4212E000BF45F2304287
:104E3000C5F6020291420FD045F2444208E000BF9D
:104E400045F29442C5F60202914205D045F28042F5
:104E5000C5F6020291421AD1D0E9181CD0E916E336
:104E60000A6822F480720A6003F01F01012202FA2C
:104E700001F1CEF80410816ECCF80410C16E31B18E
:104E80000A6822F480720A60D0E91C124A6001218B
:104E900080F83510016D0022002980F8342094D06C
:104EA0008847002080BD0000406D70470000000072
:104EB0002DE9F04782B00021019140F2080148F24B
:104EC000B513C2F20001C1F64E33856D40F26F4951
:104ED0000A680168C4F202092E68A2FB032849454A
:104EE0002A6815DC9F22C4F2020291422CDC572270
:104EF000C4F20202914251DC1022C4F20202914239
:104F00007BD02822C4F20202914276D040226FE088
:104F100045F22F43C5F60203994229DC40F2B7431C
:104F2000C4F20203994245DC40F27042C4F202022C
:104F3000914262D040F28842C4F2020291425CD0B7
:104F400040F2A04254E000BF40F22742C4F2020205
:104F500091423FDCA022C4F2020291424DD0B8221D
:104F6000C4F20202914248D040F2104240E000BF39
:104F700045F26B43C5F60203994275DC45F23043B6
:104F8000C5F60203994200F0828045F24443C5F61B
:104F9000020399427BD045F2584373E05822C4F291
:104FA0000202914229D07022C4F20202914224D01E
:104FB00088221DE040F2B843C4F2020399421CD09B
:104FC00045F20843C5F60203994260D045F21C43FE
:104FD00058E000BF40F22842C4F2020291420CD0D5
:104FE00040F24042C4F20202914206D040F25842DE
:104FF000C4F20202914240F05383C26D082302F0D2
:105000001F0240F20F4A9340C4F2020A334200F0FA
:10501000DE8051454FF0040412DC6F27C4F2020712
:10502000B9426DDC3F27C4F20207B94200F39C800D
:105030001027C4F20207B94200F0BD802827B5E06E
:10504000494569DC40F23F47C4F20207B94200F328
:10505000938040F21047C4F20207B94200F0AB80DF
:1050600040F22847A2E000BF45F26C43C5F60203B8
:1050700099420CD045F28043C5F60203994206D00E
:1050800045F29443C5F60203994240F009830B6848
:10509000C76D07F01F070426BE40164218BF13F065
:1050A000040423D10226BE40164218BF13F00204A6
:1050B00042D1FA40120740F1F38213F0080200F0E7
:1050C000EF820A6822F00E020A60012101FA07F25B
:1050D0006A60416580F83510C16C00294FF000020C
:1050E00080F8342040F0D882DAE200BF1A046E6003
:1050F00034D49A0636D40A6822F004020A6031E0F9
:105100009F27C4F20207B94240DC7027C4F20207AD
:10511000B94250D0882749E040F29F47C4F20207C5
:10512000B9423BDC40F27047C4F20207B94242D0B8
:1051300040F288473AE000BF1A046E6000F1B48282
:105140009A0600F1B5820A6822F00A020A6001217B
:1051500080F83510002180F83410A9E2D90301D479
:10516000816C98E2016C96E24027C4F20207B942D2
:1051700021D058271AE000BF40F24047C4F202078E
:10518000B94218D040F2584710E000BFA027C4F23F
:105190000207B9420FD0B82708E000BF40F2A0478D
:1051A000C4F20207B94206D040F2B847C4F202077F
:1051B000B94218BF08240F68274208D00F6827F0AB
:1051C00004070F60AB60436D43F0010343650123A7
:1051D000934033426FD0514510DC6F27C4F2020771
:1051E000B9421DDC3F27C4F20207B94234DC102764
:1051F000C4F20207B94256D028274FE049451BDCCC
:1052000040F23F47C4F20207B9422DDC40F210479A
:10521000C4F20207B94246D040F228473EE000BF40
:105220009F27C4F20207B94228DC7027C4F20207A4
:10523000B94238D0882731E040F29F47C4F20207D4
:10524000B94223DC40F27047C4F20207B9422AD0C7
:1052500040F2884722E000BF4027C4F20207B9426B
:1052600021D058271AE000BF40F24047C4F202079D
:10527000B94218D040F2584710E000BFA027C4F24E
:105280000207B9420FD0B82708E000BF40F2A0479C
:10529000C4F20207B94206D040F2B847C4F202078E
:1052A000B94240F007824F693F0604D5AB60436DB9
:1052B00043F0020343650423934033426FD05145CA
:1052C00010DC6F27C4F20207B9421DDC3F27C4F28D
:1052D0000207B94234DC1027C4F20207B94256D0A3
:1052E00028274FE049451BDC40F23F47C4F2020744
:1052F000B9422DDC40F21047C4F20207B94246D051
:1053000040F228473EE000BF9F27C4F20207B9429F
:1053100028DC7027C4F20207B94238D0882731E070
:1053200040F29F47C4F20207B94223DC40F27047C3
:10533000C4F20207B9422AD040F2884722E000BFF7
:105340004027C4F20207B94221D058271AE000BF13
:1053500040F24047C4F20207B94218D040F2584721
:1053600010E000BFA027C4F20207B9420FD0B8274F
:1053700008E000BF40F2A047C4F20207B94206D0DD
:1053800040F2B847C4F20207B94240F09B810F686F
:10539000BF0704D5AB60436D43F00403436510239E
:1053A00003FA02F2324200F0828051454FF00803C6
:1053B00010DC6F27C4F20207B9421DDC3F27C4F29C
:1053C0000207B94234DC1027C4F20207B94256D0B2
:1053D00028274FE049451BDC40F23F47C4F2020753
:1053E000B9422DDC40F21047C4F20207B94246D060
:1053F00040F228473EE000BF9F27C4F20207B942AF
:1054000028DC7027C4F20207B94238D0882731E07F
:1054100040F29F47C4F20207B94223DC40F27047D2
:10542000C4F20207B9422AD040F2884722E000BF06
:105430004027C4F20207B94221D058271AE000BF22
:1054400040F24047C4F20207B94218D040F2584730
:1054500010E000BFA027C4F20207B9420FD0B8275E
:1054600008E000BF40F2A047C4F20207B94206D0EC
:1054700040F2B847C4F20207B94218BF04230F68CC
:105480001F4214D0AA600A6852030A6808D4D205E1
:1054900008D40A6822F008020A60016C21B906E00B
:1054A000110351D4016C11B1044688472046C16DE7
:1054B00001F01F02202101FA02F3334200F0AF8015
:1054C00001681027514511DC6F26C4F20206B14273
:1054D0001EDC3F26C4F20206B14239DC1026C4F2BB
:1054E0000206B1425BD0282654E000BF49451BDCD0
:1054F00040F23F46C4F20206B14231DC40F21046AF
:10550000C4F20206B1424AD040F2284642E000BF4F
:105510009F26C4F20206B1422CDC7026C4F20206B9
:10552000B1423CD0882635E040F29F46C4F20206E4
:10553000B14227DC40F27046C4F20206B1422ED0DE
:1055400040F2884626E000BF816C0029ACD1AEE76E
:105550004026C4F20206B14221D058261AE000BF0C
:1055600040F24046C4F20206B14218D040F258461A
:1055700010E000BFA026C4F20206B1420FD0B82648
:1055800008E000BF40F2A046C4F20206B14206D0D5
:1055900040F2B846C4F20206B14218BF02270E68B4
:1055A0003E423CD0AB6090F83530042B0B681DD1E7
:1055B00023F016030B604B6923F080034B61036CEF
:1055C0000BB9836C1BB10B6823F008030B603F2100
:1055D0009140A960012180F83510016D00294FF03C
:1055E000000280F8342057D15AE000BF5A030A68FD
:1055F0000CD4D2050ED40A6822F010020A600121F0
:1056000080F83510002180F8341003E0110301D434
:10561000416C00E0C16B11B1044688472046416DE2
:1056200000293DD0416DC90734D0042180F83510E0
:1056300001684FEA98220B6823F001030B60019B7D
:105640000133019393421AD80B68DB0717D0019BF3
:1056500001330193934212D80B68DB070FD0019BF3
:105660000133019393420AD80B68DB0707D0019BF3
:1056700001330193934202D80B68DB07DFD109683D
:10568000C9074FF0030108BF012180F83510002140
:1056900080F83410C16C19B102B0BDE8F04708477A
:1056A00002B0BDE8F08700BFD90301D4416CF2E736
:1056B000C16BF0E70B680423934033427FF4FFADE6
:1056C0006DE600BF0B686AE62DE9F041044600F084
:1056D00017FEFCB140F26F4805462068C4F202088C
:1056E00040451BDC9F21C4F20201884232DC572175
:1056F000C4F20201884259DC1021C4F2020188423E
:1057000000F083802821C4F20201884200F07D80ED
:10571000402175E00120BDE8F08100BF45F22F4136
:10572000C5F60201884229DC40F2B741C4F2020109
:10573000884247DC40F27041C4F20201884264D0E2
:1057400040F28841C4F2020188425ED040F2A0419A
:1057500056E000BF40F22741C4F20201884241DC1A
:10576000A021C4F2020188424FD0B821C4F2020144
:1057700088424AD040F2104142E000BF45F26B41FE
:10578000C5F60201884200F3B38045F23041C5F608
:105790000201884200F0BF8045F24441C5F6020193
:1057A000884200F0B88045F25841AFE05821C4F279
:1057B0000201884229D07021C4F20201884224D01B
:1057C00088211DE040F2B841C4F2020188421CD099
:1057D00045F20841C5F60201884200F09C8045F27E
:1057E0001C4193E040F22841C4F2020188420CD0EF
:1057F00040F24041C4F20201884206D040F25841D2
:10580000C4F20201884240F01B81022184F8351065
:10581000002184F83410016821F00101016000BF0B
:1058200020680168C9070DD000F06AFD401B0628FA
:10583000F6D320206065032084F835000120BDE800
:10584000F08100BF48F23F0204F108060168CFF67C
:105850001062114065694CCE1143A2691943E36996
:105860003143266A0D43616A2B43042943EA060348
:1058700043EA020303D1D4E90B652E43334341F2DB
:105880000006C5F600463668B6F1005F0FD36568BE
:10589000A5F129061F2E00F235820127B7403F26C9
:1058A000CCF2C036374200F02D8243F480130360FF
:1058B0000429436923F0070341EA030140F0DC8037
:1058C000D4E90A53002B41EA050100F0D580B2F576
:1058D000005F00F0B780002A40F0C080022D00F089
:1058E000C080012D00F0B480002D00F0BA80C3E02C
:1058F00045F26C41C5F6020188420CD045F2804168
:10590000C5F60201884206D045F29441C5F602016F
:10591000884240F0958004F1080E022184F8351089
:10592000002184F834100168A3699EE80450A2F1B4
:105930008005E769B5FA85F566696D09402A4FEA81
:10594000853543EA07026FF3101142EA060208BFE9
:10595000102541EADC0142EA0E02236A294341EAAA
:10596000D20141EA131140F80819C0B2CD214843D1
:105970003C2101EA9020E0652046FDF72DFCE16D19
:10598000012201F01F0102FA01F141602068404547
:1059900000F381809F21C4F20201884214DC572168
:1059A000C4F20201884227DC1021C4F202018842BD
:1059B00000F0C7802821C4F20201884200F0C180B3
:1059C0004021C4F20201B9E040F22741C4F20201D1
:1059D000884221DCA021C4F20201884200F0B1809B
:1059E000B821C4F20201884200F0AB8040F21041BD
:1059F000C4F20201A2E000BF5821C4F202018842B1
:105A000000F09F807021C4F20201884200F099806A
:105A10008821C4F2020191E040F22841C4F202015F
:105A2000884200F08E8040F24041C4F20201884278
:105A300000F0878040F25841C4F202017EE000BFCE
:105A40004020F7E6032D17D8DFE805F00E0B0E0215
:105A5000A3F1C072B2FA82F2520904E0032D03D31B
:105A60000AD1C3F300623AB140206065012084F896
:105A70003500BDE8F08100BF41612046FDF7ACFB79
:105A8000E16D3F2201F01F0102FA01F181602068FF
:105A900040457FF77FAF45F22F41C5F602018842AE
:105AA00016DC40F2B741C4F20201884226DC40F223
:105AB0007041C4F20201884243D040F28841C4F2EE
:105AC000020188423DD040F2A041C4F2020135E01B
:105AD00045F26B41C5F6020188421FDC45F23041B8
